:1000000016C1000045C1000043C1000041C100000D
:100010003FC100003DC100003BC1000039C10000EC
:1000200037C1000035C1000033C1000031C10000FC
:100030002FC100002DC100002BC1000029C100000C
:1000400027C100000C94030E23C1000021C1000051
:100050001FC100001DC100001BC100000C94F71857
:1000600017C100000C94A8170C94DE1711C10000F2
:100070000FC100000DC100000BC1000009C100004C
:100080000C942F0E05C1000003C1000001C1000047
:10009000FFC00000FDC00000FBC000000C94601217
:1000A000F7C00000F5C000000C945B0EF1C000002A
:1000B000EFC00000EDC00000EBC000000C94870E04
:1000C000E7C00000E5C00000E3C00000E1C00000A0
:1000D000DFC00000DDC00000DBC00000D9C00000B0
:1000E000D7C00000321A351A241A281A2E1A6C1A90
:1000F000391A3D1A431A471A4B1A511A551A591AE6
:100100006C1A5F1A631A671A00000A0B02090C0DB9
:100110000E080703040100000000000000000000BA
:1001200000000000000000000000000000000000CF
:10013000000000001211100000000000000000008C
:1001400000000000000000000000000000000102AC
:1001500010202008081020401020408002010201D9
:100160000804020101020408102040808040201091
:1001700008040201800402018040201008040201EA
:100180000804020101020408102040800102040852
:10019000102040800505050507050808080802022B
:1001A00002020A0A08080404040401010101010111
:1001B00001010303030303030303040707070C0CF4
:1001C0000C0C0C0C0C0C02020202060606060606BB
:1001D00006060B0B0B0B0B0B0B0B00002000230078
:1001E000260029002C002F0032000001000003012E
:1001F0000601090100002200250028002B002E0026
:100200003100340002010000050108010B0100006B
:100210002100240027002A002D00300033000101B6
:100220000000040107010A012F038B141018112488
:100230001FBECFEFD1E2DEBFCDBF00E00CBF12E0AA
:10024000A0E0B2E0E2E0FFE300E00BBF02C00790F5
:100250000D92A63BB107D9F725E0A6EBB2E001C0AD
:100260001D92A830B207E1F711E0C7E1D1E000E04C
:1002700006C021970109802FFE010E94FA1CC4319B
:10028000D10780E00807A9F70E943E180C947F1F51
:10029000B7CE0895EF92FF920F931F93CF93DF9302
:1002A000CDB7DEB7E1970FB6F894DEBF0FBECDBF76
:1002B00026E040E855E260E070E08EE594E00E94C0
:1002C000451788E094E00E945D1461E08AE00E9496
:1002D0006D1A60E08AE00E94A91A88E0E82E82E0A8
:1002E000F82E61E0F70180810E946D1A06E012E0AD
:1002F00061E0F80180810E946D1A60E0F701808161
:100300000E94A91A61E0F80180810E94A91A85ED76
:1003100092E0AAD505ED12E0F80186898BA78AE65E
:1003200092E09AA789A78789908D9DA78CA7818D38
:10033000928DA38DB48D8EA79FA7A8ABB9ABBE013C
:100340006F5F7F4FCE018996D5D5F801878D8BA73A
:1003500088E792E09AA789A780A191A19DA78CA781
:1003600082A193A1A4A1B5A18EA79FA7A8ABB9AB69
:10037000BE016F5F7F4FCE0189964DD66DA17EA1E4
:100380008FA198A528EE33E040E050E00E94DE1CEB
:100390002093D1023093D2024093D3025093D402DF
:1003A0000E9493108FEB92E00E941D0AE9EBF2E0AD
:1003B0008FEF8083818382838383848385836091AD
:1003C0000A0270910B0286EB92E00E947B0F60E0C4
:1003D00070E086EB92E00E94B60FE1960FB6F894BB
:1003E000DEBF0FBECDBFDF91CF911F910F91FF9068
:1003F000EF900895FF920F931F93CF93DF93CDB7A4
:10040000DEB72C970FB6F894DEBF0FBECDBF8FEBD3
:1004100092E00E94180D882309F48EC08FEB92E0C1
:100420000E94330D882309F487C068EA72E0CE0188
:1004300007960E94A81BF12C8091BF02F81608F0C5
:1004400045C00F2D10E001541D4FF801818180310E
:1004500018F067E472E002C06CE072E08EE594E0B0
:100460000E948A1840E150E0F80161818EE594E035
:100470000E94F118F8018181803118F067E472E080
:1004800002C06CE072E0CE0101960E94A81BBE0182
:100490006F5F7F4FCE0107960E94281CCE01019608
:1004A0000E943E1B40E1F8016181CE0101960E944D
:1004B000D11BBE016F5F7F4FCE0107960E94281CA3
:1004C000CE0101960E943E1BF394B6CFCE01079653
:1004D0000E948F1C2B853C8541E050E0BE01695F86
:1004E0007F4FCE0101960E944C1C6FE072E0CE015E
:1004F00001960E942E1C182FCE0101960E943E1BD1
:10050000112369F06BE172E08EE594E00E948E1891
:100510008EE594E00E948B1801E010E008C06DE2C7
:1005200072E08EE594E00E948E180FEF1FEFCE016F
:1005300007960E943E1B08C062E370E080E090E0F6
:100540000E94721900E010E0C8012C960FB6F894D2
:10055000DEBF0FBECDBFDF91CF911F910F91FF90F6
:1005600008958091080290910902019749F460E092
:1005700081E00E94A91A61E0809106020E94A91AF6
:100580008091060290910702019751F461E08091F9
:1005900008020E94A91A60E0809106020E94A91A2E
:1005A00064E670E080E090E00C94721986EB92E0D3
:1005B0000E942F10843B910541F461E080910A0272
:1005C0000E94A91A60E070E00BC086EB92E00E94E6
:1005D0002F1060E080910A020E94A91A64EB70E07B
:1005E00086EB92E00E94B60F64E670E080E090E057
:1005F0000C9472198130910549F461E08AE00E94FF
:10060000A91A64E670E080E090E019C0823091059C
:10061000D1F461E08AE00E94A91A62E370E080E010
:1006200090E00E94721960E08AE00E94A91A61E0DD
:100630008AE00E94A91A62E370E080E090E00E94E4
:10064000721960E003C0039721F461E08AE00E9420
:10065000A91A64E670E080E090E00C947219AF9201
:10066000BF92CF92DF92EF92FF920F931F93AA2433
:10067000AA94BA2C6501EE24EA94FE2C870126E0A8
:100680004BE062E085ED92E0B8D345E065E38FEBA7
:1006900092E0D1D586EB92E01F910F91FF90EF9001
:1006A000DF90CF90BF90AF900C94B30ECF92DF92BB
:1006B000EF92FF92CF93DF93CDB7DEB7AD970FB632
:1006C000F894DEBF0FBECDBF6091D1027091D2020F
:1006D0008091D3029091D4020E9472198091EB0212
:1006E0008FA38AE692E09EA38DA38091EC02909165
:1006F000ED0299A788A78091EE029091EF02A09158
:10070000F002B091F1028AA79BA7ACA7BDA7BE01DA
:100710006F5F7F4FCE018596F9D2CD88DE88EF8856
:10072000F88CA7019601C701B6010E9439168823EB
:1007300039F084EA91E09093D0028093CF0208C010
:10074000C701B6010E94F3147093D0026093CF02E8
:100750008091F4028FA388E792E09EA38DA38091FD
:10076000F5029091F60299A788A78091F7029091DF
:10077000F802A091F902B091FA028AA79BA7ACA750
:10078000BDA7BE016F5F7F4FCE018596F9D2CD88A0
:10079000DE88EF88F88CA7019601C701B6010E9498
:1007A0003916882339F088E691E09093CE02809341
:1007B000CD0208C0C701B6010E94F3147093CE02A7
:1007C0006093CD0264E070E088E094E00E947614CB
:1007D00046E050E06CE372E088E094E00E94F3139E
:1007E0006091CF0288E094E00E941F1488E094E0BA
:1007F0000E94891464E070E088E094E00E9476141E
:1008000045E050E063E472E088E094E00E94F31376
:100810006091CD0288E094E00E941F1488E094E08B
:100820000E948914E7DD8130910531F49ADE81E080
:1008300090E0E0DEBBDE06C0019621F492DE82E0AD
:1008400090E0D8DE68EE73E080E090E00E947219DC
:10085000AD960FB6F894DEBF0FBECDBFDF91CF913E
:10086000FF90EF90DF90CF900895DC0115966C9388
:10087000159716964C93169770E0FB01E25BFE4FBE
:10088000E4911796EC931797FB01EC56FE4F649199
:1008900018966C93189740E85EE360E070E01D9650
:1008A0004D935D936D937C93509708951F93CF93D1
:1008B000DF93EC01162F62E08D810E946D1A0E9479
:1008C0004119DC01CB01805D9740A109B1098987FD
:1008D0009A87AB87BC871A8BDF91CF911F910895C0
:1008E000CF92DF92EF92FF921F93CF93DF93EC01B1
:1008F0001F81662311F0912F01C090E0288530E020
:10090000220F331F26523E4FA0E0B0E0F90145917F
:100910005491FA0180818123AD0160E070E0981369
:100920000FC01196CD84DE84EF84F8884C155D05E8
:100930006E057F0558F33FEF2FEF8FEF9FEF03C05A
:100940003A2F252FCB01632F722FDF91CF911F916B
:10095000FF90EF90DF90CF9008958F929F92AF928B
:10096000BF92CF92DF92EF92FF920F931F93CF939C
:10097000DF93CDB7DEB7C054D1400FB6F894DEBFD9
:100980000FBECDBF8C01F62E0E944119F11016C08A
:10099000F801C184D284E384F4849B01AC012C1956
:1009A0003D094E095F0969017A0130EDC31637E050
:1009B000D306E104F10410F48189B6C0F80161871F
:1009C0007287838794871482138212821182108225
:1009D00062E085810E946D1A61E070E080E090E045
:1009E0000E94721961E0F80185810E946D1A60E031
:1009F000F80185810E94A91AF8018681855182300B
:100A000028F48CE494E00E94AB1906C064E170E025
:100A100080E090E00E94721962E0F80185810E94F6
:100A20006D1AF801828990E00E94AB19F89460E099
:100A3000C80156DF6F3F7F4F8F4F9F4F21F4F80162
:100A4000118A789442C061E0C8014ADF6F3F7F4F4E
:100A50008F4F9F4FA1F39E012F5F3F4F79015E01A2
:100A60003FEBA31A3EEFB30A670160E0C80138DF2D
:100A7000F601608371838283938361E0C80130DF74
:100A8000F6016483758386839783F8E0CF0ED11CCB
:100A9000CA14DB0451F7789420E030E0F70180803D
:100AA0009180A280B3804481558166817781FFEF78
:100AB0008F169F06AF06BF0631F04F3F8FEF5807E6
:100AC0006807780721F4F801118A80E02DC0F90148
:100AD00083E0F595E7958A95E1F7E00FF11F8081B6
:100AE000880F84169506A606B70608F481608083F1
:100AF0002F5F3F4FF8E0EF0EF11C2832310571F601
:100B0000F801248130E04081818190E0840F911DC3
:100B10004281840F911D4381840F911D99272817CD
:100B2000390789F681E0818BC05CDE4F0FB6F894FF
:100B3000DEBF0FBECDBFDF91CF911F910F91FF9010
:100B4000EF90DF90CF90BF90AF909F908F900895DF
:100B5000CF92DF92EF92FF920F931F93CF93DF9389
:100B60008C01C62F642FF9DE882309F478C0F801C0
:100B700086818C3009F445C018F48B30C9F06FC001
:100B80008551823008F06BC0F801D2816D2F6F77EC
:100B900070E0762F66278381682B80E090E00E94CA
:100BA00024152DEC3CEC4CEC5DE30E94D61546C0C0
:100BB000F801628170E080E090E00E9424156B01F2
:100BC0007C01F801D381D7FF0AC09B01AC0160E032
:100BD00070E080E89FEB0E948E146B017C016D2F0A
:100BE0006F7070E080E090E00E9426152DEC3CECE8
:100BF0004CEC5DE30E94D615A70196010E948F146C
:100C00001FC0F801D28163816F7070E080E090E0D6
:100C10000E9426152DEC3CEC4CEC5DE30E94D615B1
:100C20006B017C016D2F70E080E090E00E94241544
:100C30009B01AC01C701B6010E948F14D7FD9058EB
:100C4000CC2389F026E636E646EE5FE30E94D61511
:100C500020E030E040E052E40E948F1404C060E0E5
:100C600070E080EC9FE7DF91CF911F910F91FF9093
:100C7000EF90DF90CF900895CF92DF92EF92FF92A6
:100C8000CF93DF93EC0169DE882399F18E818B305D
:100C900080F18D3098F08551823058F568817981E6
:100CA00076276727762780E090E00E9424152DECB8
:100CB0003CEC4CEC5DE30E94D6151FC0698170E0EE
:100CC00080E090E00E9426152DEC3CEC4CEC5DE3BE
:100CD0000E94D6156B017C01688170E080E090E095
:100CE0000E9426159B01AC01C701B6010E948F141A
:100CF00004C060E070E080EC9FE7DF91CF91FF904F
:100D0000EF90DF90CF900895089508950F931F936B
:100D1000CF93DF938C01EB0184E2FB0111928A9562
:100D2000E9F784E290E0A0E0B0E088839983AA83A9
:100D3000BB83F80185819681A781B0858C839D83D3
:100D4000AE83BF838DE090E0A0E0B0E08887998714
:100D5000AA87BB870E944119688B798B8A8B9B8BF2
:100D600040E060E0F80183819481F2DE6C8B7D8B42
:100D70008E8B9F8B81E0DF91CF911F910F91089512
:100D80000F931F93CF93DF938C01EB0184E2FB0160
:100D900011928A95E9F784E290E0A0E0B0E08883C0
:100DA0009983AA83BB83F80185819681A781B08549
:100DB0008C839D83AE83BF838CE090E0A0E0B0E0A5
:100DC00088879987AA87BB870E944119688B798B8E
:100DD0008A8B9B8B60E0F801838194814DDF6C8B63
:100DE0007D8B8E8B9F8B81E0DF91CF911F910F9137
:100DF00008950C944A180C944A184F925F926F927F
:100E00007F929F92AF92BF92CF92DF92EF92FF922A
:100E10000F931F93CF93DF93EC01942E26DD9B8AD3
:100E20008AE692E09D8B8C8BD88FCF8BE98EFA8EE1
:100E30000B8F1C8F88E792E09E8F8D8FD9A3C8A35C
:100E4000AAA2BBA2CCA2DDA2DF91CF911F910F91EC
:100E5000FF90EF90DF90CF90BF90AF909F907F90EA
:100E60006F905F904F90089567E320CDCF93DF930D
:100E7000EB01FC0183898C3089F038F48B30C1F4AC
:100E80004BE050E069E472E017C0853161F08631D3
:100E900079F44BE050E06BE572E00EC04BE050E0BF
:100EA0006FE472E009C04BE050E065E572E004C019
:100EB0004BE050E061E672E0CE010E943D1F1B86D0
:100EC000DF91CF910895FB01DC0153968C918C301A
:100ED00041F038F48B3029F480E492E4AFE0B0E0E4
:100EE00004C080E894E8AEE1B0E084A395A3A6A393
:100EF000B7A308950F931F93CF93DF938C01EB015A
:100F000088E2DB011D928A95E9F7F80183819481DB
:100F1000ADDF81E090E0A0E0B0E08C879D87AE87F8
:100F2000BF87F80185819681A781B085888B998BD1
:100F3000AA8BBB8B8DE090E0A0E0B0E08C8B9D8B0A
:100F4000AE8BBF8BBE0183819481BDDFD801139628
:100F5000ED91FC91149783898C30F1F0A0F48B30E3
:100F600009F048C080E090E0A8E4B2E4888F998F4F
:100F7000AA8FBB8F1C8E1D8E1E8E1F8E80E090E070
:100F8000A0E0B0E432C08531E1F0863199F580E02F
:100F900090E0AAEFB2E419C080E090E0A0E7B2E4EC
:100FA000888F998FAA8FBB8F80E090E0A0EAB1EC88
:100FB0008C8F9D8FAE8FBF8F80E090E0A0E0BFE36D
:100FC00014C080E090E0A0EAB2E4888F998FAA8FE5
:100FD000BB8F80E090E0A0E2B2EC8C8F9D8FAE8F53
:100FE000BF8F8DEC9CECACECBDE388A399A3AAA3C6
:100FF000BBA30CC0188E198E1A8E1B8E1C8E1D8ED4
:101000001E8E1F8E18A219A21AA21BA2DF91CF91C9
:101010001F910F9108950F931F93CF93DF938C012E
:10102000EB0188E2DB011D928A95E9F7F8018381E3
:1010300094811CDF81E090E0A0E0B0E08C879D8788
:10104000AE87BF87F80185819681A781B085888B9F
:10105000998BAA8BBB8B8CE090E0A0E0B0E08C8BEE
:101060009D8BAE8BBF8BBE01838194812CDFD80119
:101070001396ED91FC91149783898C3069F038F4C4
:101080008B30A1F580E090E0A0EAB2E409C08531A0
:10109000C1F08631B1F02AC080E090E0AEEBB2E45E
:1010A000888F998FAA8FBB8F80E090E0A0EAB1E48F
:1010B0008C8F9D8FAE8FBF8F80E090E0A0EAB0E470
:1010C00010C080E090E0A8ECB2E4888F998FAA8FDE
:1010D000BB8F1C8E1D8E1E8E1F8E8DEC9CECACEC7F
:1010E000BDE388A399A3AAA3BBA30CC0188E198E35
:1010F0001A8E1B8E1C8E1D8E1E8E1F8E18A219A27C
:101100001AA21BA2DF91CF911F910F9108952091F8
:101110009203222399F04FB7F89420919203213043
:1011200059F42DB3209390033DB320919103209562
:1011300023232DBB4FBF02C0409390038CBD9DBDA8
:1011400008958EBD00000DB407FEFDCF8EB5089545
:1011500080919203882361F09FB7F89420919203C5
:1011600080919003213019F48DBB9FBF08958FBFEC
:1011700008957F928F929F92AF92BF92CF92DF920B
:10118000EF92FF920F931F93CF93DF935C01142F85
:1011900079016E77D62FD06883E590E0B8DF60E004
:1011A000F50184850E94A91A11508D2FCADF6701AD
:1011B000712C88248394912C711620F5711019C01C
:1011C0000023B9F0802FC0E0883048F49401082E45
:1011D00001C0220F0A94EAF7C22B8F5FF5CF8D2F43
:1011E000B0DF2C2F2095F701908192238C23892B3F
:1011F00003C08D2FA6DFF60180837394FFEFCF1A13
:10120000DF0ADACFE701C10FD11D80E09ADF8883C2
:1012100061E0F50184850E94A91ADF91CF911F91A9
:101220000F91FF90EF90DF90CF90BF90AF909F9085
:101230008F907F908DCFFC016487458708950F9331
:101240001F93CF93DF93EC01062F142F83E590E0DB
:101250005EDF60E08C850E94A91A802F8E7771DF97
:10126000812F6FDF61E08C850E94A91ADF91CF91F9
:101270001F910F916DCFDF92EF92FF920F931F930B
:10128000CF93DF938C01C62FF42ED22EE32E83E56D
:1012900090E03DDF60E0F80184850E94A91A8C2F60
:1012A0008E774FDFCD2DDE2DCE018F0D911D7C0170
:1012B000EC16FD0619F0899144DFFACF61E0F801E0
:1012C00084850E94A91ADF91CF911F910F91FF9001
:1012D000EF90DF903DCF0F931F93CF938C01C62FDC
:1012E00083E590E014DF60E0F80184850E94A91A8C
:1012F0008C2F8E77806825DF80E023DFC82F61E0A8
:10130000F80184850E94A91A23DF8C2FCF911F91A9
:101310000F9108950F9341112CDF0F9108950F93B2
:101320001F93CF93DF938C01D62FC42FD4DF482F88
:101330004C2B6D2FC801DF91CF911F910F917FCF63
:101340000F931F93CF93DF938C01D62FC42FC3DF4E
:10135000C0954C2F48236D2FC801DF91CF911F916D
:101360000F916DCFCF92DF92EF92FF920F931F9369
:10137000CF93DF93EC016B01142F790140E062E021
:101380005EDF44E06AE0CE015ADF40E864E1CE016E
:10139000C6DF9601412F62E1CE016DDF43E062E0DE
:1013A000CE014DDF08E813E16AE0CE0194DF82FD53
:1013B00005C001501109C1F783E00FC040E062E0B1
:1013C000CE013DDF64E4CE0186DFF701808362E475
:1013D000CE0181DFF701818380E0DF91CF911F9102
:1013E0000F91FF90EF90DF90CF900895CF93DF9310
:1013F000EC014FE062E023DF62E370E080E090E028
:101400000E94721962E0CE0166DF84FDFBCFDF919E
:10141000CF910895CF93DF93EC0168E25CDF982FC2
:101420009370933039F0482F436068E2CE01DF912A
:10143000CF9105CFDF91CF910895CF93DF93EC014A
:1014400061E08C850E946D1A61E08C850E94A91A6A
:1014500061E08D850E946D1A8D850E94D71A892BB7
:1014600059F461E08D850E94A91A62E370E080E082
:1014700090E00E94721902C0CE01B8DF40E864E536
:10148000CE01DDDE49EA66E5CE01D9DE43E068E55E
:10149000CE01D5DE48EE6AE5CE01D1DE40E46AE257
:1014A000CE01CDDE4DE362E2CE01C9DECE01DF9199
:1014B000CF91B0CF2F923F924F925F926F927F92D7
:1014C0008F929F92AF92BF92CF92DF92EF92FF9254
:1014D0000F931F93CF93DF931F921F92CDB7DEB769
:1014E0003C01962E342E2901A114B10419F0F50106
:1014F000408101C040E0242EF0E18F9E200C112499
:1015000040E062E0C3019BDE4FE768E0C30197DE85
:1015100040E864E1C30103DF9201402F62E1C301AF
:10152000AADE422D6AE1C3018ADE492D62E0C301D1
:1015300086DE8CE0981204C040E86AE1C301EFDE69
:1015400080ED482E87E0582E68E0C301C4DE982F56
:10155000932139F480FD5BC0E1E04E1A5108A1F7F8
:1015600056C06CE0C301B7DE982E837109F051C0FC
:10157000E114F104E1F0C114D104C9F064E1C30144
:10158000AADEF6019081981708F445C08083082DE3
:101590009701482F62E1C301BDDE68E1C3019BDE14
:1015A000182F1770A114B10411F0F501108393FCEA
:1015B00034C0E114F10499F1C114D10481F1888D92
:1015C000882369F1F6014081413021F4143049F556
:1015D0008FEF28C0423028F1111123C042509E01E4
:1015E0002F5F3F4FB701C301BDDE81111BC0F60164
:1015F0008081E80EF11CF701329790818981981360
:1016000010C0319690818A8198130BC008C083E086
:1016100009C081E007C084E005C082E003C080E02B
:1016200001C087E00F900F90DF91CF911F910F9134
:10163000FF90EF90DF90CF90BF90AF909F908F90F2
:101640007F906F905F904F903F902F9008958F9272
:10165000AF92BF92CF92DF92EF92FF920F931F93C0
:10166000AF928C2C570168017901042F9B0140E354
:101670006CE020DF0F901F910F91FF90EF90DF90B3
:10168000CF90BF90AF908F9008954F925F926F92DE
:101690007F928F929F92AF92CF92EF92FF920F9391
:1016A0001F93CF93DF931F921F92CDB7DEB76A834C
:1016B0004115510529F1F9016081623008F14901B4
:1016C0002A013C0140E86CE13BDE87E08983A12CE4
:1016D000C12CCE0101967C018401920141E0BE0142
:1016E0006E5F7F4FC301B3DF81110DC0F4018081B4
:1016F000823041F481E09981911105C080E003C0FE
:1017000084E001C081E00F900F90DF91CF911F9195
:101710000F91FF90EF90CF90AF909F908F907F9020
:101720006F905F904F9008959A01AB0166E2ADCF44
:101730002F923F924F925F926F927F928F929F92E1
:10174000AF92BF92CF92DF92EF92FF920F931F93CF
:10175000CF93DF93CDB7DEB72C970FB6F894DEBFEB
:101760000FBECDBF413508F001C1342E3B014C0105
:1017700040E86CE1E5DD2224239422E0221691F07A
:1017800033E02316E1F081E02812F4C083E9898375
:101790003320D1F081E0F3019081953008F480E0AE
:1017A000B12C17C0F5E9F983332081F081E0F30112
:1017B0009081983008F480E043E0B42E0AC087E9B5
:1017C000898336E0B32E04C0B12C02C023E0B22ED0
:1017D00080E0D32CF8E0BF9ED0181124D7FCD12C88
:1017E000882321F098E89B8333E001C032E021E0B8
:1017F0009D2D977009F420E09D2D959595959595D3
:10180000290F31F4882309F48EC028E0D20E8BC052
:10181000811102C094E001C093E0291708F4922FCF
:10182000EB2DF0E03196E60DF71D232F4191A1E05D
:10183000B0E0AC0FBD1FA20FB11D4C932F5F422F24
:10184000431B491798F3DECF8111D9C03FE13D1505
:101850000CF492C080E2D82E80E78A839B818C8131
:1018600089279D8189279E8189278F839E01285FF3
:101870003F4F47E0BE016F5F7F4FC40173DD8111B1
:10188000BEC01B8693E09A87FE0137962F01F9E0D0
:10189000FC87CB844C2D4295407F4C0D6AE1C401FE
:1018A000CEDCA12CFE013B967F018E01065F1F4F0F
:1018B00092014C85BE016F5F7F4FC401C8DE82304C
:1018C00009F0C2CF6CE1C40106DD85FD51C08F7106
:1018D00009F480E2282F30E04D2DDD0C550B421726
:1018E00053070CF047C0D82EC9010197877099277C
:1018F00025952595259531E0320F21E0811101C014
:1019000020E0230FE1E0F0E0EC0FFD1FE20FF11DFE
:1019100021E030E002C0220F331F8A95E2F7C901AF
:101920009081892B80833FE13D150CF495CF9D2D4F
:1019300097709B878D2D8595859585958E5F292F31
:1019400030E1839F200D11242A8321E0911101C0F1
:1019500020E0280F2C8744244394512C4C0E5D1E0C
:10196000480E511C99E0981B9A8793CF86E047C098
:1019700082E045C085E043C08B818838E9F182E090
:1019800094E0EB2DF0E03196E60DF71D980FA1E005
:10199000B0E0AC0FBD1FA80FB11D2C9121938F5F3C
:1019A0009813F5CF8A85833019F58B85811120C076
:1019B0009E012D5F3F4F41E0B201C401D3DC811194
:1019C0001EC09B81F2018181981314C09C81828189
:1019D000981310C0808182FF02C02394CECEF30101
:1019E0008387822D880F820D8F5F808380E007C000
:1019F00081E005C087E003C083E093E0C2CF2C966E
:101A00000FB6F894DEBF0FBECDBFDF91CF911F910F
:101A10000F91FF90EF90DF90CF90BF90AF909F908D
:101A20008F907F906F905F904F903F902F90089590
:101A3000CF93DF9300D0CDB7DEB722E02B83AE018A
:101A40004D5F5F4FBE016F5F7F4F6EDE982F81E06D
:101A5000992319F0923009F080E00F900F900F90C9
:101A6000DF91CF91089540E0BC0162DE91E08111E9
:101A700090E0892F0895CF92DF92EF92FF920F931B
:101A80001F93CF93DF937B016A01082F10E0E801D9
:101A9000C450DD4F888187FF04C0FB011182108292
:101AA00024C08CE0809F9001819F300D112488819B
:101AB000A901480F511D87FD5A958091FB0290E0C6
:101AC0004817590794F48881A901480F511D87FDD3
:101AD0005A95CA01FA01EE0FFF1F8E0F9F1FFC01DE
:101AE000E050FD4F808186FD19C088818F5F88831B
:101AF0008CE0809F9001819F300D11248881A90185
:101B0000480F511D87FD5A958091FB0290E04817C0
:101B10005907BCF488818C3044F113C08881280FA8
:101B2000311D87FD3A95F901EE0FFF1F2E0F3F1F64
:101B3000F901E050FD4F808160E08F730E94A91A87
:101B4000D4CFF70180819181049680349C4918F4A8
:101B500080E49CE904C0F701808191810496F6013C
:101B6000918380838FEF888345C0F7014081518145
:101B70008881B901680F711D87FD7A95CB01FB0142
:101B8000EE0FFF1F8E0F9F1FFC01E050FD4F818164
:101B90009281840F951FF601918380838881A9012A
:101BA000480F511D87FD5A95CA01FA01EE0FFF1F1C
:101BB0008E0F9F1FFC01E050FD4F808186FF1AC0F1
:101BC0008881280F311D87FD3A95F901EE0FFF1F1F
:101BD0002E0F3F1FF901E050FD4F808161E08F73B0
:101BE000DF91CF911F910F91FF90EF90DF90CF90F9
:101BF0000C94A91ADF91CF911F910F91FF90EF9054
:101C0000DF90CF9008951F920F920FB60F9211247C
:101C10000BB60F922F933F934F935F936F937F93E6
:101C20008F939F93AF93BF93EF93FF9348E850E058
:101C300064E870E081E01FDFFF91EF91BF91AF9109
:101C40009F918F917F916F915F914F913F912F91D4
:101C50000F900BBE0F900FBE0F901F9018951F9204
:101C60000F920FB60F9211240BB60F922F933F9342
:101C70004F935F936F937F938F939F93AF93BF9394
:101C8000EF93FF9348E950E064E970E082E0F3DE0F
:101C9000FF91EF91BF91AF919F918F917F916F9144
:101CA0005F914F913F912F910F900BBE0F900FBE00
:101CB0000F901F9018951F920F920FB60F9211243C
:101CC0000BB60F922F933F934F935F936F937F9336
:101CD0008F939F93AF93BF93EF93FF9348EA50E0A6
:101CE00064EA70E083E0C7DEFF91EF91BF91AF91AE
:101CF0009F918F917F916F915F914F913F912F9124
:101D00000F900BBE0F900FBE0F901F9018951F9253
:101D10000F920FB60F9211240BB60F922F933F9391
:101D20004F935F936F937F938F939F93AF93BF93E3
:101D3000EF93FF9348E251E064E271E080E09BDEC4
:101D4000FF91EF91BF91AF919F918F917F916F9193
:101D50005F914F913F912F910F900BBE0F900FBE4F
:101D60000F901F901895FC019091FB029033A0F406
:101D700081E0890F8093FB029083892F90E0FC0122
:101D8000EE0FFF1F8E0F9F1FFC01E050FD4F88EBF1
:101D90009BE09283818308958FEF80830895DF9283
:101DA000EF92FF920F931F93CF93DF93EC01D62E08
:101DB0007A0189018881803308F068C061E08D2D47
:101DC0000E946D1A8881E82FF0E09F01220F331FD7
:101DD000E20FF31FE050FD4F9D2D9F732081207C6B
:101DE000D22ED92AD08220E232E02E193F0937FFC5
:101DF00002C02D5F3F4F359527953595279529834F
:101E000020E639E0201B310B37FF02C02D5F3F4F2A
:101E100035952795359527952A832CE0622F0E94CA
:101E2000B01C289FB001112440E050E09B01240F1A
:101E3000351FF901EE0FFF1F2E0F3F1FF901E05074
:101E4000FD4F908196FD16C04F5F5F4F4C3051059E
:101E500069F7813021F51092800082E08093810043
:101E60001092850010928400B19A80916F00826078
:101E700080936F00E881F0E0CF01880F991FE80F91
:101E8000F91FE050FD4F8081806480838881DF915D
:101E9000CF911F910F91FF90EF90DF9008958230C6
:101EA00061F410929000809391001092950010922E
:101EB000940088BB80937100DDCF833069F4109269
:101EC000A00082E08093A1001092A5001092A400CF
:101ED00089BB80937200CECF8111CCCF10922001AC
:101EE00082E08093210110922501109224018ABB87
:101EF00080937300BFCF20E639E040E252E04FCF3D
:101F0000FC019081903388F5818128E830E0281B1E
:101F1000310987FD3395220F331F220F331F6217BC
:101F2000730784F0828148E552E0481B510987FD20
:101F30005395440F551F440F551F9B0146175707D4
:101F40000CF49A0122503109220F331F4FB7F89435
:101F5000892F90E0FC01EE0FFF1F8E0F9F1FFC01E9
:101F6000E050FD4F328321834FBF0895AF92BF925F
:101F7000CF92DF92EF92FF920F931F93CF93DF9355
:101F8000EC01603282E078070CF03FC077FD06C0BC
:101F9000653B71052CF064EB70E002C060E070E01E
:101FA000898128E830E05901A81AB10887FDB39467
:101FB000AA0CBB1CAA0CBB1C0B2C000CCC08DD080B
:101FC000072E000C880B990B2A8108E512E0021BF2
:101FD000110927FD1395000F111F000F111F012E6E
:101FE000000C220B330B3F932F931F930F9314EB93
:101FF000E12EF12C00E010E020E030E0A9010E9489
:10200000FF1A0F900F900F900F90CE01DF91CF919C
:102010001F910F91FF90EF90DF90CF90BF90AF9006
:102020006FCFFC0180818F3FB9F090E0FC01EE0F93
:10203000FF1F8E0F9F1FFC01E050FD4F8181928199
:1020400033E0880F991F3A95E1F744E0969587951C
:102050004A95E1F70296089580E090E008954F9246
:102060005F926F927F92AF92BF92CF92DF92EF9288
:10207000FF920F931F93CF93DF9300D01F92CDB7A2
:10208000DEB7FC01428128E532E0241B310947FD1F
:102090003395220F331F220F331FA901330F660B15
:1020A000770B49835A836B837C83218148E850E016
:1020B0002A01421A510827FD5394440C551C440C24
:1020C000551C052C000C66087708ABDF0196BC0197
:1020D000990F880B990B1F921F921F9224EB2F933D
:1020E000A12CB12C6501E980FA800B811C81A30130
:1020F00092010E94FF1A0F900F900F900F90CB014A
:102100000F900F900F900F90DF91CF911F910F9133
:10211000FF90EF90DF90CF90BF90AF907F906F9047
:102120005F904F900895CF93CFB7F8948091930329
:10213000811127C0E9ECF1E08491E3E8F1E09491AA
:10214000E82FF0E0EE0FFF1FE25FFD4FA591B49185
:10215000EC91E92321F461E085E30E94A91A61E092
:1021600085E30E946D1A8CB580618CBD8CB580644E
:102170008CBD61E084E30E946D1A61E083E30E94FC
:102180006D1A809193038F5F80939303CFBFCF919C
:1021900008951092070481E08093050410920404CE
:1021A00061E084E10E94A91A61E085E10E94A91A18
:1021B000E9EBF0E080818E7F808380818D7F80835A
:1021C00088E48093B80085E48093BC000895ECEB2C
:1021D000F0E080818A7B808360E084E10E94A91A1C
:1021E00060E085E10C94A91A4091B603262F30E0F7
:1021F000240F311D21323105DCF4209107042430F5
:10220000C9F4FC0180E090E0861758F43091B603E1
:102210002191DC01A854BC4FA30FB11D2C93019652
:10222000F3CF8091B603680F6093B60380E0089502
:1022300081E0089582E008959093FB038093FA0370
:1022400008959093FD038093FC03089585EC80939B
:10225000BC00109207040895CF93DF9391E0909310
:10226000FF03882351F0C091B800D091BA00AFDFCE
:1022700090DFD093BA00C093B800DF91CF9108955A
:102280004F925F926F927F928F929F92AF92BF9286
:10229000CF92DF92EF92FF920F931F93CF93DF9332
:1022A000413208F0BFC0122FF42ED72EE62ED82FC1
:1022B000F4D74B015C01C0910704CC2309F1809154
:1022C000000490910104A0910204B0910304892BB1
:1022D0008A2B8B2B81F3E1D74090000450900104AE
:1022E0006090020470900304DC01CB018819990905
:1022F000AA09BB09481659066A067B06E0F67FC0A4
:1023000082E080930704009305048FEF8093940389
:102310001092D903F092D8039E2DAAEDB3E0EE2DD2
:10232000FD2D8E2F891B8F1518F481918D93F9CF78
:102330001092060490910604DD0FD92BD093060469
:1023400080910404813079F510920404A6D76B01C2
:102350007C01809106048093BB00809100049091E1
:102360000104A0910204B0910304892B8A2B8B2BCA
:10237000A1F093D78090000490900104A0900204F3
:10238000B0900304DC01CB018C199D09AE09BF0993
:1023900088169906AA06BB0690F18091BC0083FDC1
:1023A000D8CF85EC01C085EE8093BC0076D76B0159
:1023B0007C01112349F180910704823029F5809135
:1023C000000490910104A0910204B0910304892BB0
:1023D0008A2B8B2B71F361D78090000490900104BD
:1023E000A0900204B0900304DC01CB018C199D097C
:1023F000AE09BF0988169906AA06BB06D0F68091D9
:10240000FE032ADFC5E013C0809194038F3F79F06B
:1024100080919403803241F080919403803331F0B5
:10242000C4E005C0C1E003C0C2E001C0C3E08C2F1E
:10243000DF91CF911F910F91FF90EF90DF90CF90A0
:10244000BF90AF909F908F907F906F905F904F90D4
:10245000089585ED8093BC00809100049091010463
:10246000A0910204B09103040796A11DB11D23E0C1
:10247000B695A795979587952A95D1F72091BC0099
:1024800024FF1BC04091000450910104609102049C
:1024900070910304452B462B472B81F30097A10530
:1024A000B10541F025E32A95F1F700000197A10954
:1024B000B109E4CF8091FE03CFCE109207040895B6
:1024C0001F920F920FB60F9211240BB60F922F93FB
:1024D0003F934F935F936F937F938F939F93AF93AC
:1024E000BF93EF93FF938091B900887F803609F402
:1024F0009DC070F5883209F45CC090F4803109F415
:1025000055C038F4882309F4F3C0883009F44EC06C
:10251000F2C0883109F44DC0803209F45EC0EBC0CE
:10252000803409F469C050F4803309F456C088330C
:1025300009F0E1C08093940389DEDDC0803509F4A1
:102540004FC0883509F45DC0883409F0D4C0D2C0CA
:10255000883909F4C3C0A8F4883709F467C038F48F
:10256000883609F463C0803709F460C0C4C0883875
:1025700009F4B4C0803909F45FC0803809F0BBC0E9
:102580005BC0803B09F482C038F4803A09F466C02D
:10259000883A09F47BC0AFC0803C09F4A3C0883CF2
:1025A00009F4A0C0883B09F486C0A5C08091060448
:1025B00010C09091D9038091D803981770F5E091DD
:1025C000D90381E08E0F8093D903F0E0E652FC4FEF
:1025D00080818093BB0085EC82C0809394038AC085
:1025E000E091D90381E08E0F8093D9038091BB00E5
:1025F000F0E0E652FC4F80839091D9038091D8039C
:102600006AC0E091D90381E08E0F8093D903809155
:10261000BB00F0E0E652FC4F8083809105048111FD
:1026200069C081E08093040484EA5DC083E0809304
:10263000070410929503CFCF80919503803208F064
:102640004DC0E091950381E08E0F809395038091BA
:10265000BB00F0E0EA56FC4F8083BDCFF7DD8091F0
:102660009503803230F4E0919503F0E0EA56FC4F98
:1026700010826091950370E0E091FA03F091FB0302
:1026800086E993E019951092950335C084E0809314
:1026900007041092B7031092B603E091FC03F09187
:1026A000FD0319958091B603811105C081E08093E7
:1026B000B6031092B803E091B70381E08E0F8093C8
:1026C000B703F0E0E854FC4F80818093BB00909109
:1026D000B7038091B603981708F47DCF85E88093FF
:1026E000BC0009C085EC8093BC001092070403C0B5
:1026F00010929403AEDEFF91EF91BF91AF919F9145
:102700008F917F916F915F914F913F912F910F909A
:102710000BBE0F900FBE0F901F90189580E090E0B9
:10272000089580913C0490E020913D04821B910922
:10273000089590913D0480913C04981750F4E92F3E
:10274000F0E0E25CFB4F208130E09F5F90933D041E
:1027500002C02FEF3FEFC9010895E0913D04809141
:102760003C04E81730F4F0E0E25CFB4F808190E03D
:1027700008958FEF9FEF08950895CF93DF93EC01B5
:10278000E0911404F09115043097F1F090913D041C
:1027900080913C049817C0F090E0292F30E0261774
:1027A000370754F4DE01A20FB31F4C91D901A25C8C
:1027B000BB4F4C939F5FF1CF10923D0460933C045C
:1027C000CB01DF91CF911994DF91CF910895E091E2
:1027D0001604F0911704309729F010921A04109201
:1027E000190419940895CF92DF92EF92FF920F93FC
:1027F0001F93CF93DF937C01CB018A0120911804B2
:10280000222389F0EB016B01C40ED51ECC15DD052A
:1028100061F06991D701ED91FC910190F081E02D7B
:10282000C7011995F3CF642FDFDCC801DF91CF9189
:102830001F910F91FF90EF90DF90CF900895CF936D
:10284000DF931F92CDB7DEB769832091180422234E
:10285000D1F020911904203240F021E030E0FC0159
:102860003383228380E090E014C080911A04E82F23
:10287000F0E0E55EFB4F998190838F5F80931A04AF
:102880008093190404C061E0CE010196ADDC81E0C3
:1028900090E00F90DF91CF910895FC011382128296
:1028A00088EE93E0A0E0B0E084839583A683B783AD
:1028B00086E892E091838083089510923D041092FF
:1028C0003C0410921A041092190463DC87EE93E121
:1028D000B8DC8DEB93E1B0CC81E080931804609379
:1028E0003B0410921A04109219040895F5CF0F9327
:1028F000062F21E0409119046BE174E080913B04C4
:10290000BFDC10921A0410921904109218040F914F
:10291000089561E0ECCF88E094E0BFCF5058BB272A
:10292000AA270ED009C1FAD030F0FFD020F031F440
:102930009F3F11F41EF4EFC00EF4E095E7FBE5C0F5
:10294000E92F0BD180F3BA17620773078407950745
:1029500018F071F49EF523C10EF4E0950B2EBA2FFA
:10296000A02D0B01B90190010C01CA01A001112495
:10297000FF27591B99F0593F50F4503E68F11A1641
:10298000F040A22F232F342F4427585FF3CF4695D2
:1029900037952795A795F0405395C9F77EF41F16F4
:1029A000BA0B620B730B840BBAF09150A1F0FF0FBE
:1029B000BB1F661F771F881FC2F70EC0BA0F621FAA
:1029C000731F841F48F4879577956795B795F7959A
:1029D0009E3F08F0B3CF9395880F08F09927EE0F2C
:1029E00097958795089504D06894B111D9C008953A
:1029F000BCD088F09F5790F0B92F9927B751A0F01D
:102A0000D1F0660F771F881F991F1AF0BA95C9F782
:102A100012C0B13081F0C3D0B1E00895C0C0672FBB
:102A2000782F8827B85F39F0B93FCCF38695779532
:102A30006795B395D9F73EF490958095709561951B
:102A40007F4F8F4F9F4F0895E89409C097FB3EF446
:102A500090958095709561957F4F8F4F9F4F9923EB
:102A6000A9F0F92F96E9BB279395F6958795779569
:102A70006795B795F111F8CFFAF4BB0F11F460FF29
:102A80001BC06F5F7F4F8F4F9F4F16C0882311F081
:102A900096E911C0772321F09EE8872F762F05C095
:102AA000662371F096E8862F70E060E02AF09A9530
:102AB000660F771F881FDAF7880F9695879597F925
:102AC0000895990F0008550FAA0BE0E8FEEF1616BF
:102AD0001706E807F907C0F012161306E407F50712
:102AE00098F0621B730B840B950B39F40A2661F086
:102AF000232B242B252B21F408950A2609F4A14029
:102B0000A6958FEF811D811D089597F99F6780E835
:102B100070E060E008959FEF80EC089500240A942F
:102B20001616170618060906089500240A941216A8
:102B30001306140605060895092E0394000C11F4DB
:102B4000882352F0BB0F40F4BF2B11F460FF04C088
:102B50006F5F7F4F8F4F9F4F089557FD9058440FE1
:102B6000551F59F05F3F71F04795880F97FB991FEC
:102B700061F09F3F79F087950895121613061406A9
:102B8000551FF2CF4695F1DF08C016161706180636
:102B9000991FF1CF86957105610508940895E89411
:102BA000BB2766277727CB0197F908950BD0C4CFB1
:102BB000B5DF28F0BADF18F0952309F0A6CFABCF28
:102BC0001124EECFCADFA0F3959FD1F3950F50E00B
:102BD000551F629FF001729FBB27F00DB11D639FCF
:102BE000AA27F00DB11DAA1F649F6627B00DA11D75
:102BF000661F829F2227B00DA11D621F739FB00D1B
:102C0000A11D621F839FA00D611D221F749F33278A
:102C1000A00D611D231F849F600D211D822F762F23
:102C20006A2F11249F5750408AF0E1F088234AF020
:102C3000EE0FFF1FBB1F661F771F881F915050406C
:102C4000A9F79E3F510570F060CFAACF5F3FECF32C
:102C5000983EDCF3869577956795B795F795E79558
:102C60009F5FC1F7FE2B880F911D9695879597F969
:102C7000089527DF880B990B0895FC01918D228D13
:102C8000892F90E0805C9F4F821B91098F73992759
:102C90000895FC01918D828D981731F0828DE80F97
:102CA000F11D858D90E008958FEF9FEF0895FC0151
:102CB000918D828D981761F0828DDF01A80FB11D73
:102CC0005D968C91928D9F5F9F73928F90E0089597
:102CD0008FEF9FEF0895FC01538D448D252F30E039
:102CE000842F90E0821B930B541710F0CF96089519
:102CF0000197089587E098E1892B39F080E090E012
:102D0000892B19F084D1811125C080E090E0892BB6
:102D100041F080E090E0892B21F00E9400008111B9
:102D20001CC080E090E0892B41F080E090E0892B8E
:102D300021F00E940000811113C080E090E0892BF7
:102D4000A1F080E090E0892B81F00E9400008111C9
:102D50000AC008950E940000D8CF0E940000E1CF71
:102D60000E940000EACF0C9400000895FC01848DBD
:102D7000DF01A80FB11DA35ABF4F2C91848D90E0A5
:102D800001968F739927848FA689B7892C93A08980
:102D9000B1898C91837080648C93938D848D98130A
:102DA00006C00288F389E02D80818F7D808308959D
:102DB000EF92FF920F931F93CF93DF93EC0181E08B
:102DC000888F9B8D8C8D981305C0E889F989808147
:102DD00085FD25C0F62E0B8D10E00F5F1F4F0F7382
:102DE0001127E02E8C8DE8120BC00FB607FCFACF2E
:102DF000E889F989808185FFF5CFCE01B7DFF2CF71
:102E00008B8DFE01E80FF11DE35AFF4FF0829FB753
:102E1000F8940B8FEA89FB89808180620AC09FB792
:102E2000F894EE89FF896083E889F989808183704D
:102E3000806480839FBF81E090E0DF91CF911F91FC
:102E40000F91FF90EF900895CF93DF93EC01888D61
:102E50008823C1F0EA89FB89808185FD05C0A889A6
:102E6000B9898C9186FD0EC00FB607FCF5CF808125
:102E700085FFF2CFA889B9898C9185FFEDCFCE016E
:102E800075DFE8CFDF91CF910895CF92DF92EF9277
:102E9000FF921F93CF93DF93EC016A017B01122F06
:102EA000E889F98982E080834115514E61057105F9
:102EB000A9F060E079E08DE390E0A70196015CD590
:102EC000DA01C9010197A109B109B695A7959795AE
:102ED00087959C01211580E13807A0F0E889F989E0
:102EE000108260E874E88EE190E0A701960144D575
:102EF000DA01C9010197A109B109B695A79597957E
:102F000087959C01EC85FD853083EE85FF852083C8
:102F1000188EEC89FD891083EA89FB8980818061A4
:102F20008083EA89FB89808188608083EA89FB89C4
:102F3000808180688083EA89FB8980818F7D80839E
:102F4000DF91CF911F91FF90EF90DF90CF90089588
:102F50001F920F920FB60F9211240BB60F922F9360
:102F60008F939F93EF93FF93E0916E04F0916F0422
:102F70008081E0917404F091750482FD12C090810B
:102F8000809177048F5F8F7320917804821751F0BE
:102F9000E0917704F0E0E25AFB4F958F809377043D
:102FA00001C08081FF91EF919F918F912F910F90A0
:102FB0000BBE0F900FBE0F901F9018951F920F928F
:102FC0000FB60F9211240BB60F922F933F934F938E
:102FD0005F936F937F938F939F93AF93BF93EF9381
:102FE000FF938EE594E0C2DEFF91EF91BF91AF9128
:102FF0009F918F917F916F915F914F913F912F9111
:103000000F900BBE0F900FBE0F901F9018958EE57E
:1030100094E033DE21E0892B09F420E0822F08952B
:10302000EEE5F4E01382128288EE93E0A0E0B0E0D7
:1030300084839583A683B78388E992E09183808314
:1030400085EC90E09587848784EC90E0978786876D
:1030500080EC90E0918B808B81EC90E0938B828B65
:1030600082EC90E0958B848B86EC90E0978B868B3E
:10307000118E128E138E148E0895089577D1FDDF70
:103080000E944A01CAE7D6E10E9456032097E1F365
:1030900031DEFACF68C5CF92DF92EF92FF920F93A5
:1030A0001F93CF93DF936C017A018B01C0E0D0E0D6
:1030B000CE15DF0581F0D8016D918D01D601ED911E
:1030C000FC910190F081E02DC6011995892B11F03A
:1030D0002196EECF7E01C701DF91CF911F910F9115
:1030E000FF90EF90DF90CF9008956115710579F012
:1030F000FB0101900020E9F73197AF01461B570B08
:10310000DC01ED91FC910280F381E02D199480E0C7
:1031100090E00895EACF66EA72E0E7CF0F931F933D
:10312000CF93DF93EC01E1DF8C01CE01F4DF800F60
:10313000911FDF91CF911F910F9108958F929F92D0
:10314000AF92BF92EF92FF920F931F93CF93DF93B3
:10315000CDB7DEB7A1970FB6F894DEBF0FBECDBFD7
:103160007C01FA01CB0119A2223008F42AE08E0179
:103170000F5D1F4F822E912CA12CB12CBF01A501F8
:103180009401FAD3F901CA01015011096A3010F40F
:10319000605D01C0695CD8016C93232B242B252B27
:1031A00069F7B801C701A1DFA1960FB6F894DEBF99
:1031B0000FBECDBFDF91CF911F910F91FF90EF9088
:1031C000BF90AF909F908F9008952115310541F4E5
:1031D000DC01ED91FC910190F081E02D642F1994B8
:1031E000ADCF9A01462F50E060E070E0EECF1F9225
:1031F0000F920FB60F9211242F933F938F939F93AB
:10320000AF93BF938091FC049091FD04A091FE04C4
:10321000B091FF043091FB0423E0230F2D3720F4FD
:103220000196A11DB11D05C026E8230F0296A11D20
:10323000B11D2093FB048093FC049093FD04A093A4
:10324000FE04B093FF048091000590910105A091C8
:103250000205B09103050196A11DB11D80930005E3
:1032600090930105A0930205B0930305BF91AF9120
:103270009F918F913F912F910F900FBE0F901F90B4
:1032800018952FB7F8946091FC047091FD0480911B
:10329000FE049091FF042FBF08953FB7F8948091EA
:1032A000000590910105A0910205B091030526B596
:1032B000A89B05C02F3F19F00196A11DB11D3FBF6E
:1032C000BA2FA92F982F8827820F911DA11DB11DFC
:1032D000BC01CD0142E0660F771F881F991F4A95F8
:1032E000D1F708958F929F92AF92BF92CF92DF92C3
:1032F000EF92FF926B017C01D0DF4B015C01C114A6
:10330000D104E104F104F1F01BD3C7DFDC01CB01F0
:1033100088199909AA09BB09883E9340A105B105FE
:1033200070F321E0C21AD108E108F10888EE880E96
:1033300083E0981EA11CB11CC114D104E104F10466
:1033400021F7DDCFFF90EF90DF90CF90BF90AF904F
:103350009F908F9008958230910538F0880F991FC3
:10336000880F991F05970197F1F70895789484B510
:10337000826084BD84B5816084BD85B5826085BD71
:1033800085B5816085BDEEE6F0E080818160808357
:10339000E1E8F0E01082808182608083808181603A
:1033A0008083E0E8F0E0808181608083E1EBF0E001
:1033B000808184608083E0EBF0E0808181608083A5
:1033C000E1E9F0E080818260808380818160808398
:1033D000E0E9F0E0808181608083E1EAF0E08081D3
:1033E00082608083808181608083E0EAF0E0808178
:1033F00081608083E1E2F1E080818260808380816E
:1034000081608083E0E2F1E0808181608083EAE78F
:10341000F0E080818460808380818260808380810D
:10342000816080838081806880831092C1000895CC
:1034300090E0FC013197E231F10508F04DC088279A
:10344000EE58FF4F8F4FD6C2809180008F7703C018
:10345000809180008F7D809380000895809180000E
:10346000877FF9CF84B58F7702C084B58F7D84BD07
:1034700008958091B0008F7703C08091B0008F7D58
:103480008093B0000895809190008F7707C080915D
:1034900090008F7D03C080919000877F8093900083
:1034A00008958091A0008F7707C08091A0008F7D44
:1034B00003C08091A000877F8093A0000895809131
:1034C00020018F7707C0809120018F7D03C08091FC
:1034D0002001877F809320010895CF93DF9390E0B0
:1034E000FC01E25BFE4F2491FC01EC56FE4F8491FF
:1034F000882361F190E0880F991FFC01E25FFD4F86
:10350000C591D491FC01EC50FE4FA591B49161118D
:1035100009C09FB7F8948881209582238883EC9115
:103520002E230BC0623061F49FB7F8948881322F4C
:10353000309583238883EC912E2B2C939FBF06C05C
:103540008FB7F894E8812E2B28838FBFDF91CF911E
:1035500008951F93CF93DF93282F30E0F901E85FA0
:10356000FE4F8491F901E25BFE4FD491F901EC56D4
:10357000FE4FC491CC23B9F0162F811159DFEC2FE7
:10358000F0E0EE0FFF1FEC50FE4FA591B4919FB7F6
:10359000F894111104C08C91D095D82302C0EC91FD
:1035A000DE2BDC939FBFDF91CF911F910895CF93C6
:1035B000DF93282F30E0F901E85FFE4F8491F90195
:1035C000E25BFE4FD491F901EC56FE4FC491CC233F
:1035D00089F081112DDFEC2FF0E0EE0FFF1FE65296
:1035E000FE4FA591B491EC91ED2381E090E021F4A0
:1035F00080E002C080E090E0DF91CF9108954F928B
:103600005F926F927F92AF92BF92CF92DF92EF92D2
:10361000FF920F931F93CF93DF93CDB7DEB72901AE
:103620003A019B01AC0124193509460957098A89D9
:103630009B89AC89BD89BC01CD016A197B098C09C4
:103640009D097FD1A8019701241935094609570919
:10365000B5D1CA01B9016A0D7B1D8C1D9D1DDF917D
:10366000CF911F910F91FF90EF90DF90CF90BF907F
:10367000AF907F906F905F904F900895FC01808194
:103680009181009709F06FC20895CF93DF93EC0109
:1036900088819981009709F066D2198218821D826B
:1036A0001C821B821A82DF91CF9108950F931F9382
:1036B000CF93DF93EC018B016F5F7F4F88819981FE
:1036C000DBD2009731F0998388831B830A8381E0E2
:1036D00001C080E0DF91CF911F910F910895CF93AA
:1036E000DF93EC0188819981892B29F08A819B8164
:1036F0008617970758F4CE01D9DF882341F08C81D3
:103700009D81892B19F4E881F981108281E0DF9194
:10371000CF910895EF92FF920F931F93CF93DF9372
:10372000EC017B018A01BA01DADF811103C0CE010D
:10373000ACDF06C01D830C83B7018881998196D3C5
:10374000CE01DF91CF911F910F91FF90EF900895DF
:10375000FC0111821082138212821582148261157B
:10376000710549F0FB0101900020E9F73197AF01A5
:10377000461B570BCFCF0895CF93DF93EC01611514
:10378000710551F0FB0101900020E9F73197AF017D
:10379000461B570BBFDF01C078DFCE01DF91CF9111
:1037A00008950F931F93CF93DF93CDB7DEB729977B
:1037B0000FB6F894DEBF0FBECDBF8C01862FF80187
:1037C00011821082138212821582148250E0BE018F
:1037D0006F5F7F4F90E060D3BE016F5F7F4FC80186
:1037E000CBDF29960FB6F894DEBF0FBECDBFDF91B9
:1037F000CF911F910F910895EF92FF920F931F9316
:10380000CF93DF936115710511F480E01AC0411563
:103810005105B1F07B01EC018C819D818A01080F7B
:10382000191FB801CE015BDF882379F32881398124
:103830008C819D81B701820F931F18D31D830C8348
:1038400081E0DF91CF911F910F91FF90EF9008954C
:10385000FB014481558160817181CECFFC012481BF
:103860003581232B31F421E06115710599F0FB01BD
:1038700008C0FC01808191816115710531F421E05E
:10388000FC018081882331F004C0E7D221E0892B3C
:1038900009F020E0822F0895BF92CF92DF92EF923D
:1038A000FF920F931F93CF93DF937C016B018A01EB
:1038B000E9012417350720F4812F8901C42FD82F5F
:1038C00068EA72E0C70144DFD60114968D919C919D
:1038D000159708171907C0F48C179D0708F4EC0119
:1038E000D601ED91FC911197EC0FFD1FB080108275
:1038F0006D917C91600F711FC7013EDFD601ED9184
:10390000FC91EC0FFD1FB082C701DF91CF911F9199
:103910000F91FF90EF90DF90CF90BF900895CF93DD
:10392000DF93FC01C081D181209739F08881882301
:1039300021F090E081D28993F9CFDF91CF91089562
:103940000895DB018F939F935DD0BF91AF91A29FAC
:10395000800D911DA39F900DB29F900D112408958D
:10396000991B79E004C0991F961708F0961B881FD1
:103970007A95C9F780950895A1E21A2EAA1BBB1B60
:10398000FD010DC0AA1FBB1FEE1FFF1FA217B3072B
:10399000E407F50720F0A21BB30BE40BF50B661F41
:1039A000771F881F991F1A9469F760957095809505
:1039B00090959B01AC01BD01CF010895052E97FBA9
:1039C00016F400940FD057FD05D0D6DF07FC02D0C7
:1039D00046F408C050954095309521953F4F4F4F84
:1039E0005F4F089590958095709561957F4F8F4FAB
:1039F0009F4F0895EE0FFF1F881F8BBF0790F69112
:103A0000E02D199409D0A59F900DB49F900DA49F0F
:103A1000800D911D11240895A29FB001B39FC00194
:103A2000A39F700D811D1124911DB29F700D811DEA
:103A30001124911D08950F931F93CF93DF9382302C
:103A4000910510F482E090E0E0910605F091070501
:103A500020E030E0A0E0B0E0309719F140815181E2
:103A60000281138148175907C8F08417950769F434
:103A7000109731F012960C93129713961C9327C04F
:103A8000009306051093070522C02115310519F092
:103A90004217530718F49A01BD01EF01DF01F80145
:103AA000DBCF21153105F9F0281B390B2430310506
:103AB00080F48A819B816115710521F0FB0193835C
:103AC000828304C09093070580930605FE01329619
:103AD00044C0FE01E20FF31F8193919322503109FC
:103AE000398328833AC02091040530910505232BA2
:103AF00041F4209102023091030230930505209396
:103B0000040520910002309101022115310541F494
:103B10002DB73EB74091040250910502241B350B8E
:103B2000E0910405F0910505E217F307A0F42E1BC0
:103B30003F0B2817390778F0AC014E5F5F4F241711
:103B4000350748F04E0F5F1F50930505409304055D
:103B50008193919302C0E0E0F0E0CF01DF91CF913B
:103B60001F910F910895CF93DF93009709F481C0BF
:103B7000FC01329713821282A0910605B0910705CD
:103B8000109781F420813181820F931F20910405C9
:103B9000309105052817390751F5F0930505E09395
:103BA000040567C0ED0120E030E0CE17DF0740F4E8
:103BB0004A815B819E0141155105F1F0EA01F5CF83
:103BC000D383C28340815181840F951FC817D907C1
:103BD00059F488819981840F951F0296918380837F
:103BE0008A819B81938382832115310529F4F09387
:103BF0000705E09306053DC0E901FB83EA8349918F
:103C00005991C40FD51FEC17FD0761F48081918194
:103C1000840F951F0296E90199838883828193819D
:103C20009B838A83E0E0F0E012968D919C9113973C
:103C3000009719F0FD01DC01F7CF8D919C91119750
:103C40009D012E5F3F4F820F931F209104053091FD
:103C500005052817390769F4309729F410920705EC
:103C60001092060502C013821282B0930505A0933C
:103C70000405DF91CF9108956F927F928F929F926A
:103C8000AF92BF92CF92DF92EF92FF920F931F936A
:103C9000CF93DF93009781F4CB01DF91CF911F91F8
:103CA0000F91FF90EF90DF90CF90BF90AF909F90DB
:103CB0008F907F906F90BFCEFC01E60FF71F9C01A5
:103CC00022503109E217F30708F4A5C0EC01D9012D
:103CD0000D911C91119706171707A8F005301105D3
:103CE00008F497C0C80104978617970708F491C095
:103CF00002501109061B170B019311936D937C93CE
:103D0000CF0131DF86C05B01A01AB10A4C01800EE1
:103D1000911EA0910605B0910705612C712CE12C34
:103D2000F12C109709F446C08D919C911197A8151C
:103D3000B905B1F56C0142E0C40ED11CCA14DB0414
:103D400078F14C018A189B08640142E0C40ED11C32
:103D50001296BC9012971396AC91B5E0CB16D10495
:103D600040F0B282A38391828082D9016D937C93CB
:103D700009C00E5F1F4F800F911FF901918380834F
:103D8000EB2DFA2FE114F10431F0D7011396FC93D7
:103D9000EE9312973EC0F0930705E093060539C0F5
:103DA0006816790608F43C017D0112960D90BC91CD
:103DB000A02DB7CF8091040590910505881699062E
:103DC000E1F466167706C8F4809100029091010232
:103DD000009741F48DB79EB74091040250910502BF
:103DE000841B950BE817F907B0F4F0930505E093F1
:103DF0000405F901718360830CC0CB011CDE7C01DA
:103E0000009749F0A801BE011FD0CE01ACDEC7016A
:103E100004C0CE0102C080E090E0DF91CF911F91FD
:103E20000F91FF90EF90DF90CF90BF90AF909F9059
:103E30008F907F906F9008959111089581568A51C7
:103E400008F4805285580895FB01DC0102C00190FE
:103E50000D9241505040D8F70895FB01DC018D913F
:103E6000019080190110D9F3990B0895FB01DC0131
:103E700001900D920020E1F70895FB01DC01415013
:103E8000504048F001900D920020C9F701C01D92EA
:103E900041505040E0F708954532510518F4423042
:103EA00008F004C0FB011082CB010895BB27FB0181
:103EB0005527AA27880F991FAA1FA41710F0A41B23
:103EC00083955051B9F7A05DAA3308F0A95DA1937D
:103ED000009779F7B111B1931192CB0100C0DC01C9
:103EE000FC01672F71917723E1F7329704C07C9131
:103EF0006D9370836291AE17BF07C8F30895F8946D
:023F0000FFCFF1
:103F0200000008052000090008000C0020300033E2
:103F12003020343520363620413700417574686FC1
:103F220072697A656420616363657373002041631B
:103F3200636573732064656E6965640054656D70B2
:103F42003A200048756D3A2000444854313100440B
:103F520048543132004448543231004448543232D9
:103F6200004448543F00000000008506FB0649015A
:103F720086067A07000000008406F9064901C00699
:103F82000B08000000001F14F3138E13BC139113CF
:103F92009913AD1300000000D8164B186B162417A6
:103FA2003D16571649160D0A006E616E00696E665F
:063FB200006F76660000BE
:00000001FF
