:1000000024C1000053C1000051C100004FC10000D5
:100010004DC100004BC1000049C1000047C10000B4
:1000200045C1000043C1000041C100003FC10000C4
:100030003DC100003BC1000039C1000037C10000D4
:1000400035C1000033C1000031C100002FC10000E4
:100050002DC100002BC1000029C100000C94080C28
:1000600025C100000C94B8090C94EE091FC10000D2
:100070001DC100001BC1000019C1000017C1000014
:1000800015C1000013C1000011C100000FC1000024
:100090000DC100000BC1000009C1000007C1000034
:1000A00005C1000003C1000001C10000FFC0000045
:1000B000FDC00000FBC00000F9C00000F7C0000058
:1000C000F5C00000F3C00000F1C00000EFC0000068
:1000D000EDC00000EBC00000E9C00000E7C0000078
:1000E000E5C00000430D460D350D390D3F0D7D0D6A
:1000F0004A0D4E0D540D580D5C0D620D660D6A0DC6
:100100007D0D700D740D780D2500483A2000543A8D
:1001100020004572726F722074656D706572617433
:10012000757265210000000A0B02090C0D0E08070C
:1001300003040100000000000000000000000000B7
:1001400000000000000000000000000000000000AF
:10015000001211100000000000000000000000006C
:10016000000000000000000000000001021020203C
:1001700008081020401020408002010201080402FB
:100180000101020408102040808040201008040271
:1001900001800402018040201008040201080402CA
:1001A00001010204081020408001020408102040D0
:1001B0008005050505070508080808020202020A6D
:1001C0000A080804040404010101010101010103FA
:1001D00003030303030303040707070C0C0C0C0CB5
:1001E0000C0C0C0202020206060606060606060BA8
:1001F0000B0B0B0B0B0B0B00002000230026002920
:10020000002C002F0032000001000003010601094C
:100210000100002200250028002B002E00310034B0
:100220000002010000050108010B0100002100246B
:100230000027002A002D00300033000101000004D7
:100240000107010A01006D02200A11241FBECFEF31
:10025000D1E2DEBFCDBF00E00CBF12E0A0E0B2E013
:10026000EAEEFFE100E00BBF02C007900D92A2375B
:10027000B107D9F723E0A2E7B2E001C01D92A6348E
:10028000B207E1F711E0C5E2D1E000E006C0219736
:100290000109802FFE010E94BB0EC332D10780E00E
:1002A0000807A9F70E944E0A0C94F30FA9CE0895EF
:1002B0000F931F93CF93DF93CDB7DEB7E1970FB6C0
:1002C000F894DEBF0FBECDBF26E040E855E260E007
:1002D00070E08CE992E0E9D786E792E005D406E782
:1002E00012E0F80186898BA789E392E09AA789A793
:1002F0008789908D9DA78CA7818D928DA38DB48DBC
:100300008EA79FA7A8ABB9ABBE016F5F7F4FCE0191
:10031000899630D4F801878D8BA787E492E09AA75D
:1003200089A780A191A19DA78CA782A193A1A4A137
:10033000B5A18EA79FA7A8ABB9ABBE016F5F7F4FDA
:10034000CE018996A8D46DA17EA18FA198A528EE93
:1003500033E040E050E00E949F0E20937202309301
:1003600073024093740250937502E1960FB6F894AD
:10037000DEBF0FBECDBFDF91CF911F910F910895CA
:10038000CF93DF93CDB7DEB7AD970FB6F894DEBF4E
:100390000FBECDBF609172027091730280917402A2
:1003A000909175020E94830C80918C028FA389E347
:1003B00092E09EA38DA380918D0290918E0299A7C9
:1003C00088A780918F0290919002A0919102B091A4
:1003D00092028AA79BA7ACA7BDA7BE016F5F7F4F04
:1003E000CE018596D7D26D897E898F89988D9B01A4
:1003F000AC014FD6882339F062E171E08CE992E0DC
:100400000E94C80A16C06EE071E08CE992E00E947A
:100410009A0A4D895E896F89788D22E030E08CE9F7
:1004200092E00E94070C66E072E08CE992E00E9484
:10043000D80A809195028FA387E492E09EA38DA3B2
:10044000809196029091970299A788A7809198022F
:1004500090919902A0919A02B0919B028AA79BA7C2
:10046000ACA7BDA7BE016F5F7F4FCE018596CBD2F3
:100470006D897E898F89988D9B01AC010AD688236E
:1004800039F068E072E08CE992E00E94D80A16C068
:100490006AE071E08CE992E00E949A0A4D895E89D7
:1004A0006F89788D22E030E08CE992E00E94070CA1
:1004B00068E071E08CE992E00E94C80A62E370E0B3
:1004C00080E090E00E94830CAD960FB6F894DEBFFA
:1004D0000FBECDBFDF91CF910895AF92BF92CF9263
:1004E000DF92EF92FF920F931F93AA24AA94BA2C43
:1004F0006501EE24EA94FE2C870126E04BE062E0E1
:1005000086E792E0BAD21F910F91FF90EF90DF90B3
:10051000CF90BF90AF900895DC0115966C9315971E
:1005200016964C93169770E0FB01E559FE4FE49147
:100530001796EC931797FB01EF54FE4F64911896B2
:100540006C93189740E85EE360E070E01D964D9371
:100550005D936D937C93509708951F93CF93DF9392
:10056000EC01162F62E08D810E947E0D0E94520CDC
:10057000DC01CB01805D9740A109B10989879A8789
:10058000AB87BC871A8BDF91CF911F910895CF92D3
:10059000DF92EF92FF921F93CF93DF93EC011F81C5
:1005A000662311F0912F01C090E0288530E0220FE2
:1005B000331F29503E4FA0E0B0E0F901459154911E
:1005C000FA0180818123AD0160E070E098130FC0D3
:1005D0001196CD84DE84EF84F8884C155D056E0598
:1005E0007F0558F33FEF2FEF8FEF9FEF03C03A2FB8
:1005F000252FCB01632F722FDF91CF911F91FF9099
:10060000EF90DF90CF9008958F929F92AF92BF921C
:10061000CF92DF92EF92FF920F931F93CF93DF93CE
:10062000CDB7DEB7C054D1400FB6F894DEBF0FBED1
:10063000CDBF8C01F62E0E94520CF11016C0F801AD
:10064000C184D284E384F4849B01AC012C193D095C
:100650004E095F0969017A0130EDC31637E0D30610
:10066000E104F10410F48189B6C0F8016187728752
:10067000838794871482138212821182108262E02F
:1006800085810E947E0D61E070E080E090E00E9434
:10069000830C61E0F80185810E947E0D60E0F80125
:1006A00085810E94BA0DF80186818551823028F437
:1006B0008CE494E00E94BC0C06C064E170E080E031
:1006C00090E00E94830C62E0F80185810E947E0D1B
:1006D000F801828990E00E94BC0CF89460E0C801A7
:1006E00056DF6F3F7F4F8F4F9F4F21F4F801118AE4
:1006F000789442C061E0C8014ADF6F3F7F4F8F4F5F
:100700009F4FA1F39E012F5F3F4F79015E013FEBA9
:10071000A31A3EEFB30A670160E0C80138DFF601B3
:10072000608371838283938361E0C80130DFF601C7
:100730006483758386839783F8E0CF0ED11CCA1437
:10074000DB0451F7789420E030E0F701808091805D
:10075000A280B3804481558166817781FFEF8F1637
:100760009F06AF06BF0631F04F3F8FEF580768076F
:10077000780721F4F801118A80E02DC0F90183E0A7
:10078000F595E7958A95E1F7E00FF11F8081880FD5
:1007900084169506A606B70608F4816080832F5F4D
:1007A0003F4FF8E0EF0EF11C2832310571F6F801E9
:1007B000248130E04081818190E0840F911D42814D
:1007C000840F911D4381840F911D992728173907A4
:1007D00089F681E0818BC05CDE4F0FB6F894DEBFF6
:1007E0000FBECDBFDF91CF911F910F91FF90EF9082
:1007F000DF90CF90BF90AF909F908F900895CF9251
:10080000DF92EF92FF920F931F93CF93DF938C01B0
:10081000C62F642FF9DE882309F46BC0F8018681A6
:100820008C3009F43EC018F48B30B9F062C08551A9
:10083000823008F05EC0F801D2816D2F6F7770E0D2
:10084000762F66278381682B80E090E009D32DEC1A
:100850003CEC4CEC5DE3BAD33DC0F801628170E042
:1008600080E090E0FDD26B017C01F801D381D7FFDD
:1008700009C09B01AC0160E070E080E89FEB87D28B
:100880006B017C016D2F6F7070E080E090E0EAD228
:100890002DEC3CEC4CEC5DE399D3A701960178D2AA
:1008A0001BC0F801D28163816F7070E080E090E03E
:1008B000D9D22DEC3CEC4CEC5DE388D36B017C0190
:1008C0006D2F70E080E090E0CBD29B01AC01C701BE
:1008D000B6015ED2D7FD9058CC2379F026E636E6F5
:1008E00046EE5FE373D320E030E040E052E450D2C4
:1008F00004C060E070E080EC9FE7DF91CF911F9132
:100900000F91FF90EF90DF90CF900895CF92DF92FC
:10091000EF92FF92CF93DF93EC0176DE882369F1AB
:100920008E818B3050F18D3088F08551823028F5E2
:100930006881798176276727762780E090E090D2DA
:100940002DEC3CEC4CEC5DE341D31BC0698170E0C5
:1009500080E090E087D22DEC3CEC4CEC5DE336D3AC
:100960006B017C01688170E080E090E07BD29B01AC
:10097000AC01C701B6010CD204C060E070E080ECAD
:100980009FE7DF91CF91FF90EF90DF90CF90089598
:10099000089508950F931F93CF93DF938C01EB017C
:1009A00084E2FB0111928A95E9F784E290E0A0E0ED
:1009B000B0E088839983AA83BB83F80185819681FF
:1009C000A781B0858C839D83AE83BF838DE090E04B
:1009D000A0E0B0E088879987AA87BB8763D7688B38
:1009E000798B8A8B9B8B40E060E0F8018381948156
:1009F00006DF6C8B7D8B8E8B9F8B81E0DF91CF919F
:100A00001F910F9108950F931F93CF93DF938C0144
:100A1000EB0184E2FB0111928A95E9F784E290E010
:100A2000A0E0B0E088839983AA83BB83F801858125
:100A30009681A781B0858C839D83AE83BF838CE034
:100A400090E0A0E0B0E088879987AA87BB872AD783
:100A5000688B798B8A8B9B8B60E0F8018381948112
:100A600055DF6C8B7D8B8E8B9F8B81E0DF91CF91DF
:100A70001F910F9108951EC51DC54F925F926F92F1
:100A80007F929F92AF92BF92CF92DF92EF92FF92AE
:100A90000F931F93CF93DF93EC01942E3DDD9B8A40
:100AA00089E392E09D8B8C8BD88FCF8BE98EFA8E69
:100AB0000B8F1C8F87E492E09E8F8D8FD9A3C8A3E4
:100AC000AAA2BBA2CCA2DDA2DF91CF911F910F9170
:100AD000FF90EF90DF90CF90BF90AF909F907F906E
:100AE0006F905F904F90089567E337CDCF93DF937A
:100AF000EB01FC0183898C3089F038F48B30C1F430
:100B00004BE050E068E172E017C0853161F086315A
:100B100079F44BE050E06AE272E00EC04BE050E046
:100B20006EE172E009C04BE050E064E272E004C0A4
:100B30004BE050E060E372E0CE010E94E40F1B86C0
:100B4000DF91CF910895FB01DC0153968C918C309D
:100B500041F038F48B3029F480E492E4AFE0B0E067
:100B600004C080E894E8AEE1B0E084A395A3A6A316
:100B7000B7A308950F931F93CF93DF938C01EB01DD
:100B800088E2DB011D928A95E9F7F801838194815F
:100B9000ADDF81E090E0A0E0B0E08C879D87AE877C
:100BA000BF87F80185819681A781B085888B998B55
:100BB000AA8BBB8B8DE090E0A0E0B0E08C8B9D8B8E
:100BC000AE8BBF8BBE0183819481BDDFD8011396AC
:100BD000ED91FC91149783898C30F1F0A0F48B3067
:100BE00009F048C080E090E0A8E4B2E4888F998FD3
:100BF000AA8FBB8F1C8E1D8E1E8E1F8E80E090E0F4
:100C0000A0E0B0E432C08531E1F0863199F580E0B2
:100C100090E0AAEFB2E419C080E090E0A0E7B2E46F
:100C2000888F998FAA8FBB8F80E090E0A0EAB1EC0B
:100C30008C8F9D8FAE8FBF8F80E090E0A0E0BFE3F0
:100C400014C080E090E0A0EAB2E4888F998FAA8F68
:100C5000BB8F80E090E0A0E2B2EC8C8F9D8FAE8FD6
:100C6000BF8F8DEC9CECACECBDE388A399A3AAA349
:100C7000BBA30CC0188E198E1A8E1B8E1C8E1D8E57
:100C80001E8E1F8E18A219A21AA21BA2DF91CF914D
:100C90001F910F9108950F931F93CF93DF938C01B2
:100CA000EB0188E2DB011D928A95E9F7F801838167
:100CB00094811CDF81E090E0A0E0B0E08C879D870C
:100CC000AE87BF87F80185819681A781B085888B23
:100CD000998BAA8BBB8B8CE090E0A0E0B0E08C8B72
:100CE0009D8BAE8BBF8BBE01838194812CDFD8019D
:100CF0001396ED91FC91149783898C3069F038F448
:100D00008B30A1F580E090E0A0EAB2E409C0853123
:100D1000C1F08631B1F02AC080E090E0AEEBB2E4E1
:100D2000888F998FAA8FBB8F80E090E0A0EAB1E412
:100D30008C8F9D8FAE8FBF8F80E090E0A0EAB0E4F3
:100D400010C080E090E0A8ECB2E4888F998FAA8F61
:100D5000BB8F1C8E1D8E1E8E1F8E8DEC9CECACEC02
:100D6000BDE388A399A3AAA3BBA30CC0188E198EB8
:100D70001A8E1B8E1C8E1D8E1E8E1F8E18A219A2FF
:100D80001AA21BA2DF91CF911F910F910895505885
:100D9000BB27AA270ED0DCC0CDD030F0D2D020F0B7
:100DA00031F49F3F11F41EF4C2C00EF4E095E7FB4E
:100DB000B8C0E92FDED080F3BA1762077307840743
:100DC000950718F071F49EF5F6C00EF4E0950B2E21
:100DD000BA2FA02D0B01B90190010C01CA01A0018D
:100DE0001124FF27591B99F0593F50F4503E68F1E8
:100DF0001A16F040A22F232F342F4427585FF3CF29
:100E0000469537952795A795F0405395C9F77EF4F9
:100E10001F16BA0B620B730B840BBAF09150A1F042
:100E2000FF0FBB1F661F771F881FC2F70EC0BA0FC8
:100E3000621F731F841F48F4879577956795B79550
:100E4000F7959E3F08F0B3CF9395880F08F0992748
:100E5000EE0F97958795089540D008F481E00895A6
:100E6000E89409C097FB3EF4909580957095619544
:100E70007F4F8F4F9F4F9923A9F0F92F96E9BB27FA
:100E80009395F695879577956795B795F111F8CF76
:100E9000FAF4BB0F11F460FF1BC06F5F7F4F8F4FE1
:100EA0009F4F16C0882311F096E911C0772321F0D7
:100EB0009EE8872F762F05C0662371F096E8862F6F
:100EC00070E060E02AF09A95660F771F881FDAF7C6
:100ED000880F9695879597F90895990F0008550FF3
:100EE000AA0BE0E8FEEF16161706E807F907C0F0B0
:100EF00012161306E407F50798F0621B730B840BB8
:100F0000950B39F40A2661F0232B242B252B21F491
:100F100008950A2609F4A140A6958FEF811D811D31
:100F2000089597F99F6780E870E060E008959FEF6B
:100F300080EC089500240A94161617061806090670
:100F4000089500240A94121613061406050608953F
:100F5000092E0394000C11F4882352F0BB0F40F4C7
:100F6000BF2B11F460FF04C06F5F7F4F8F4F9F4F07
:100F7000089557FD9058440F551F59F05F3F71F089
:100F80004795880F97FB991F61F09F3F79F08795F0
:100F90000895121613061406551FF2CF4695F1DF79
:100FA00008C0161617061806991FF1CF8695710509
:100FB000610508940895E894BB2766277727CB013D
:100FC00097F908958ADF08F48FEF08950BD0C0CF0A
:100FD000B1DF28F0B6DF18F0952309F0A2CFA7CF34
:100FE0001124EACFC6DFA0F3959FD1F3950F50E00F
:100FF000551F629FF001729FBB27F00DB11D639FCB
:10100000AA27F00DB11DAA1F649F6627B00DA11D70
:10101000661F829F2227B00DA11D621F739FB00D16
:10102000A11D621F839FA00D611D221F749F332786
:10103000A00D611D231F849F600D211D822F762F1F
:101040006A2F11249F5750408AF0E1F088234AF01C
:10105000EE0FFF1FBB1F661F771F881F9150504068
:10106000A9F79E3F510570F05CCFA6CF5F3FECF330
:10107000983EDCF3869577956795B795F795E79554
:101080009F5FC1F7FE2B880F911D9695879597F965
:10109000089523DF880B990B0895FC01918D228D13
:1010A000892F90E0805C9F4F821B91098F73992755
:1010B0000895FC01918D828D981731F0828DE80F93
:1010C000F11D858D90E008958FEF9FEF0895FC014D
:1010D000918D828D981761F0828DDF01A80FB11D6F
:1010E0005D968C91928D9F5F9F73928F90E0089593
:1010F0008FEF9FEF0895FC01538D448D252F30E035
:10110000842F90E0821B930B541710F0CF96089514
:101110000197089587E19AE0892B39F080E090E00B
:10112000892B19F084D1811125C080E090E0892BB2
:1011300041F080E090E0892B21F00E9400008111B5
:101140001CC080E090E0892B41F080E090E0892B8A
:1011500021F00E940000811113C080E090E0892BF3
:10116000A1F080E090E0892B81F00E9400008111C5
:101170000AC008950E940000D8CF0E940000E1CF6D
:101180000E940000EACF0C9400000895FC01848DB9
:10119000DF01A80FB11DA35ABF4F2C91848D90E0A1
:1011A00001968F739927848FA689B7892C93A0897C
:1011B000B1898C91837080648C93938D848D981306
:1011C00006C00288F389E02D80818F7D8083089599
:1011D000EF92FF920F931F93CF93DF93EC0181E087
:1011E000888F9B8D8C8D981305C0E889F989808143
:1011F00085FD25C0F62E0B8D10E00F5F1F4F0F737E
:101200001127E02E8C8DE8120BC00FB607FCFACF29
:10121000E889F989808185FFF5CFCE01B7DFF2CF6C
:101220008B8DFE01E80FF11DE35AFF4FF0829FB74F
:10123000F8940B8FEA89FB89808180620AC09FB78E
:10124000F894EE89FF896083E889F9898081837049
:10125000806480839FBF81E090E0DF91CF911F91F8
:101260000F91FF90EF900895CF93DF93EC01888D5D
:101270008823C1F0EA89FB89808185FD05C0A889A2
:10128000B9898C9186FD0EC00FB607FCF5CF808121
:1012900085FFF2CFA889B9898C9185FFEDCFCE016A
:1012A00075DFE8CFDF91CF910895CF92DF92EF9273
:1012B000FF921F93CF93DF93EC016A017B01122F02
:1012C000E889F98982E080834115514E61057105F5
:1012D000A9F060E079E08DE390E0A70196010DD5DB
:1012E000DA01C9010197A109B109B695A7959795AA
:1012F00087959C01211580E13807A0F0E889F989DC
:10130000108260E874E88EE190E0A7019601F5D4C0
:10131000DA01C9010197A109B109B695A795979579
:1013200087959C01EC85FD853083EE85FF852083C4
:10133000188EEC89FD891083EA89FB8980818061A0
:101340008083EA89FB89808188608083EA89FB89C0
:10135000808180688083EA89FB8980818F7D80839A
:10136000DF91CF911F91FF90EF90DF90CF90089584
:101370001F920F920FB60F9211240BB60F922F935C
:101380008F939F93EF93FF93E091AC02F091AD02A6
:101390008081E091B202F091B30282FD12C090818F
:1013A0008091B5028F5F8F732091B602821751F042
:1013B000E091B502F0E0E456FD4F958F8093B502C1
:1013C00001C08081FF91EF919F918F912F910F909C
:1013D0000BBE0F900FBE0F901F9018951F920F928B
:1013E0000FB60F9211240BB60F922F933F934F938A
:1013F0005F936F937F938F939F93AF93BF93EF937D
:10140000FF938CE992E0C2DEFF91EF91BF91AF9123
:101410009F918F917F916F915F914F913F912F910C
:101420000F900BBE0F900FBE0F901F9018958CE978
:1014300092E033DE21E0892B09F420E0822F089529
:10144000ECE9F2E01382128288EE93E0A0E0B0E0D3
:1014500084839583A683B78385E592E09183808317
:1014600085EC90E09587848784EC90E09787868769
:1014700080EC90E0918B808B81EC90E0938B828B61
:1014800082EC90E0958B848B86EC90E0978B868B3A
:10149000118E128E138E148E0895089578D2FDDF6A
:1014A0000E945801CAE8D8E00E94C0012097E1F3E9
:1014B00031DEFACF00C5CF92DF92EF92FF920F9309
:1014C0001F93CF93DF936C017A018B01C0E0D0E0D2
:1014D000CE15DF0581F0D8016D918D01D601ED911A
:1014E000FC910190F081E02DC6011995892B11F036
:1014F0002196EECF7E01C701DF91CF911F910F9111
:10150000FF90EF90DF90CF9008956115710579F00D
:10151000FB0101900020E9F73197AF01461B570B03
:10152000DC01ED91FC910280F381E02D199480E0C3
:1015300090E00895EF92FF920F931F93CF93DF9364
:101540008C017B01C0E0D0E0F701EC0FFD1F64913E
:10155000662361F0D801ED91FC910190F081E02DBE
:10156000C8011995892B11F02196EECFCE01DF919C
:10157000CF911F910F91FF90EF900895DC01ED91B5
:10158000FC910190F081E02D199463E672E0BDCFEB
:101590000F931F93CF93DF93EC01CCDF8C01CE012F
:1015A000F4DF800F911FDF91CF911F910F9108956C
:1015B0000F931F93CF93DF93EC01A7DF8C01CE0134
:1015C000E4DF800F911FDF91CF911F910F9108955C
:1015D0008F929F92AF92BF92EF92FF920F931F93C1
:1015E000CF93DF93CDB7DEB7A1970FB6F894DEBFE8
:1015F0000FBECDBF7C01FA01CB0119A2223008F445
:101600002AE08E010F5D1F4F822E912CA12CB12C50
:10161000BF01A501940171D3F901CA01015011095B
:101620006A3010F4605D01C0695CD8016C93232BB3
:10163000242B252B69F7B801C70167DFA1960FB6E8
:10164000F894DEBF0FBECDBFDF91CF911F910F91F8
:10165000FF90EF90BF90AF909F908F9008952115CD
:10166000310541F4DC01ED91FC910190F081E02D18
:10167000642F1994ADCF9A01AB0160E070E0EFCF19
:101680007F928F929F92AF92BF92CF92DF92EF9212
:10169000FF920F931F93CF93DF938C016A017B011D
:1016A000722E9A01AB01C701B601F3DC882319F051
:1016B00066E672E024C046015701E894B7F82FEFC0
:1016C0003FEF4FE75FE7C501B401E3DC81110CC0D8
:1016D0002FEF3FEF4FE75FE7C501B401BDDB181601
:1016E0001CF46AE672E00BC02FEF3FEF4FE75FE4B8
:1016F000C701B60167DC18168CF46EE672E0C8010B
:10170000DF91CF911F910F91FF90EF90DF90CF90DD
:10171000BF90AF909F908F907F90F7CE2FEF3FEFCD
:101720004FE75FECC701B60197DB87FDE6CF20E00E
:1017300030E0A901C701B6018FDB87FF09C06DE268
:10174000C8011CDFEC01F7FAF094F7F8F09402C03E
:10175000C0E0D0E0B12C60E070E080E09FE37B145B
:1017600039F020E030E040E251E433D2B394F7CFD7
:10177000A70196010DDB6B017C0193D24B015C014B
:101780002AE0AB01BC01C80123DFC80FD91F7720B5
:1017900079F1C501B40164DB9B01AC01C701B6015D
:1017A000F6DA6B017C016EE2C801E8DEC80FD91FD2
:1017B00020E030E040E251E4C701B60107DC4B0114
:1017C0005C016FD26B017C014AE050E0C80153DF3D
:1017D000C80FD91FB60180E090E042DB9B01AC014D
:1017E000C501B401D4DA6B017C017A947110E0CFA9
:1017F000CE01DF91CF911F910F91FF90EF90DF907D
:10180000CF90BF90AF909F908F907F90089538CFEA
:101810001F920F920FB60F9211242F933F938F9325
:101820009F93AF93BF9380913A0390913B03A09114
:101830003C03B0913D033091390323E0230F2D3752
:1018400020F40196A11DB11D05C026E8230F0296C4
:10185000A11DB11D2093390380933A0390933B035C
:10186000A0933C03B0933D0380913E0390913F03CE
:10187000A0914003B09141030196A11DB11D809339
:101880003E0390933F03A0934003B0934103BF9165
:10189000AF919F918F913F912F910F900FBE0F901D
:1018A0001F9018952FB7F89460913A0370913B03FD
:1018B00080913C0390913D032FBF08953FB7F8946A
:1018C00080913E0390913F03A0914003B09141036A
:1018D00026B5A89B05C02F3F19F00196A11DB11D8B
:1018E0003FBFBA2FA92F982F8827820F911DA11DC6
:1018F000B11DBC01CD0142E0660F771F881F991F03
:101900004A95D1F708958F929F92AF92BF92CF924E
:10191000DF92EF92FF926B017C01D0DF4B015C0103
:10192000C114D104E104F104F1F052D1C7DFDC01AC
:10193000CB0188199909AA09BB09883E9340A105E2
:10194000B10570F321E0C21AD108E108F10888EE70
:10195000880E83E0981EA11CB11CC114D104E104BF
:10196000F10421F7DDCFFF90EF90DF90CF90BF9093
:10197000AF909F908F9008958230910538F0880F36
:10198000991F880F991F05970197F1F7089578948B
:1019900084B5826084BD84B5816084BD85B5826074
:1019A00085BD85B5816085BDEEE6F0E08081816012
:1019B0008083E1E8F0E01082808182608083808112
:1019C00081608083E0E8F0E0808181608083E1EBEA
:1019D000F0E0808184608083E0EBF0E080818160D2
:1019E0008083E1E9F0E08081826080838081816092
:1019F0008083E0E9F0E0808181608083E1EAF0E0CB
:101A0000808182608083808181608083E0EAF0E071
:101A1000808181608083E1E2F1E080818260808367
:101A2000808181608083E0E2F1E080818160808359
:101A3000EAE7F0E080818460808380818260808337
:101A40008081816080838081806880831092C10062
:101A5000089590E0FC013197E231F10508F04DC0A6
:101A60008827EE58FF4F8F4F86C1809180008F7777
:101A700003C0809180008F7D8093800008958091C5
:101A80008000877FF9CF84B58F7702C084B58F7DC2
:101A900084BD08958091B0008F7703C08091B0001D
:101AA0008F7D8093B0000895809190008F7707C05C
:101AB000809190008F7D03C080919000877F8093FC
:101AC000900008958091A0008F7707C08091A000BA
:101AD0008F7D03C08091A000877F8093A000089530
:101AE000809120018F7707C0809120018F7D03C0F6
:101AF00080912001877F809320010895CF93DF9309
:101B000090E0FC01E559FE4F2491FC01EF54FE4F9B
:101B10008491882361F190E0880F991FFC01E55DB5
:101B2000FD4FC591D491FC01EF5EFD4FA591B4919D
:101B3000611109C09FB7F89488812095822388831A
:101B4000EC912E230BC0623061F49FB7F89488812A
:101B5000322F309583238883EC912E2B2C939FBFBB
:101B600006C08FB7F894E8812E2B28838FBFDF91B2
:101B7000CF9108951F93CF93DF93282F30E0F90181
:101B8000EB5DFE4F8491F901E559FE4FD491F901C7
:101B9000EF54FE4FC491CC23B9F0162F811159DFB9
:101BA000EC2FF0E0EE0FFF1FEF5EFD4FA591B4911B
:101BB0009FB7F894111104C08C91D095D82302C01E
:101BC000EC91DE2BDC939FBFDF91CF911F910895A5
:101BD00008950CD0BDC9B5D940F0ACD930F021F48E
:101BE0005F3F19F09EC95111E7C9A1C9C2D998F345
:101BF0009923C9F35523B1F3951B550BBB27AA278E
:101C000062177307840738F09F5F5F4F220F331FFF
:101C1000441FAA1FA9F333D00E2E3AF0E0E830D0CB
:101C200091505040E695001CCAF729D0FE2F27D0CE
:101C3000660F771F881FBB1F261737074807AB079C
:101C4000B0E809F0BB0B802DBF01FF2793585F4F11
:101C50002AF09E3F510568F064C9AEC95F3FECF3BE
:101C6000983EDCF3869577956795B795F7959F5FD6
:101C7000C9F7880F911D9695879597F90895E1E02A
:101C8000660F771F881FBB1F621773078407BA0789
:101C900020F0621B730B840BBA0BEE1F88F7E095E4
:101CA00008956FD988F09F5790F0B92F9927B751B1
:101CB000A0F0D1F0660F771F881F991F1AF0BA9510
:101CC000C9F712C0B13081F076D9B1E0089573C977
:101CD000672F782F8827B85F39F0B93FCCF3869506
:101CE00077956795B395D9F73EF490958095709563
:101CF00061957F4F8F4F9F4F0895A1E21A2EAA1B27
:101D0000BB1BFD010DC0AA1FBB1FEE1FFF1FA217AB
:101D1000B307E407F50720F0A21BB30BE40BF50BA8
:101D2000661F771F881F991F1A9469F76095709531
:101D3000809590959B01AC01BD01CF010895052EC2
:101D400097FB16F400940FD057FD05D0D6DF07FCA3
:101D500002D046F408C050954095309521953F4FEC
:101D60004F4F5F4F089590958095709561957F4F87
:101D70008F4F9F4F0895EE0FFF1F881F8BBF079057
:101D8000F691E02D19940F931F93CF93DF93823038
:101D9000910510F482E090E0E0914403F091450356
:101DA00020E030E0A0E0B0E0309719F140815181AF
:101DB0000281138148175907C8F08417950769F401
:101DC000109731F012960C93129713961C9327C01C
:101DD000009344031093450322C02115310519F0E7
:101DE0004217530718F49A01BD01EF01DF01F80112
:101DF000DBCF21153105F9F0281B390B24303105D3
:101E000080F48A819B816115710521F0FB01938328
:101E1000828304C09093450380934403FE0132966D
:101E200044C0FE01E20FF31F8193919322503109C8
:101E3000398328833AC02091420330914303232BF6
:101E400041F4209102023091030230934303209326
:101E5000420320910002309101022115310541F425
:101E60002DB73EB74091040250910502241B350B5B
:101E7000E0914203F0914303E217F307A0F42E1B15
:101E80003F0B2817390778F0AC014E5F5F4F2417DE
:101E9000350748F04E0F5F1F5093430340934203B2
:101EA0008193919302C0E0E0F0E0CF01DF91CF9108
:101EB0001F910F910895CF93DF93009709F481C08C
:101EC000FC01329713821282A0914403B091450322
:101ED000109781F420813181820F931F209142035A
:101EE000309143032817390751F5F0934303E093EA
:101EF000420367C0ED0120E030E0CE17DF0740F479
:101F00004A815B819E0141155105F1F0EA01F5CF4F
:101F1000D383C28340815181840F951FC817D9078D
:101F200059F488819981840F951F0296918380834B
:101F30008A819B81938382832115310529F4F09353
:101F40004503E09344033DC0E901FB83EA834991E3
:101F50005991C40FD51FEC17FD0761F48081918161
:101F6000840F951F0296E90199838883828193816A
:101F70009B838A83E0E0F0E012968D919C91139709
:101F8000009719F0FD01DC01F7CF8D919C9111971D
:101F90009D012E5F3F4F820F931F2091420330918E
:101FA00043032817390769F4309729F41092450341
:101FB0001092440302C013821282B0934303A09391
:101FC0004203DF91CF910895FB01DC014150504065
:101FD00048F001900D920020C9F701C01D924150B8
:0A1FE0005040E0F70895F894FFCF99
:101FEA0000004603200043004572726F7220687534
:101FFA006D69646974792100444854313100444858
:10200A005431320044485432310044485432320088
:10201A004448543F0000000000C9043C055701CA67
:10202A0004BA0500000000C8043B05570103054B2C
:10203A000600000000E8085B0A7B0834094D0867BF
:10204A000859080D0A006E616E00696E66006F76A7
:02205A0066001E
:00000001FF
