:1000000017C1000046C1000044C1000042C1000009
:1000100040C100003EC100003CC100003AC10000E8
:1000200038C1000036C1000034C1000032C10000F8
:1000300030C100002EC100002CC100002AC1000008
:1000400028C100000C94751F24C1000022C10000CB
:1000500020C100001EC100001CC100000C94E02F54
:1000600018C100000C94442E0C947A2E12C100008A
:1000700010C100000EC100000CC100000AC1000048
:100080000C94AC1F06C1000004C1000002C10000B6
:1000900000C10000FEC00000FCC000000C94E4267B
:1000A000F8C00000F6C000000C94E31FF2C000008E
:1000B000F0C00000EEC00000ECC000000C941A205C
:1000C000E8C00000E6C00000E4C00000E2C000009C
:1000D000E0C00000DEC00000DCC00000DAC00000AC
:1000E000D8C000001B311E310D311131173155318F
:1000F000223126312C31303134313A313E314231E6
:10010000553148314C31503100000A0B02090C0DB9
:100110000E080703040100000000000000000000BA
:1001200000000000000000000000000000000000CF
:10013000000000001211100000000000000000008C
:1001400000000000000000000000000000000102AC
:1001500010202008081020401020408002010201D9
:100160000804020101020408102040808040201091
:1001700008040201800402018040201008040201EA
:100180000804020101020408102040800102040852
:10019000102040800505050507050808080802022B
:1001A00002020A0A08080404040401010101010111
:1001B00001010303030303030303040707070C0CF4
:1001C0000C0C0C0C0C0C02020202060606060606BB
:1001D00006060B0B0B0B0B0B0B0B00002000230078
:1001E000260029002C002F0032000001000003012E
:1001F0000601090100002200250028002B002E0026
:100200003100340002010000050108010B0100006B
:100210002100240027002A002D00300033000101B6
:100220000000040107010A0149081C2BAC2E5508E7
:1002300011241FBECFEFD1E2DEBFCDBF00E00CBF67
:1002400013E0A0E0B2E0E4EAFEE600E00BBF02C08B
:1002500007900D92AA34B107D9F725E0AAE4B3E0DC
:1002600001C01D92A03BB207E1F711E0C7E1D1E068
:1002700000E006C021970109802FFE010E949E34F4
:10028000C431D10780E00807A9F70E94DA2E0C9448
:100290004137B6CECF93DF931F921F92CDB7DEB713
:1002A0009A83898389819A81FC01848195810F9049
:1002B0000F90DF91CF910895CF93DF9300D0CDB70A
:1002C000DEB79A8389836B8389819A816B810E94CF
:1002D0005E3389819A810F900F900F90DF91CF91BB
:1002E0000895CF93DF9300D01F92CDB7DEB79A83E6
:1002F00089837C836B832B813C8189819A81B901BD
:100300000E94713389819A810F900F900F900F9006
:10031000DF91CF910895CF93DF9300D01F92CDB797
:10032000DEB79A8389837C836B832B813C818981AF
:100330009A81B9010E94CE330F900F900F900F90C9
:10034000DF91CF910895CF93DF9300D01F92CDB767
:10035000DEB79A8389837C836B832B813C8189817F
:100360009A81B9010E94DE330F900F900F900F9089
:10037000DF91CF910895CF93DF9300D000D0CDB718
:10038000DEB79A8389837C836B835E834D838B8105
:100390009C81FC012481358189819A814D815E8116
:1003A0006B817C810E94FC3389819A8126960FB6ED
:1003B000F894DEBF0FBECDBFDF91CF9108950F93AC
:1003C0001F93CF93DF9300D01F92CDB7DEB79A83F0
:1003D00089837C836B838B819C81892B19F480E0DA
:1003E00090E015C089819A81FC01808191810296FB
:1003F000FC01008111818B819C810E94EC36AC0153
:100400002B813C8189819A81B901F80119950F905E
:100410000F900F900F90DF91CF911F910F91089542
:10042000CF93DF9300D000D0CDB7DEB79A83898316
:100430004B835C836D837E838B819C81AD81BE8188
:10044000E981FA8126E0AC01BD01CF010E94E12DD6
:10045000000026960FB6F894DEBF0FBECDBFDF9129
:10046000CF910895CF93DF931F921F92CDB7DEB740
:100470009A83898381E00F900F90DF91CF91089547
:10048000CF93DF931F921F92CDB7DEB79A838983F4
:1004900027EC32E089819A81FC013183208380E05E
:1004A00090E0892B21F089819A810E94E62E0F909D
:1004B0000F90DF91CF910895CF93DF931F921F92FA
:1004C000CDB7DEB79A83898389819A81D9DF898103
:1004D0009A810E94E62E0F900F90DF91CF910895A0
:1004E000CF93DF9300D0CDB7DEB79A8389836B8338
:1004F00000000F900F900F90DF91CF910895CF9350
:10050000DF9300D01F92CDB7DEB79A8389837C83B7
:100510006B8327EC32E089819A81FC01318320834F
:100520008B819C81FC01228189819A81FC0122833B
:1005300000000F900F900F900F90DF91CF910895D2
:10054000CF93DF9300D01F92CDB7DEB79A83898314
:100550007C836B832B813C8189819A81B901CFDFB8
:1005600023EE32E089819A81FC01318320838B81E3
:100570009C81FC012381348189819A81FC0134832F
:1005800023838B819C81FC0185819681A781B08525
:1005900029813A81F90185839683A783B08700007A
:1005A0000F900F900F900F90DF91CF910895CF9300
:1005B000DF9300D01F92CDB7DEB79A8389837C8307
:1005C0006B838B819C819C012C5E3F4F89819A813A
:1005D000B901B6DF89819A810F900F900F900F902B
:1005E000DF91CF910895CF93DF9300D01F92CDB7C5
:1005F000DEB79A8389837C836B832B813C818981DD
:100600009A81B9017CDF25ED32E089819A81FC0174
:10061000318320838B819C81FC01238134818981FA
:100620009A81FC01348323838B819C81FC01858129
:100630009681A781B08529813A81F90185839683C6
:10064000A783B08700000F900F900F900F90DF915D
:10065000CF910895CF93DF9300D01F92CDB7DEB72F
:100660009A8389837C836B838B819C819C01235E2D
:100670003F4F89819A81B901B6DF89819A810F90B4
:100680000F900F900F90DF91CF910895CF93DF934C
:1006900000D01F92CDB7DEB79A8389837C836B83AA
:1006A00089819A81FC0180819181FC0120813181C5
:1006B0004B8189819A81642FF90119950F900F90D0
:1006C0000F900F90DF91CF910895CF93DF93CDB727
:1006D000DEB7EB970FB6F894DEBF0FBECDBF40E894
:1006E00055E260E070E086E095E09ADE8AEF94E003
:1006F0000E946728809106029091070261E00E94A3
:100700005631809106029091070260E00E9492317A
:1007100080910A0290910B0261E00E945631809113
:100720000C0290910D0261E00E94563181E0EED200
:1007300086E593E00E94CF0ECE010B9666E573E04E
:1007400036DF9E012C5E3F4FCE010B96B9010E9411
:100750003710CE010B9637D4CE01029666E573E0D2
:1007600079DF9E012C5E3F4FCE010296B9010E94B7
:10077000CC11CE0102965AD488AD99ADAAADBBADCD
:1007800028EE33E040E050E0BC01CD010E9482340D
:10079000DA01C90180937C0390937D03A0937E03CB
:1007A000B0937F0386E095E05DDE982F81E0892796
:1007B000882309F0F7CF0E94DC2386E893E00E94AB
:1007C000BF1819828981863060F48981882F90E072
:1007D0008C569C4F2FEFFC01208389818F5F89838A
:1007E000F1CF8091080290910902BC0180EA93E068
:1007F0000E943B2160E070E080EA93E00E94E621E5
:100800008AE493E00E944A138AE493E00E944A1328
:100810008AE493E00E949F140000EB960FB6F894D0
:10082000DEBF0FBECDBFDF91CF9108951F93CF9351
:10083000DF93CDB7DEB7C354D1090FB6F894DEBF4E
:100840000FBECDBF80917C0390917D03A0917E036C
:10085000B0917F03BC01CD010E945B30CE01419677
:1008600066E573E0A4DE9E01265E3F4FCE01419611
:10087000B9010E94DD0FCE014196A5D38EA59FA59B
:10088000A8A9B9A911E09C01AD01BC01CD010E944C
:10089000D32C882309F410E0112329F0109281034E
:1008A000109280030EC08EA59FA5A8A9B9A9BC016E
:1008B000CD010E948D2BDC01CB01909381038093AD
:1008C0008003CE01089666E573E0C4DE9E01265ED5
:1008D0003F4FCE010896B9010E947311CE010896D0
:1008E000A5D38EA59FA5A8A9B9A911E09C01AD012A
:1008F000BC01CD010E94D32C882309F410E0112300
:1009000029F010928303109282030EC08EA59FA53A
:10091000A8A9B9A9BC01CD010E948D2BDC01CB0196
:10092000909383038093820380918003909181034D
:100930004C973CF480918203909183038734910516
:10094000E4F080918003909181034C9734F06EE045
:1009500072E086E095E00E943C2F809182039091A6
:1009600083038734910534F060E372E086E095E01C
:100970000E943C2F83E090E04ED240E061E08AE4A8
:1009800093E00E94381462E572E08AE493E00E94EA
:100990001F2F80918003909181034AE050E0BC01B9
:1009A0008AE493E00E94DA2F41E061E08AE493E078
:1009B0000E94381469E572E08AE493E00E941F2FD8
:1009C00080918203909183034AE050E0BC018AE465
:1009D00093E00E94DA2F64E070E08AEF94E00E94D6
:1009E000542962E572E08AEF94E0E9DC80918003AB
:1009F00090918103BC018AEF94E048DE8AEF94E095
:100A00000E948F2964E070E08AEF94E00E945429EC
:100A100069E572E08AEF94E0D2DC809182039091E4
:100A20008303BC018AEF94E031DE8AEF94E00E94F8
:100A30008F2947E050E064E070E08AEF94E00E9484
:100A40001F29CE01CE966FE572E00E9492328AEFA6
:100A500094E00E941F2A21E0892B09F420E0222340
:100A600051F08AEF94E00E94382A8983CE01CE9615
:100A7000698122DCECCF8AEF94E00E94382A9C0145
:100A8000CE01CE96B9012DDCCE01CE9603DC9C01C1
:100A900021503109CE010296BE01625C7F4F40E0D9
:100AA00050E00E94FC339E012E5F3F4FCE01CE9658
:100AB000B9010E94E132CE0102960E942832CE0195
:100AC000CE96BC0186E095E00E942C2FCE01CE96FA
:100AD00060E672E038DC982F81E0992309F480E029
:100AE000882309F048D1CE01CE9667E672E02BDC70
:100AF000982F81E0992309F480E0882309F03BD105
:100B0000CE01CE966AE672E01EDC982F81E0992332
:100B100009F480E0882309F02ED110928503109209
:100B2000840386E893E00E94B61D982F81E0892710
:100B3000882349F486E893E00E94DD1D982F81E028
:100B40008927882311F081E001C080E0882359F0D3
:100B500062E370E080E090E00E945B3010928503D9
:100B60001092840319C02ED0909385038093840340
:100B70008091840390918503019729F481E090E0AE
:100B80004AD1F9D009C080918403909185030297DE
:100B900019F482E090E03FD168EE73E080E090E0ED
:100BA0000E945B30CE01CE960E9428320000CD5BC1
:100BB000DF4F0FB6F894DEBF0FBECDBFDF91CF91F0
:100BC0001F9108950F931F93CF93DF93CDB7DEB797
:100BD00069970FB6F894DEBF0FBECDBFCE01449625
:100BE0006FE572E00E9492321982909186038981AA
:100BF000891708F03EC08981882F90E089579C4F63
:100C0000FC018081803118F48DE692E002C080E71B
:100C100092E09E01225F3F4FBC01C9010E949232C7
:100C20009E01225F3F4FCE014496B9010E94583386
:100C3000CE010E960E9428328981882F90E0895734
:100C40009C4FFC012081CE01089640E1622F0E945A
:100C500001339E01285F3F4FCE014496B9010E94A7
:100C60005833CE0108960E94283289818F5F89838C
:100C7000BCCFCE0144960E943F34CE0102969E0125
:100C80002C5E3F4F41E050E0B90175DBCE0102968A
:100C90006AE973E040DB11E0882309F410E0CE013B
:100CA00002960E942832112389F086E095E00E9486
:100CB000282F62E772E086E095E00E943C2F86E0F4
:100CC00095E00E94282F01E010E010C086E095E03A
:100CD0000E94282F64E872E086E095E00E943C2F95
:100CE00086E095E00E94282F02E010E0CE014496B5
:100CF0000E942832C80169960FB6F894DEBF0FBE75
:100D0000CDBFDF91CF911F910F910895CF93DF93C6
:100D10001F92CDB7DEB78983998181E08927882327
:100D200071F080910A0290910B0260E00E94923172
:100D300080910C0290910D0261E00E9492318981B4
:100D4000882371F080910A0290910B0261E00E9469
:100D5000923180910C0290910D0260E00E949231DC
:100D600064E670E080E090E00E945B3000000F904D
:100D7000DF91CF910895CF93DF93CDB7DEB780EAAF
:100D800093E00E942E2321E0843B910509F020E0AE
:100D9000222381F0809108029091090261E00E9473
:100DA000923160E070E080EA93E00E94E62181E009
:100DB000ADDF27C080EA93E00E942E2321E0892B3B
:100DC00009F020E0222381F080910802909109022D
:100DD00060E00E94923164EB70E080EA93E00E9450
:100DE000E62180E093DF0DC0809108029091090216
:100DF00060E00E94923164EB70E080EA93E00E9430
:100E0000E62164E670E080E090E00E945B30000044
:100E1000DF91CF910895CF93DF9300D01F92CDB78C
:100E2000DEB79C838B838B819C810197A9F4809191
:100E300006029091070261E00E94923164E670E040
:100E400080E090E00E945B30809106029091070262
:100E500060E00E94923135C08B819C81029731F510
:100E60001A82198289819A8103975CF58091060222
:100E70009091070261E00E94923164E670E080E0A8
:100E800090E00E945B30809106029091070260E042
:100E90000E94923162E370E080E090E00E945B305B
:100EA00089819A8101969A838983DCCF8B819C8189
:100EB000039739F4809106029091070261E00E9445
:100EC000923164E670E080E090E00E945B300000C8
:100ED0000F900F900F900F90DF91CF910895CF93C7
:100EE000DF931F921F92CDB7DEB79A8389838981E2
:100EF0009A814D969BD089819A81449664D0000056
:100F00000F900F90DF91CF910895AF92BF92CF9243
:100F1000DF92EF92FF920F931F93CF93DF9300D056
:100F20001F92CDB7DEB79A8389837C836B838981D7
:100F30009A81019749F58B819C81019629F524E0DE
:100F400044E167E28AE493E00E941813AA24AA9479
:100F5000BA2C6501EE24EA94FE2C870126E04BE0D2
:100F600062E086E593E0C3D645E065E386E893E07A
:100F70000E94921662E972E08AE993E00E9492323E
:100F800080EA93E00E94072189819A81892B59F494
:100F90008B819C81019639F48AE993E00E94283282
:100FA00086E593E09CDF00000F900F900F900F906C
:100FB000DF91CF911F910F91FF90EF90DF90CF9035
:100FC000BF90AF900895CF93DF931F921F92CDB73C
:100FD000DEB79A83898323EE32E089819A81FC010E
:100FE0003183208389819A814BDA80E090E0892BDC
:100FF00021F089819A810E94E62E0F900F90DF9157
:10100000CF910895CF93DF931F921F92CDB7DEB794
:101010009A83898389819A81D6DF89819A810E9406
:10102000E62E0F900F90DF91CF910895CF93DF932D
:101030001F921F92CDB7DEB79A83898325ED32E0E8
:1010400089819A81FC013183208389819A8118DA10
:1010500080E090E0892B21F089819A810E94E62E20
:101060000F900F90DF91CF910895CF93DF931F9250
:101070001F92CDB7DEB79A83898389819A81D6DFA3
:1010800089819A810E94E62E0F900F90DF91CF9177
:101090000895CF93DF93CDB7DEB76FEF7FEF81E099
:1010A00090E033DFDF91CF910895CF93DF93CDB7F9
:1010B000DEB76FEF7FEF80E090E027DFDF91CF9129
:1010C0000895CF93DF931F921F92CDB7DEB79A8317
:1010D0008983F89400000F900F90DF91CF910895CD
:1010E000CF93DF931F921F92CDB7DEB79A83898388
:1010F000789400000F900F90DF91CF910895CF93D7
:10110000DF93CDB7DEB72B970FB6F894DEBF0FBED7
:10111000CDBF98878F8369874A872B878F81988572
:101120002985FC0125838F8198852A85FC012683EA
:101130008985882F90E0825B9E4F9A83898389817D
:101140009A81FC0184918B838F8198852B81FC018E
:1011500027838985882F90E08C569E4F9D838C83B2
:101160008C819D81FC0184918E838F8198852E8155
:10117000FC0120872F81388580E89EE3A0E0B0E065
:10118000F90185879687A787B08B00002B960FB64D
:10119000F894DEBF0FBECDBFDF91CF910895CF93FE
:1011A000DF9300D0CDB7DEB79A8389836B838981C3
:1011B0009A81FC01858162E00E9456310E942A30AA
:1011C000DC01CB01805D9740A109B10929813A81F9
:1011D000F90181879287A387B48789819A812B81BE
:1011E000FC01228B00000F900F900F90DF91CF91A8
:1011F0000895CF93DF93CDB7DEB728970FB6F89455
:10120000DEBF0FBECDBF9E838D836F83488780E096
:1012100090E0A0ECBFE789839A83AB83BC838D8188
:101220009E8168851DD2882309F434C18D819E81F9
:10123000FC018681882F90E08C30910509F472C002
:101240008D3091051CF40B9731F024C1459702971E
:1012500008F020C1C7C08D819E81FC018281882F4A
:1012600090E0A0E0B0E0BC01CD010E94BE2BDC010B
:10127000CB0189839A83AB83BC838D819E81FC01E2
:101280008381882384F429813A814B815C8160E0E9
:1012900070E080E89FEB0E94282BDC01CB01898362
:1012A0009A83AB83BC838D819E81FC018381882FCF
:1012B00090E08F709927092E000CAA0BBB0BBC0184
:1012C000CD010E94C02BDC01CB012DEC3CEC4CECA1
:1012D0005DE3BC01CD010E94702CDC01CB019C01BF
:1012E000AD0169817A818B819C810E94292BDC016F
:1012F000CB0189839A83AB83BC838F81882309F4D4
:10130000C4C089819A81AB81BC812D813E81AC01B1
:10131000BD01C901CED0DC01CB0189839A83AB83A7
:10132000BC83B3C08D819E81FC018281882F90E0B7
:10133000A0E0B0E0BC01CD010E94BE2BDC01CB01DE
:1013400089839A83AB83BC838D819E81FC018381D9
:10135000882F90E08F709927092E000CAA0BBB0BE9
:10136000BC01CD010E94C02BDC01CB012DEC3CEC7B
:101370004CEC5DE3BC01CD010E94702CDC01CB0183
:101380009C01AD0169817A818B819C810E94292B0E
:10139000DC01CB0189839A83AB83BC838D819E81E1
:1013A000FC01828188234CF489819A81AB81BC81C4
:1013B000B05889839A83AB83BC838F81882309F4D7
:1013C00066C089819A81AB81BC812D813E81AC014F
:1013D000BD01C9016ED0DC01CB0189839A83AB8347
:1013E000BC8355C08D819E81FC018281882F90E055
:1013F0008F779927382F22278D819E81FC01838149
:10140000882F90E0822B932BCC01A0E0B0E0BC01B0
:10141000CD010E94BE2BDC01CB0189839A83AB8373
:10142000BC832DEC3CEC4CEC5DE369817A818B81D3
:101430009C810E94702CDC01CB0189839A83AB8351
:10144000BC838D819E81FC01828188234CF489813B
:101450009A81AB81BC81B05889839A83AB83BC836A
:101460008F818823B1F089819A81AB81BC812D81E4
:101470003E81AC01BD01C9011CD0DC01CB018983D7
:101480009A83AB83BC83000004C0000003C000004B
:1014900001C0000089819A81AB81BC81BC01CD0172
:1014A00028960FB6F894DEBF0FBECDBFDF91CF9167
:1014B0000895CF93DF9300D000D0CDB7DEB79A83E5
:1014C00089834B835C836D837E8326E636E646EE16
:1014D0005FE36B817C818D819E810E94702CDC0199
:1014E000CB0120E030E040E052E4BC01CD010E949D
:1014F000292BDC01CB01BC01CD0126960FB6F89457
:10150000DEBF0FBECDBFDF91CF910895CF92DF92A6
:10151000EF92FF92CF93DF93CDB7DEB727970FB649
:10152000F894DEBF0FBECDBF9E838D836F8380E0B6
:1015300090E0A0ECBFE789839A83AB83BC838D8165
:101540009E816F818DD0882309F477C08D819E8123
:10155000FC018681882F90E08B3091050CF46DC0E2
:101560008D3091052CF04597029708F066C037C082
:101570008D819E81FC018081882F90E0092E000CD6
:10158000AA0BBB0BBC01CD010E94C02B6B017C01DF
:101590008D819E81FC018181882F90E0092E000CB5
:1015A000AA0BBB0BBC01CD010E94C02BDC01CB01FF
:1015B0002DEC3CEC4CEC5DE3BC01CD010E94702CA9
:1015C000DC01CB019C01AD01C701B6010E94292BB2
:1015D000DC01CB0189839A83AB83BC832EC08D81D0
:1015E0009E81FC018081882F90E0382F22278D81F9
:1015F0009E81FC018181882F90E0822B932BCC016E
:10160000A0E0B0E0BC01CD010E94BE2BDC01CB010B
:1016100089839A83AB83BC832DEC3CEC4CEC5DE37B
:1016200069817A818B819C810E94702CDC01CB01C5
:1016300089839A83AB83BC83000089819A81AB81C3
:10164000BC81BC01CD0127960FB6F894DEBF0FBE5A
:10165000CDBFDF91CF91FF90EF90DF90CF900895B5
:10166000AF92BF92CF92DF92FF920F931F93CF93CF
:10167000DF93CDB7DEB7C455D1400FB6F894DEBFC7
:101680000FBECDBF9E012E5A3E4FF901918380833C
:10169000CE018C5A9E4FFC0160830E942A30DC01EF
:1016A000CB018D839E83AF83B887CE018C5A9E4F2A
:1016B000FC01908181E08927882329F1CE018E5A8F
:1016C0009E4FFC0180819181FC0181859285A385DB
:1016D000B4852D813E814F81588559016A01A81A30
:1016E000B90ACA0ADB0AD601C501803D9740A105A7
:1016F000B10548F4CE018E5A9E4FFC018081918144
:10170000FC01F1885FC2CE018E5A9E4FFC01208100
:1017100031818D819E81AF81B885F9018187928762
:10172000A387B487CE018E5A9E4FFC0180819181A0
:10173000FC011482CE018E5A9E4FFC018081918162
:10174000FC012481CE018E5A9E4FFC018081918143
:10175000FC012383CE018E5A9E4FFC018081918132
:10176000FC012381CE018E5A9E4FFC018081918124
:10177000FC012283CE018E5A9E4FFC018081918113
:10178000FC012281CE018E5A9E4FFC018081918105
:10179000FC012183CE018E5A9E4FFC0180819181F4
:1017A000FC012181CE018E5A9E4FFC0180819181E6
:1017B000FC012083CE018E5A9E4FFC0180819181D5
:1017C000FC01858162E00E94563161E070E080E0BA
:1017D00090E00E945B30CE018E5A9E4FFC018081CA
:1017E0009181FC01858161E00E945631CE018E5AC3
:1017F0009E4FFC0180819181FC01858160E00E9407
:101800009231CE018E5A9E4FFC0180819181FC0164
:101810008681882F90E04597029728F48CE494E025
:101820000E94943007C064E170E080E090E00E9484
:101830005B300000CE018E5A9E4FFC018081918169
:10184000FC01858162E00E945631CE018E5A9E4F86
:10185000FC0180819181FC018289882F90E00E94A7
:101860009430CE018F5A9E4F2CDCCE018E5A9E4F63
:10187000FC018081918160E0B7D1DC01CB0121E0E6
:101880008F3F9F4FAF4FBF4F09F020E0222399F0C9
:10189000CE018E5A9E4FFC0180819181FC01118AFC
:1018A000CE018E5A9E4FFC0180819181FC01F1880E
:1018B00000E010E072C0CE018E5A9E4FFC01808184
:1018C000918161E091D1DC01CB0121E08F3F9F4FFD
:1018D000AF4FBF4F09F020E0222399F0CE018E5A7E
:1018E0009E4FFC0180819181FC01118ACE018E5AAC
:1018F0009E4FFC0180819181FC01F18800E010E0A5
:101900004CC01A82198289819A81803591050CF028
:1019100042C0CE018E5A9E4FFC018081918160E0D1
:1019200063D1DC01CB0129813A81220F331F220FC1
:10193000331FAE014F5F5F4F240F351F205F3F4FB6
:10194000F90180839183A283B38389819A818C0179
:101950000F5F1F4FCE018E5A9E4FFC0180819181F7
:1019600061E042D1DC01CB019801220F331F220F2D
:10197000331FAE014F5F5F4F240F351F205F3F4F76
:10198000F90180839183A283B38389819A8102962E
:101990009A838983B8CF01E010E0CE018F5A9E4F21
:1019A0009FDB0130110509F00DC100001C821B8274
:1019B0008B819C8188970CF0A7C08B819C81880FBC
:1019C000991F880F991F880F991F9E012F5F3F4F06
:1019D000820F931F4096FC0180819181A281B38187
:1019E00089879A87AB87BC878B819C81880F991FD9
:1019F0000196880F991F880F991F9E012F5F3F4FF7
:101A0000820F931F4096FC0180819181A281B38156
:101A10008D879E87AF87B88B89859A85AB85BC8576
:101A20008F3F9F4FAF4FBF4F49F08D859E85AF854C
:101A3000B8898F3F9F4FAF4FBF4F89F4CE018E5A69
:101A40009E4FFC0180819181FC01118ACE018E5A4A
:101A50009E4FFC0180819181FC01F188B3C08B8194
:101A60009C8199230CF40796959587959595879574
:101A7000959587959E012E5A3E4FF901208131811F
:101A8000280F391FF9012081422F440F9E012E5A41
:101A90003E4FF90120813181820F931FFC01408369
:101AA0002D853E854F85588989859A85AB85BC856E
:101AB00082179307A407B50708F58B819C819923AA
:101AC0000CF40796959587959595879595958795A7
:101AD0009E012E5A3E4FF90120813181280F391F76
:101AE000F9012081422F41609E012E5A3E4FF9019B
:101AF00020813181820F931FFC0140838B819C8167
:101B000001969C838B8354CFCE018E5A9E4FFC014D
:101B100080819181FC018481282F30E0CE018E5A92
:101B20009E4FFC0180819181FC018081482F50E013
:101B3000CE018E5A9E4FFC0180819181FC018181F2
:101B4000882F90E0480F591FCE018E5A9E4FFC01FE
:101B500080819181FC018281882F90E0480F591F7C
:101B6000CE018E5A9E4FFC0180819181FC018381C0
:101B7000882F90E0840F951F99272817390791F433
:101B8000CE018E5A9E4FFC018081918121E0FC01A3
:101B9000218BCE018E5A9E4FFC0180819181FC01E8
:101BA000F18810C0CE018E5A9E4FFC018081918138
:101BB000FC01118ACE018E5A9E4FFC0180819181D9
:101BC000FC01F1888F2DCC5ADE4F0FB6F894DEBFA2
:101BD0000FBECDBFDF91CF911F910F91FF90DF908E
:101BE000CF90BF90AF900895CF93DF93CDB7DEB77E
:101BF0002A970FB6F894DEBF0FBECDBF99878887AE
:101C00006A871A8219828A85882329F088859985AE
:101C1000FC01878101C080E08B8388859985FC0168
:101C20008085882F90E0880F991F86529E4F9D8354
:101C30008C838C819D81FC0125913491CF013F8360
:101C40002E839D838C838E819F81FC0120818885DA
:101C50009985FC018781282381E09B81291709F060
:101C600080E08823F9F089819A819C012F5F3F4FA2
:101C70003A8329839C0140E050E088859985FC01E6
:101C800085859685A785B08961E0281739074A07B9
:101C90005B0708F460E0662309F4BFCF8FEF9FEF86
:101CA000DC0105C089819A81CC01A0E0B0E0BC01D3
:101CB000CD012A960FB6F894DEBF0FBECDBFDF91DF
:101CC000CF910895CF93DF931F921F92CDB7DEB7C8
:101CD0009A83898327EC32E089819A81FC013183E0
:101CE000208300000F900F90DF91CF910895AF9265
:101CF000BF92CF92DF92EF92FF920F931F93CF93F9
:101D0000DF93CDB7DEB72D970FB6F894DEBF0FBEC9
:101D1000CDBF9A8389836B834C832D83EE82FF82B0
:101D200008871987AA86BB86CC86DD8689819A8139
:101D30002D814C816B81E3D989819A812C81FC01B1
:101D4000238B89819A81FC0174968E819F81A8855D
:101D5000B98569817A819C01AD01CF01F6D0898175
:101D60009A81FC017D968A859B85AC85BD856981BC
:101D70007A819C01AD01CF017ED200002D960FB675
:101D8000F894DEBF0FBECDBFDF91CF911F910F91B1
:101D9000FF90EF90DF90CF90BF90AF900895CF93DA
:101DA000DF931F921F92CDB7DEB79A838983898113
:101DB0009A8167E3F4D900000F900F90DF91CF91E3
:101DC0000895CF93DF9300D01F92CDB7DEB79A83EB
:101DD00089837C836B8389819A81FC018389882F25
:101DE00090E08C309105B1F08D3091051CF40B978B
:101DF00039F02EC085319105B9F04697F9F028C029
:101E00002BE030E08B819C81A9016EE972E00E9499
:101E1000F53628C02BE030E08B819C81A90164EA73
:101E200072E00E94F5361EC02BE030E08B819C8171
:101E3000A9016AEA72E00E94F53614C02BE030E096
:101E40008B819C81A90160EB72E00E94F5360AC08B
:101E50002BE030E08B819C81A90166EB72E00E944F
:101E6000F53600008BE090E02B813C81820F931FC0
:101E7000FC01108200000F900F900F900F90DF91E7
:101E8000CF910895CF93DF9300D01F92CDB7DEB7E7
:101E90009A8389837C836B8389819A81FC018389FE
:101EA000882F90E08C309105C1F08D3091051CF4A5
:101EB0000B9739F036C085319105D9F0469729F155
:101EC00030C02B813C8180E492E4AFE0B0E0F901C6
:101ED00084A395A3A6A3B7A330C02B813C8180E83F
:101EE00094E8AEE1B0E0F90184A395A3A6A3B7A35B
:101EF00024C02B813C8180E894E8AEE1B0E0F90198
:101F000084A395A3A6A3B7A318C02B813C8180E826
:101F100094E8AEE1B0E0F90184A395A3A6A3B7A32A
:101F20000CC02B813C8180E894E8AEE1B0E0F9017F
:101F300084A395A3A6A3B7A3000000000F900F9061
:101F40000F900F90DF91CF910895CF93DF93CDB78E
:101F5000DEB728970FB6F894DEBF0FBECDBF9A83C9
:101F600089837C836B832D833E834F83588789814C
:101F70009A81A8DE23EE32E089819A81FC013183C7
:101F8000208389819A812B813C81FC0134832383C6
:101F900029813A818D819E81AF81B885F901858340
:101FA0009683A783B087000028960FB6F894DEBF0B
:101FB0000FBECDBFDF91CF910895CF93DF9300D0B7
:101FC0001F92CDB7DEB79A8389837C836B838B8125
:101FD0009C8144E250E060E070E00E94D53684E2EB
:101FE00090E0A0E0B0E02B813C81F90180839183F7
:101FF000A283B38389819A81FC0185819681A7811F
:10200000B0852B813C81F90184839583A683B783B6
:102010002B813C818DE090E0A0E0B0E0F901808769
:102020009187A287B3870E942A30DC01CB012B81E4
:102030003C81F901808B918BA28BB38B89819A8132
:10204000FC018381948140E060E0D3D8DC01CB01C6
:102050002B813C81F901848B958BA68BB78B81E01A
:102060000F900F900F900F90DF91CF910895CF9325
:10207000DF9300D01F92CDB7DEB79A8389837C832C
:102080006B838B819C8148E250E060E070E00E94AD
:10209000D53689819A81FC01838194812B813C8191
:1020A000B9018FDE2B813C8181E090E0A0E0B0E0BF
:1020B000F90184879587A687B78789819A81FC0172
:1020C00085819681A781B0852B813C81F901808B28
:1020D000918BA28BB38B2B813C818DE090E0A0E0B3
:1020E000B0E0F901848B958BA68BB78B89819A819F
:1020F000FC01838194812B813C81B901C3DE8981FC
:102100009A81FC0183819481FC018389882F90E06E
:102110008C30910561F18D3091051CF40B9749F0DD
:102120008CC08531910509F444C0469709F463C019
:1021300084C02B813C8180E090E0A8E4B2E4F90106
:10214000808F918FA28FB38F8B819C81FC01148E25
:10215000158E168E178E2B813C8180E090E0A0E0DA
:10216000B0E4F90180A391A3A2A3B3A37CC02B8107
:102170003C8180E090E0A0E7B2E4F901808F918F8C
:10218000A28FB38F2B813C8180E090E0A0EAB1EC7C
:10219000F901848F958FA68FB78F2B813C8180E0CA
:1021A00090E0A0E0BFE3F90180A391A3A2A3B3A3B1
:1021B0005AC02B813C8180E090E0A0EAB2E4F901B2
:1021C000808F918FA28FB38F2B813C8180E090E034
:1021D000A0E2B2ECF901848F958FA68FB78F2B8187
:1021E0003C818DEC9CECACECBDE3F90180A391A3A8
:1021F000A2A3B3A338C02B813C8180E090E0AAEF7A
:10220000B2E4F901808F918FA28FB38F2B813C8133
:1022100080E090E0A0E2B2ECF901848F958FA68F68
:10222000B78F2B813C818DEC9CECACECBDE3F901CC
:1022300080A391A3A2A3B3A316C08B819C81FC01B0
:10224000108E118E128E138E8B819C81FC01148E48
:10225000158E168E178E8B819C81FC0110A211A207
:1022600012A213A2000000000F900F900F900F9089
:10227000DF91CF910895CF93DF93CDB7DEB7289745
:102280000FB6F894DEBF0FBECDBF9A8389837C83DF
:102290006B832D833E834F83588789819A8112DD1A
:1022A00025ED32E089819A81FC0131832083898187
:1022B0009A812B813C81FC013483238329813A81DB
:1022C0008D819E81AF81B885F90185839683A7832F
:1022D000B087000028960FB6F894DEBF0FBECDBFC2
:1022E000DF91CF910895CF93DF9300D01F92CDB7A8
:1022F000DEB79A8389837C836B838B819C8144E2E4
:1023000050E060E070E00E94D53684E290E0A0E00A
:10231000B0E02B813C81F90180839183A283B38358
:1023200089819A81FC0185819681A781B0852B8165
:102330003C81F90184839583A683B7832B813C81FB
:102340008CE090E0A0E0B0E0F90180879187A2875F
:10235000B3870E942A30DC01CB012B813C81F9013B
:10236000808B918BA28BB38B89819A81FC018381B5
:10237000948160E0CBD8DC01CB012B813C81F90159
:10238000848B958BA68BB78B81E00F900F900F906D
:102390000F90DF91CF910895CF93DF9300D01F92DC
:1023A000CDB7DEB79A8389837C836B838B819C81D5
:1023B00048E250E060E070E00E94D53689819A8161
:1023C000FC01838194812B813C81B901FADC2B8152
:1023D0003C8181E090E0A0E0B0E0F901848795873E
:1023E000A687B78789819A81FC0185819681A7811B
:1023F000B0852B813C81F901808B918BA28BB38BB3
:102400002B813C818CE090E0A0E0B0E0F901848B6E
:10241000958BA68BB78B89819A81FC0183819481EE
:102420002B813C81B9012EDD89819A81FC01838158
:102430009481FC018389882F90E08C30910581F193
:102440008D3091051CF40B9749F088C085319105BA
:1024500009F448C0469709F463C080C02B813C81D1
:1024600080E090E0A0EAB2E4F901808F918FA28F22
:10247000B38F2B813C8180E090E0A0EAB1E4F901C8
:10248000848F958FA68FB78F2B813C8180E090E061
:10249000A0EAB0E4F90180A391A3A2A3B3A374C0FE
:1024A0002B813C8180E090E0AEEBB2E4F901808FBB
:1024B000918FA28FB38F2B813C8180E090E0A0EAC6
:1024C000B1E4F901848F958FA68FB78F2B813C8162
:1024D00080E090E0A0EAB0E4F90180A391A3A2A378
:1024E000B3A352C02B813C8180E090E0A8ECB2E421
:1024F000F901808F918FA28FB38F8B819C81FC011A
:10250000148E158E168E178E2B813C818DEC9CECD3
:10251000ACECBDE3F90180A391A3A2A3B3A334C0A3
:102520002B813C8180E090E0A8ECB2E4F901808F3F
:10253000918FA28FB38F8B819C81FC01148E158E9D
:10254000168E178E2B813C818DEC9CECACECBDE3A0
:10255000F90180A391A3A2A3B3A316C08B819C8190
:10256000FC01108E118E128E138E8B819C81FC01CA
:10257000148E158E168E178E8B819C81FC0110A2F5
:1025800011A212A213A2000000000F900F900F9052
:102590000F90DF91CF910895CF93DF931F921F92F9
:1025A000CDB7DEB79A83898322E433E089819A81AB
:1025B000FC013183208389819A81FC01138212827C
:1025C00000000F900F90DF91CF910895CF93DF938C
:1025D0001F921F92CDB7DEB79A83898380E090E087
:1025E0000F900F90DF91CF910895CF93DF931F92BB
:1025F0001F92CDB7DEB79A83898300000F900F90AA
:10260000DF91CF910895CF93DF9300D0CDB7DEB7A0
:102610009A8389836B8389819A8141E06B81BAD1E6
:1026200081E090E00F900F900F90DF91CF9108958F
:10263000CF93DF9300D01F921F92CDB7DEB79A835E
:1026400089836B834C832D8389819A81A5DF21EF58
:1026500032E089819A81FC013183208389819A81CA
:102660002B81FC01248389819A812C81FC012187A3
:1026700089819A812D81FC01228789819A81FC01BF
:10268000138600000F900F900F900F900F90DF9126
:10269000CF910895CF93DF931F921F92CDB7DEB7EE
:1026A0009A83898389819A8106D000000F900F90C8
:1026B000DF91CF910895CF93DF931F921F92CDB7F3
:1026C000DEB79A8389838AEF94E00E946728898124
:1026D0009A81FC01158289819A81FC014285898158
:1026E0009A81FC01318589819A8120E0632F06D08F
:1026F00000000F900F90DF91CF910895CF93DF935B
:1027000000D01F921F92CDB7DEB79A8389836B8367
:102710004C832D838C81823050F089819A81FC0119
:102720008581282F286089819A81FC0125838981F0
:102730009A812C81FC0120878D81882369F08C810E
:10274000813051F489819A81FC018581282F246090
:1027500089819A81FC01258362E370E080E090E04A
:102760000E945B3089819A81FC01238589819A814D
:10277000622F58D168EE73E080E090E00E945B30F9
:1027800089819A8160E337D184E991E10E94943094
:1027900089819A8160E32FD184E991E10E9494308C
:1027A00089819A8160E327D186E990E00E94943084
:1027B00089819A8160E21FD189819A81FC0185819A
:1027C000282F206289819A81622FD0D089819A81B5
:1027D00024E0FC01268389819A818FD089819A81A6
:1027E0001BD089819A8122E0FC01278389819A810B
:1027F000FC018781282F246089819A81622FB6D0BD
:1028000089819A811FD000000F900F900F900F9038
:102810000F90DF91CF910895CF93DF931F921F9276
:10282000CDB7DEB79A83898389819A8161E09ED092
:1028300080ED97E00E94943000000F900F90DF91A0
:10284000CF910895CF93DF931F921F92CDB7DEB73C
:102850009A83898389819A8162E088D080ED97E0AC
:102860000E94943000000F900F90DF91CF91089557
:10287000CF93DF93CDB7DEB72C970FB6F894DEBFBA
:102880000FBECDBF9A8789876B874C8728E0EBEB1B
:10289000F2E0CE010196DC0101900D922A95E1F75C
:1028A00089859A85FC0190858C85981730F48985F7
:1028B0009A85FC01808581508C878C85882F90E0DB
:1028C000880F991F9E012F5F3F4F820F931FFC01BE
:1028D00080819181982F8B85890F8068282F898529
:1028E0009A85622F43D000002C960FB6F894DEBF75
:1028F0000FBECDBFDF91CF910895CF93DF931F928D
:102900001F92CDB7DEB79A83898389819A81FC01B2
:102910008681282F246089819A81FC012683898100
:102920009A81FC018681282F286089819A81622FF3
:102930001DD000000F900F90DF91CF910895CF939D
:10294000DF931F921F92CDB7DEB79A838983898167
:102950009A8128E0FC01238789819A8160E062D016
:1029600000000F900F90DF91CF910895CF93DF93E8
:1029700000D0CDB7DEB79A8389836B8389819A8132
:1029800040E06B8107D000000F900F900F90DF9117
:10299000CF910895CF93DF9300D000D0CDB7DEB7AD
:1029A0009C838B836D834E838D81807F89838D8112
:1029B000882F90E082959295907F9827807F982726
:1029C0008A8399818E81292F282B8B819C81622F6C
:1029D00012D09A818E81292F282B8B819C81622F86
:1029E0000AD0000026960FB6F894DEBF0FBECDBF0A
:1029F000DF91CF910895CF93DF9300D0CDB7DEB7AD
:102A00009A8389836B8389819A816B810BD08981B9
:102A10009A816B8130D000000F900F900F90DF9162
:102A2000CF910895CF93DF9300D0CDB7DEB79A83CF
:102A300089836B8389819A81FC018481682F8AEF65
:102A400094E00E943B2989819A81FC0193858B81C6
:102A5000892B882F90E0BC018AEF94E00E94460306
:102A60008AEF94E00E948F2900000F900F900F9042
:102A7000DF91CF910895CF93DF9300D0CDB7DEB72C
:102A80009A8389836B838B81282F246089819A8123
:102A9000622FC8DF81E090E00E9494308B81282F64
:102AA0002B7F89819A81622FBDDF82E390E00E94B3
:102AB000943000000F900F900F90DF91CF91089508
:102AC0000F93CF93DF93CDB7DEB728970FB6F89467
:102AD000DEBF0FBECDBF9A8389834B835C836D833A
:102AE0007E832F8308878B819C81AD81BE81E981A4
:102AF000FA8108852F81AC01BD01CF010BD0000008
:102B000028960FB6F894DEBF0FBECDBFDF91CF91F0
:102B10000F9108950F93CF93DF93CDB7DEB76597ED
:102B20000FB6F894DEBF0FBECDBF9F878E87488B50
:102B3000598B6A8B7B8B2C8B0D8B8E859F859A8313
:102B4000898388899989AA89BB898B839C83AD8372
:102B5000BE838C898F838D89888780E092E1AAE784
:102B6000B0E089879A87AB87BC871D868D858630C4
:102B7000E8F42B813C814D815E8189859A85AB8506
:102B8000BC85281739074A075B0780F489859A8531
:102B9000AB85BC85B695A7959795879589879A87C4
:102BA000AB87BC878D858F5F8D87E0CF8D85863025
:102BB00011F487E08D879D8581E089278D878F813E
:102BC000882311F480E701C080E598859C70292F47
:102BD000282B8D85882F90E0959587958370822B83
:102BE000282F89819A81FC0120838D85282F2170CF
:102BF00089819A81FC012183000065960FB6F894C3
:102C0000DEBF0FBECDBFDF91CF910F910895CF935F
:102C1000DF9300D0CDB7DEB79B838A8380913904E0
:102C2000882331F18FE590E0FC0180818983F8945D
:102C3000809139048130C9F48DE390E0FC018081FA
:102C400080933B048DE390E02DE330E0F901208197
:102C5000322F20913A0420952323FC0120838FE515
:102C600090E02981FC01208303C0898180933B048B
:102C70008CE490E02A81FC0120838DE490E02B819C
:102C8000FC01208300000F900F900F90DF91CF91F7
:102C90000895CF93DF931F92CDB7DEB789838EE47B
:102CA00090E02981FC01208300008DE490E0FC018C
:102CB00080818095881F8827881F882309F0F5CF99
:102CC0008EE490E0FC0180810F90DF91CF91089518
:102CD000CF93DF931F92CDB7DEB78091390488235D
:102CE000E1F08FE590E0FC0180818983F894809188
:102CF0003904813061F48DE390E020913B04FC01C4
:102D000020838FE590E02981FC01208306C08FE5B8
:102D100090E020913B04FC01208300000F90DF91A4
:102D2000CF910895CF93DF9300D01F92CDB7DEB738
:102D30009A8389836B834C8389819A812B81FC01DF
:102D4000248789819A812C81FC01258700000F90BE
:102D50000F900F900F90DF91CF9108950F93CF9325
:102D6000DF9300D000D0CDB7DEB79C838B836D831B
:102D70004E8300E021E040E050E0BA01CE01019630
:102D80009FDE89819A8143DF8B819C81FC01848550
:102D900060E00E9492318D818E777BDF8E8179DFBA
:102DA0008B819C81FC01848561E00E94923190DFDF
:102DB000000026960FB6F894DEBF0FBECDBFDF91A0
:102DC000CF910F9108950F93CF93DF93CDB7DEB7D7
:102DD00029970FB6F894DEBF0FBECDBF9D838C83BD
:102DE0006E834F8339872887CE01029600E021E069
:102DF00040E050E0BA0164DE8A819B8108DF8C816B
:102E00009D81FC01848560E00E9492318E818E77E5
:102E100040DF198299818F81981770F48981882FFA
:102E200090E028853985820F931FFC01808131DF76
:102E300089818F5F8983EECF8C819D81FC018485A0
:102E400061E00E94923144DF000029960FB6F894A9
:102E5000DEBF0FBECDBFDF91CF910F9108950F93CD
:102E6000CF93DF9300D000D0CDB7DEB79D838C83A6
:102E70006E83CE01029600E021E040E050E0BA010E
:102E80001FDE8A819B81C3DE8C819D81FC0184854C
:102E900060E00E9492318E818E778068FADE80E059
:102EA000F8DE89838C819D81FC01848561E00E942C
:102EB00092310EDF898126960FB6F894DEBF0FBEE1
:102EC000CDBFDF91CF910F9108950F931F93CF93B3
:102ED000DF93CDB7DEB72E970FB6F894DEBF0FBEE7
:102EE000CDBF998788876A874B873D872C870E8758
:102EF0008B85882309F47EC08A858E7780688C83D1
:102F00001982CE01069600E021E040E050E0BA01CF
:102F1000D7DD8E819F817BDE88859985FC01848544
:102F200060E00E9492318B8581508B878C81B1DE6D
:102F300099818B85981708F048C089818823A9F565
:102F40008E85882391F11A828E858B838B818830C0
:102F500090F48B81282F30E081E090E002C0880F50
:102F6000991F2A95E2F7982F8A81892B8A838B8172
:102F70008F5F8B83EBCF8C818CDE8D838981882F53
:102F800090E02C853D85820F931FFC018081982F56
:102F90008A81809589232D819A819223892B282FDC
:102FA0008C859D85FC0120830CC08981882F90E051
:102FB0002C853D858901080F191F8C816ADEF80177
:102FC000808389818F5F8983B3CF8981882F90E047
:102FD0002C853D858901080F191F80E05ADEF80114
:102FE000808388859985FC01848561E00E94923107
:102FF0006FDE01C000002E960FB6F894DEBF0FBE44
:10300000CDBFDF91CF911F910F910895CF93DF93A3
:1030100000D01F921F92CDB7DEB79B838A836C834B
:103020004D838A819B816C811ADF898399818D818F
:10303000292F282B8A819B81422F6C818FDE0000F3
:103040000F900F900F900F900F90DF91CF910895F8
:10305000CF93DF9300D01F921F92CDB7DEB79B8333
:103060008A836C834D838A819B816C81F8DE89839E
:103070008D81982F909589818923282F8A819B8122
:10308000422F6C816BDE00000F900F900F900F901D
:103090000F90DF91CF9108950F931F93CF93DF93FC
:1030A000CDB7DEB72A970FB6F894DEBF0FBECDBFFF
:1030B0009D838C837F836E8348873A8729878C81A1
:1030C0009D8140E062E04ADE8C819D8144E06AE0BF
:1030D00045DE8C819D8140E864E198DF2E813F814F
:1030E0008C819D81488562E16EDE8C819D8143E00B
:1030F00062E034DE88E893E19A8389838C819D8144
:103100006AE0ADDE8B838B81882F90E084709927F5
:10311000892B79F489819A8101979A83898321E0A7
:1031200089819A81892B09F020E0222339F383E0F9
:103130001BC000008C819D8140E062E00FDE8C812D
:103140009D8164E48CDE282F89859A85FC0120838B
:1031500089859A858C010F5F1F4F8C819D8162E468
:103160007EDEF801808380E02A960FB6F894DEBFF9
:103170000FBECDBFDF91CF911F910F910895CF93D7
:10318000DF931F921F92CDB7DEB79A83898389811F
:103190009A81FC01848561E00E94563189819A817F
:1031A000FC01848561E00E94923189819A81FC0151
:1031B000858561E00E94563189819A81FC0185856F
:1031C0000E94C03121E0892B09F020E0222371F018
:1031D00089819A81FC01858561E00E94923162E3D8
:1031E00070E080E090E00E945B3003C089819A81AA
:1031F00027D089819A8140E864E5B0DD89819A8190
:1032000049EA66E5ABDD89819A8143E068E5A6DDA0
:1032100089819A8148EE6AE5A1DD89819A8140E43D
:103220006AE29CDD89819A814DE362E297DD8981C2
:103230009A812ED000000F900F90DF91CF910895CA
:10324000CF93DF931F921F92CDB7DEB79A83898306
:1032500089819A814FE062E081DD62E370E080E085
:1032600090E00E945B3089819A8162E0F8DD882FCE
:1032700090E08071992721E0892B09F420E0222336
:1032800009F0F1CF00000F900F90DF91CF910895DA
:10329000CF93DF9300D0CDB7DEB79B838A838A813B
:1032A0009B8168E2DCDD89838981882F90E08370CF
:1032B0009927039741F08981282F23608A819B8178
:1032C000422F68E24BDD00000F900F900F90DF91CE
:1032D000CF9108958F92AF92BF92CF92DF92EF92EB
:1032E000FF920F931F93CF93DF93CDB7DEB72E9747
:1032F0000FB6F894DEBF0FBECDBF9B838A837D835C
:103300006C834E8338872F831A870987FC86EB8668
:10331000CD86AE8680E38983EB85FC8569857A85D9
:103320004F8158852C813D818A819B81AE85AF93E9
:103330008D845F016B017A010E8149816CE013D0AD
:103340000F902E960FB6F894DEBF0FBECDBFDF9163
:10335000CF911F910F91FF90EF90DF90CF90BF9092
:10336000AF908F9008958F92AF92BF92CF92DF92DD
:10337000EF92FF920F93CF93DF93CDB7DEB76897AD
:103380000FB6F894DEBF0FBECDBF9C878B876D87CD
:103390004E87388B2F87098BFB8AEA8ADD8ACC8A95
:1033A000BF8AAE8A888E8E899F89892B29F08E8963
:1033B0009F89FC01808101C080E08C83888D982FDB
:1033C0009295907F8C81890F8D838B859C8540E0C1
:1033D00062E0C4DC8B859C854FE768E0BFDC8B85B1
:1033E0009C8540E864E112DE2F8538898B859C85B9
:1033F000498962E1E8DC8B859C854D816AE1AEDC20
:103400008B859C854D8562E0A9DC8D858C3029F407
:103410008B859C8540E86AE1F9DD80ED97E09B8330
:103420008A838B859C8568E01ADD8E839E818E85DC
:1034300089238823C1F48E81882F90E08170992799
:10344000892B11F083E0B4C08A819B8101979B8313
:103450008A8321E08A819B81892B09F020E0222345
:1034600001F383E0A5C000008B859C856CE0F7DC50
:103470008F838F81882F90E083719927892B11F09A
:1034800081E096C08A899B89892B71F18C899D89FD
:10349000892B51F18B859C8564E1E1DC8E838C89DD
:1034A0009D89FC0190818E81981710F484E080C082
:1034B0008C899D892E81FC0120832A893B898B85FB
:1034C0009C85088D4E8162E100DD8B859C8568E1DD
:1034D000C6DC877089838E899F89892B29F08E8924
:1034E0009F892981FC0120838F81882F90E088703B
:1034F0009927892B11F082E05BC08A899B89892BEF
:1035000009F455C08C899D89892B09F450C08EA17E
:10351000882309F44CC08C899D89FC01808181300D
:1035200029F48981843011F48FEF42C08C899D8900
:10353000FC018081823018F08981882311F087E0B6
:1035400037C08C899D89FC0180814EEF480F9E0118
:10355000275F3F4F6A897B898B859C859DDD8887A6
:103560008885882311F0888523C08C899D89FC017A
:103570008081882F90E002972A893B89820F931FD0
:10358000FC0190818985981781F48C899D89FC01C3
:103590008081882F90E001972A893B89820F931FB1
:1035A000FC0190818A85981711F087E001C080E0C6
:1035B00068960FB6F894DEBF0FBECDBFDF91CF91F6
:1035C0000F91FF90EF90DF90CF90BF90AF908F90D2
:1035D0000895CF93DF9300D000D0CDB7DEB79A83A4
:1035E00089837C836B835E834D832D813E814B81F8
:1035F0005C8189819A8166E209D026960FB6F8949B
:10360000DEBF0FBECDBFDF91CF910895AF92CF92B5
:10361000EF92FF920F931F93CF93DF93CDB7DEB757
:1036200029970FB6F894DEBF0FBECDBF9C838B8366
:103630006D835F834E83398728878E819F81892B95
:1036400031F088859985FC018081823010F484E016
:103650002AC08B819C8140E86CE1FADC87E08A8398
:10366000FE013296488559852E813F81BE016B5FF0
:103670007F4F8B819C81A12CC12C7F018A0141E06D
:1036800029DE89838981882311F089810CC088858E
:103690009985FC018081823019F48A81882311F098
:1036A00081E001C080E029960FB6F894DEBF0FBE1E
:1036B000CDBFDF91CF911F910F91FF90EF90CF90F1
:1036C000AF900895AF92CF92EF92FF920F931F9316
:1036D000CF93DF93CDB7DEB7A1970FB6F894DEBFD7
:1036E0000FBECDBF9E8F8D8F78A36F8F49A381E0D2
:1036F0008C8389A1813510F086E029C28D8D9E8D45
:1037000040E86CE1A5DC19828981882309F014C2A4
:103710008C81882F90E082309105B1F08330910543
:1037200029F1019749F583E98A8B1F8289A18823B2
:1037300041F08F8D98A1FC018081853010F081E0EF
:1037400001C080E08B831AC085E98A8B83E08F8378
:1037500089A1882341F08F8D98A1FC018081883058
:1037600010F081E001C080E08B8308C087E98A8B7C
:1037700086E08F831B8202C085E0E9C18F81880FBC
:10378000880F880F99A1F92FF81B8F2F88878885BC
:1037900088230CF4188682E08E838B81882371F055
:1037A0008E8191E0980F9E83882F90E09E012E5E7F
:1037B0003F4F820F931F28E8FC01208388858823D0
:1037C0000CF4895F859585958595982F88858770F8
:1037D000882311F081E001C080E0890F8C878C85FF
:1037E000882399F18B81882311F083E001C084E064
:1037F0008E879C858E85891710F48E858C871D8217
:103800009D818C85981708F58E8191E0980F9E8395
:10381000882F90E02F81422F50E02D81222F30E021
:10382000240F351F4F8D58A1240F351F2F5F3F4F99
:10383000F90140819E012E5E3F4F820F931FFC01D4
:1038400040838D818F5F8D83DBCF8B81882319F03F
:103850008885885F88871A828A81882309F0F5C065
:10386000888580323CF180E78B8B9C898D899827F5
:103870008E8998278F898927888FCE0142969C014F
:10388000295F3F4FBE016E5E7F4F8D8D9E8D47E05D
:1038900003DC8F878F85882311F08F8558C11B8E9D
:1038A00089E08987CE01429606969B878A8783E0C6
:1038B0008C8F33C08885877888231CF48150886F6B
:1038C0008F5F8B8F888588230CF4895F859585951C
:1038D00085958D838D818E5F8E838E81982F9295B5
:1038E000907F8B8D890F8B8B8B8D882311F081E0DE
:1038F00001C080E09E81890F89878E81882F90E0AA
:103900009E012E5E3F4F820F931F9B878A8799E00F
:103910008E81F92FF81B8F2F8C8F8B8D888B888948
:10392000982F9295907F8B8D292F280F8D8D9E8DAE
:10393000422F6AE113DAFE017B96AE01445E5F4FCF
:103940002A853B85BE016E5E7F4F8D8D9E8DA12C9D
:10395000C8887F018A014985BDDC8F878F858230C9
:1039600009F065C08D8D9E8D6CE179DA898B89892E
:10397000882F90E080729927892B11F082E0E7C0B0
:1039800089898F718D878D85882311F480E28D87D9
:103990008D85282F30E08885082E000C990B821722
:1039A000930714F085E0D3C08D8588878885082E1D
:1039B000000C990B019787709078992324F4019754
:1039C000886F9F6F01968D83888588230CF4895FAB
:1039D000859585958595982F8D81882311F081E0B7
:1039E00001C080E0890F8F5F8E838E81882F90E0E9
:1039F0002E81222F30E0AE014E5E5F4F240F351F27
:103A0000F9012081622F2D81422F50E021E030E02A
:103A100002C0220F331F4A95E2F7262B422F9E0148
:103A20002E5E3F4F820F931FFC01408315CF8F8581
:103A3000882311F08F858BC0888580321CF081E04F
:103A40008A830ACF80E2888707CF8C89883811F46F
:103A500083E001C082E08E838C89883811F483E092
:103A600001C084E08C871D829D818C85981700F5AC
:103A70008F81282F30E08D81882F90E0820F931F57
:103A80002E8131E0320F3E83222F30E0AE014E5EB8
:103A90005F4F240F351FF90140812F8D38A1820F10
:103AA000931F0196FC0140838D818F5F8D83DCCF56
:103AB0008C8D833019F48B8D882311F081E047C001
:103AC000CE0142969C012E5F3F4F6A857B858D8D8E
:103AD0009E8D41E0E1DA8F878F85882311F08F85F5
:103AE00036C02C898A859B850196FC018081281728
:103AF00041F42D898A859B850296FC0180812817D7
:103B000011F087E024C08A859B85FC018081882F85
:103B100090E084709927892B21F08C818F5F8C83B2
:103B2000F3CD81E089838A859B85FC0120818F8D7F
:103B300098A1FC012387E8CD9C81892F880F890FEC
:103B400021E0280F8F8D98A1FC01208380E0A196B1
:103B50000FB6F894DEBF0FBECDBFDF91CF911F919E
:103B60000F91FF90EF90CF90AF900895CF93DF9398
:103B700000D000D0CDB7DEB79E838D8382E08C83EA
:103B8000AE014C5F5F4F9E012E5F3F4F8D819E8146
:103B9000B9011FDD89838981882319F089818230E9
:103BA00011F481E001C080E026960FB6F894DEBFE4
:103BB0000FBECDBFDF91CF910895CF93DF9300D09B
:103BC000CDB7DEB79B838A832A813B818A819B8123
:103BD00040E0B90177DD898381E09981992309F07B
:103BE00080E00F900F900F90DF91CF910895CF93C9
:103BF000DF9300D01F921F92CDB7DEB789837B83FE
:103C00006A835D834C838981882F90E08D5C9B4F14
:103C1000FC018081881F8827881F882331F08A81D2
:103C20009B81FC011182108272C08981282F30E0B3
:103C3000C901880F991F820F931F880F991F880F42
:103C4000991F9C018981882F90E08D5C9B4FFC011E
:103C50008081082E000C990B280F391F80913704A2
:103C6000882F90E0281739074CF58981282F30E0FC
:103C7000C901880F991F820F931F880F991F880F02
:103C8000991F9C018981882F90E08D5C9B4FFC01DE
:103C90008081082E000C990B280F391FC901880F4D
:103CA000991F820F931F8D559C4FFC01808186FBCD
:103CB000882780F9813011F481E001C080E08823F9
:103CC00031F18981282F30E0C901880F991F820FB7
:103CD000931F880F991F880F991F9C018981882F36
:103CE00090E08D5C9B4FFC018081082E000C990BAD
:103CF000280F391FC901880F991F820F931F8D55F7
:103D00009C4FFC0180818F7360E00E949231898119
:103D1000882F90E09C012D5C3B4FF90120812F5FA3
:103D20008D5C9B4FFC0120838981282F30E0C901E5
:103D3000880F991F820F931F880F991F880F991F53
:103D40009C018981882F90E08D5C9B4FFC018081D4
:103D5000082E000C990B280F391F80913704882FEB
:103D600090E0281739075CF48981882F90E08D5CFA
:103D70009B4FFC0180818C3014F481E001C080E015
:103D8000882309F47FC08A819B81FC014081518195
:103D90008981282F30E0C901880F991F820F931F56
:103DA000880F991F880F991F9C018981882F90E0A7
:103DB0008D5C9B4FFC018081082E000C990B280F15
:103DC000391FC901880F991F820F931F8C559C4F73
:103DD000FC01808191819A01280F391F8C819D817E
:103DE000FC01318320838981282F30E0C901880FAD
:103DF000991F820F931F880F991F880F991F9C018D
:103E00008981882F90E08D5C9B4FFC018081082E7A
:103E1000000C990B280F391FC901880F991F820FB9
:103E2000931F8D559C4FFC01808186FB882780F96C
:103E3000882309F451C08981282F30E0C901880FF7
:103E4000991F820F931F880F991F880F991F9C013C
:103E50008981882F90E08D5C9B4FFC018081082E2A
:103E6000000C990B280F391FC901880F991F820F69
:103E7000931F8D559C4FFC0180818F7361E00E94E0
:103E800092312AC08A819B81FC01808191810496B4
:103E900021E080349C4908F020E0222341F08C810D
:103EA0009D8120E43CE9FC01318320830DC08A819F
:103EB0009B81FC01808191819C012C5F3F4F8C8113
:103EC0009D81FC01318320838981882F90E08D5C66
:103ED0009B4F2FEFFC01208300000F900F900F905D
:103EE0000F900F90DF91CF9108951F920F92009045
:103EF0005F000F92112400905B000F922F933F936D
:103F00004F935F936F937F938F939F93AF93BF93E1
:103F1000EF93FF93CF93DF93CDB7DEB748E850E040
:103F200064E870E081E063DE0000DF91CF91FF91F3
:103F3000EF91BF91AF919F918F917F916F915F9121
:103F40004F913F912F910F9000925B000F90009244
:103F50005F000F901F9018951F920F9200905F00C6
:103F60000F92112400905B000F922F933F934F9379
:103F70005F936F937F938F939F93AF93BF93EF93D1
:103F8000FF93CF93DF93CDB7DEB748E950E064E904
:103F900070E082E02CDE0000DF91CF91FF91EF9185
:103FA000BF91AF919F918F917F916F915F914F9151
:103FB0003F912F910F9000925B000F9000925F0055
:103FC0000F901F9018951F920F9200905F000F9214
:103FD000112400905B000F922F933F934F935F93B8
:103FE0006F937F938F939F93AF93BF93EF93FF93C1
:103FF000CF93DF93CDB7DEB748EA50E064EA70E0D4
:1040000083E0F5DD0000DF91CF91FF91EF91BF914B
:10401000AF919F918F917F916F915F914F913F9160
:104020002F910F9000925B000F9000925F000F9015
:104030001F9018951F920F9200905F000F9211240D
:1040400000905B000F922F933F934F935F936F937A
:104050007F938F939F93AF93BF93EF93FF93CF93F0
:10406000DF93CDB7DEB748E251E064E271E080E073
:10407000BEDD0000DF91CF91FF91EF91BF91AF9135
:104080009F918F917F916F915F914F913F912F9170
:104090000F9000925B000F9000925F000F901F90B6
:1040A0001895CF93DF931F92CDB7DEB789838981AF
:1040B000813001F580E890E0FC01108281E890E019
:1040C00022E0FC01208384E890E0FC011182108250
:1040D00086E390E026E330E0F90120812260FC01D4
:1040E00020838FE690E02FE630E0F9012081226006
:1040F000FC01208389818230C1F480E990E0FC01D9
:10410000108281E990E022E0FC01208384E990E0C4
:10411000FC011182108288E390E022E0FC01208300
:1041200081E790E022E0FC01208389818330C1F4A3
:1041300080EA90E0FC01108281EA90E022E0FC013C
:10414000208384EA90E0FC011182108289E390E0F0
:1041500022E0FC01208382E790E022E0FC01208342
:1041600089818823C1F480E291E0FC01108281E220
:1041700091E022E0FC01208384E291E0FC011182C5
:1041800010828AE390E022E0FC01208383E790E044
:1041900022E0FC01208300000F90DF91CF91089571
:1041A000CF93DF931F921F92CDB7DEB78A83198218
:1041B00089818C3030F58A81282F30E0C901880F41
:1041C000991F820F931F880F991F880F991F9C01B9
:1041D0008981882F90E0280F391FC901880F991F06
:1041E000820F931F8D559C4FFC01808186FB882791
:1041F00080F9813011F481E005C089818F5F898366
:10420000D7CF80E00F900F90DF91CF910895CF939B
:10421000DF931F921F92CDB7DEB79A838983809177
:1042200037048033E8F42091370481E0820F8093D3
:10423000370489819A81FC01208389819A81FC015C
:104240008081282F30E0C901880F991F820F931FAA
:104250008C559C4F28EB3BE0FC013183208305C04B
:1042600089819A812FEFFC01208300000F900F902D
:10427000DF91CF910895CF93DF9300D01F92CDB7F8
:10428000DEB79A8389837C836B836B817C81898190
:104290009A8120E639E040E252E007D00F900F907B
:1042A0000F900F90DF91CF910895CF93DF93CDB70B
:1042B000DEB729970FB6F894DEBF0FBECDBF9B8344
:1042C0008A837D836C835F834E83398728878A81C5
:1042D0009B81FC018081803308F06BC08C8161E0A0
:1042E0000E9456318A819B81FC018081282F30E019
:1042F0008C81482F4F73C901880F991F820F931F1C
:104300008D559C4F242F2F73FC013081307C232B43
:10431000FC01208320E232E08E819F81A901481BAD
:10432000590BCA0199230CF4039695958795959599
:104330008795282F8A819B81FC01218320E639E023
:1043400088859985A901481B590BCA0199230CF44A
:1043500003969595879595958795282F8A819B81BA
:10436000FC0122838A819B81FC0190818BEA989FCA
:10437000812D11248695869586958983898110DF04
:10438000982F81E08927882311F089818ADE8A812C
:104390009B81FC018081282F30E0C901880F991F83
:1043A000820F931F8D559C4FFC0120812064FC01DE
:1043B00020838A819B81FC01808129960FB6F89425
:1043C000DEBF0FBECDBFDF91CF9108956F927F9278
:1043D0008F929F92AF92BF92CF92DF92EF92FF9215
:1043E0000F931F93CF93DF9300D01F92CDB7DEB70B
:1043F0009A8389837C836B838B819C8180329240FA
:104400000CF05CC08B819C81992314F41C821B826C
:104410008B819C81853B910524F084EB90E09C830B
:104420008B8389819A81FC018281082E000C990B73
:1044300028E532E0A901481B590BCA01880F991FD2
:10444000880F991F092E000CAA0BBB0B29813A81FA
:10445000F9012181022E000C330B48E850E0BA012B
:10446000621B730B9B01220F331F220F331F032E7E
:10447000000C440B550B6B817C813B01770F880846
:1044800099086B2F6F936A2F6F93692F6F938F9398
:1044900059016A0114EBE12EF12C00E010E020E05C
:1044A00030E0A901C401B3010E94E8310F900F90E0
:1044B0000F900F90DC01CB019C838B832B813C817F
:1044C00089819A81B90114D000000F900F900F904C
:1044D0000F90DF91CF911F910F91FF90EF90DF90A0
:1044E000CF90BF90AF909F908F907F906F900895E6
:1044F000CF93DF9300D000D0CDB7DEB79C838B8302
:104500007E836D838B819C81FC018081898389817D
:10451000803308F099C08B819C81FC018181082E39
:10452000000C990B28E830E0A901481B590BCA017F
:104530009C01220F331F220F331F8D819E81821712
:104540009307A4F48B819C81FC018181082E000CCF
:10455000990B28E830E0A901481B590BCA01880FC4
:10456000991F880F991F9E838D832AC08B819C8100
:10457000FC018281082E000C990B28E532E0A9018C
:10458000481B590BCA019C01220F331F220F331FF6
:104590008D819E81281739079CF48B819C81FC01B9
:1045A0008281082E000C990B28E532E0A901481BF6
:1045B000590BCA01880F991F880F991F9E838D83FD
:1045C0008D819E8102979E838D838D819E81092E90
:1045D000000CAA0BBB0B880F991FAA1FBB1F880FCB
:1045E000991FAA1FBB1F880F991FAA1FBB1F880FE7
:1045F000991FAA1FBB1FBB231CF40796A11DB11D49
:10460000689412F8B595A795979587951694D1F764
:104610009E838D838FE590E0FC0180818A83F894EE
:104620008981282F30E04D815E81C901880F991F53
:10463000820F931F8C559C4FFC01518340838FE563
:1046400090E02A81FC012083000026960FB6F894A2
:10465000DEBF0FBECDBFDF91CF9108952F923F9265
:104660004F925F926F927F928F929F92AF92BF9282
:10467000CF92DF92EF92FF920F931F93CF93DF932E
:104680001F921F92CDB7DEB79A83898389819A8161
:10469000FC018281082E000C990B28E532E0A9016B
:1046A000481B590BCA01880F991F880F991F1C01BD
:1046B000990F4408550889819A81FC018181082E4F
:1046C000000C990B28E830E0A901481B590BCA01DE
:1046D000880F991F880F991F3C01990F8808990826
:1046E00089819A8130D00196092E000CAA0BBB0B50
:1046F0001F921F921F9224EB2F93A12CB12C6501C6
:1047000082017101A4019301BC01CD010E94E83135
:104710000F900F900F900F90DC01CB010F900F9036
:10472000DF91CF911F910F91FF90EF90DF90CF908D
:10473000BF90AF909F908F907F906F905F904F90C1
:104740003F902F900895CF93DF9300D01F92CDB765
:10475000DEB79C838B838B819C81FC0180818F3FA2
:1047600001F18B819C81FC018081282F30E0C901FF
:10477000880F991F820F931F8C559C4FFC018081DD
:104780009181880F991F880F991F880F991F929503
:1047900082958F7089279F70892702969A838983D3
:1047A00002C01A82198289819A810F900F900F900E
:1047B0000F90DF91CF910895CF93DF93CDB7DEB700
:1047C0002F970FB6F894DEBF0FBECDBF8FE590E0F8
:1047D000FC0180818983F89480913804882309F052
:1047E0005BC089EC91E09B838A838A819B81FC0179
:1047F00084918C838C818D8383E891E09F838E8369
:104800008E819F81FC0184918887888589878D812D
:10481000882F90E0880F991F825F9D4F9B878A8722
:104820008A859B85FC0125913491CF013D872C879A
:104830009B878A878C859D859F878E878E859F85A0
:10484000FC0190818985982381E0992309F080E01B
:10485000882321F061E085E30E94923161E085E3E5
:104860000E9456318CE490E02CE430E0F901208184
:104870002061FC0120838CE490E02CE430E0F9011D
:1048800020812064FC01208361E084E30E94563192
:1048900061E083E30E945631809138048F5F8093FA
:1048A00038048FE590E02981FC01208300002F96D9
:1048B0000FB6F894DEBF0FBECDBFDF91CF91089544
:1048C0001092AF0481E08093AD041092AC0461E0DB
:1048D00084E10E94923161E085E10E949231E9EB2E
:1048E000F0E080818E7F808380818D7F808388E46B
:1048F0008093B80085E48093BC000895ECEBF0E071
:1049000080818A7B808360E084E10E94923160E054
:1049100085E10C94923140915E04262F30E0240F03
:10492000311D21323105DCF42091AF042430C9F46B
:10493000FC0180E090E0861758F430915E042191EC
:10494000DC01A05ABB4FA30FB11D2C930196F3CFEE
:1049500080915E04680F60935E0480E0089581E0BA
:10496000089582E008959093A3048093A20408958B
:104970009093A5048093A404089585EC8093BC00D3
:104980001092AF040895CF93DF9391E09093A70422
:10499000882351F0C091B800D091BA00AFDF90DF0A
:1049A000D093BA00C093B800DF91CF9108954F9291
:1049B0005F926F927F928F929F92AF92BF92CF92AF
:1049C000DF92EF92FF920F931F93CF93DF93F82E16
:1049D000162F072FC42FE22E413208F0BCC00E94D0
:1049E00036304B015C01D091AF04DD2329F1809179
:1049F000A8049091A904A091AA04B091AB04892BBA
:104A00008A2B8B2B81F30E9436304090A804509063
:104A1000A9046090AA047090AB04DC01CB01881952
:104A20009909AA09BB09481659066A067B06D8F6F1
:104A30008091A604A8DF8FC081E08093AF04E0924C
:104A4000AD049FEF90933C04109281049C0F9093CF
:104A500080048093AE049091AE048F2D880F892B33
:104A60008093AE048091AC04813089F51092AC043F
:104A70000E9436306B017C018091AE048093BB00B4
:104A80008091A8049091A904A091AA04B091AB04CC
:104A9000892B8A2B8B2BA9F00E9436308090A8049A
:104AA0009090A904A090AA04B090AB04DC01CB01C3
:104AB0008C199D09AE09BF0988169906AA06BB067E
:104AC00090F18091BC0083FDD7CF85EC01C085EECD
:104AD0008093BC000E9436306B017C018091AF0452
:104AE000813029F58091A8049091A904A091AA048D
:104AF000B091AB04892B8A2B8B2B81F30E9436302B
:104B00008090A8049090A904A090AA04B090AB044F
:104B1000DC01CB018C199D09AE09BF0988169906E5
:104B2000AA06BB06D8F68091A6042DDF15C0809199
:104B300081048C1710F4C0918104A2E8B4E0912F95
:104B4000E12FF02F8E2F891B8C1718F48D918193F4
:104B5000F9CFDC2F01C0D0E08D2FDF91CF911F91D5
:104B60000F91FF90EF90DF90CF90BF90AF909F900C
:104B70008F907F906F905F904F9008954F925F92CB
:104B80006F927F928F929F92AF92BF92CF92DF925D
:104B9000EF92FF920F931F93CF93DF93413208F070
:104BA000C5C0122FF42ED72EE62ED82F0E943630F5
:104BB0004B015C01C091AF04CC2311F18091A8049A
:104BC0009091A904A091AA04B091AB04892B8A2BDF
:104BD0008B2B81F30E9436304090A8045090A9049A
:104BE0006090AA047090AB04DC01CB01881999098C
:104BF000AA09BB09481659066A067B06D8F683C07F
:104C000082E08093AF040093AD048FEF80933C0467
:104C100010928104F09280049E2DA2E8B4E0EE2D63
:104C2000FD2D8E2F891B8F1518F481918D93F9CF4F
:104C30001092AE049091AE04DD0FD92BD093AE0448
:104C40008091AC04813089F51092AC040E9436301A
:104C50006B017C018091AE048093BB008091A8041D
:104C60009091A904A091AA04B091AB04892B8A2B3E
:104C70008B2BA9F00E9436308090A8049090A90454
:104C8000A090AA04B090AB04DC01CB018C199D0963
:104C9000AE09BF0988169906AA06BB06A0F1809145
:104CA000BC0083FDD7CF85EC01C085EE8093BC00AE
:104CB0000E9436306B017C01112351F18091AF04C9
:104CC000823031F58091A8049091A904A091AA04A2
:104CD000B091AB04892B8A2B8B2B71F30E94363059
:104CE0008090A8049090A904A090AA04B090AB046E
:104CF000DC01CB018C199D09AE09BF098816990604
:104D0000AA06BB06C8F68091A6043DDEC5E013C026
:104D100080913C048F3F79F080913C04803241F0D7
:104D200080913C04803331F0C4E005C0C1E003C091
:104D3000C2E001C0C3E08C2FDF91CF911F910F9192
:104D4000FF90EF90DF90CF90BF90AF909F908F90AB
:104D50007F906F905F904F90089585ED8093BC0099
:104D60008091A8049091A904A091AA04B091AB04E9
:104D70000796A11DB11D23E0B695A7959795879538
:104D80002A95D1F72091BC0024FF1BC04091A804B4
:104D90005091A9046091AA047091AB04452B462B55
:104DA000472B81F30097A105B10541F025E32A9532
:104DB000F1F700000197A109B109E4CF8091A604A1
:104DC000E2CD1092AF0408951F920F920FB60F928A
:104DD00011240BB60F922F933F934F935F936F93D2
:104DE0007F938F939F93AF93BF93EF93FF938091A4
:104DF000B900887F803609F49DC070F5883209F4C7
:104E00005CC090F4803109F455C038F4882309F46B
:104E1000F3C0883009F44EC0F2C0883109F44DC0A7
:104E2000803209F45EC0EBC0803409F469C050F4EC
:104E3000803309F456C0883309F0E1C080933C0404
:104E40009CDDDDC0803509F44FC0883509F45DC0B4
:104E5000883409F0D4C0D2C0883909F4C3C0A8F49A
:104E6000883709F467C038F4883609F463C080379E
:104E700009F460C0C4C0883809F4B4C0803909F4AA
:104E80005FC0803809F0BBC05BC0803B09F482C0C2
:104E900038F4803A09F466C0883A09F47BC0AFC0A0
:104EA000803C09F4A3C0883C09F4A0C0883B09F405
:104EB00086C0A5C08091AE0410C0909181048091FD
:104EC0008004981770F5E091810481E08E0F809343
:104ED0008104F0E0EE57FB4F80818093BB0085ECAE
:104EE00082C080933C048AC0E091810481E08E0FEF
:104EF000809381048091BB00F0E0EE57FB4F8083EC
:104F000090918104809180046AC0E091810481E0E5
:104F10008E0F809381048091BB00F0E0EE57FB4F31
:104F200080838091AD04811169C081E08093AC04DD
:104F300084EA5DC083E08093AF0410923D04CFCF3C
:104F400080913D04803208F04DC0E0913D0481E045
:104F50008E0F80933D048091BB00F0E0E25CFB4F3C
:104F60008083BDCF0ADD80913D04803230F4E09132
:104F70003D04F0E0E25CFB4F108260913D0470E084
:104F8000E091A204F091A3048EE394E019951092AD
:104F90003D0435C084E08093AF0410925F0410920A
:104FA0005E04E091A404F091A504199580915E043B
:104FB000811105C081E080935E0410926004E0914D
:104FC0005F0481E08E0F80935F04F0E0E05AFB4FB6
:104FD00080818093BB0090915F0480915E0498175C
:104FE00008F47DCF85E88093BC0009C085EC8093F0
:104FF000BC001092AF0403C010923C04AEDEFF91DF
:10500000EF91BF91AF919F918F917F916F915F9140
:105010004F913F912F910F900BBE0F900FBE0F90AD
:105020001F901895CF93DF9300D01F92CDB7DEB7B6
:105030009A8389837C836B8389819A812B813C81CC
:10504000FC013383228300000F900F900F900F908C
:10505000DF91CF910895CF93DF931F921F92CDB729
:10506000DEB79A83898389819A810E94CC122FE0CE
:1050700033E089819A81FC013183208329813A813F
:1050800088EE93E0A0E0B0E0F90184839583A683E5
:10509000B78300000F900F90DF91CF910895CF93C9
:1050A000DF931F921F92CDB7DEB79A8389838981E0
:1050B0009A81D1DF2DEF32E089819A81FC01318321
:1050C000208300000F900F90DF91CF910895CF9330
:1050D000DF931F921F92CDB7DEB79A838983109218
:1050E000D0041092D1041092F3041092F404E8DB7F
:1050F00086EE9AE23DDC89E99AE235DC00000F9009
:105100000F90DF91CF910895CF92EF920F931F935D
:10511000CF93DF93CDB7DEB72B970FB6F894DEBFF2
:105120000FBECDBF9B838A836C834D830E831F8309
:1051300028873987EA86CB868A858823D9F18A81B0
:105140009B816C8198D08A85843010F083E08A87B7
:105150008A859FEF980F9A8791E0882309F490E061
:10516000992321F18A819B81FC0180819181FC013D
:10517000208131818A85882F90E0AC01440F551F32
:10518000440F551F440F551F8E819F81A885B985F7
:1051900004C0B695A795979587954A95D2F7482F5D
:1051A0008A819B81642FF9011995D2CF8A819B81D5
:1051B00060E091D08D81813210F080E28D832B856B
:1051C0004D8160EB74E08C81F2DB89831092D00416
:1051D00089818093D10489812B960FB6F894DEBF24
:1051E0000FBECDBFDF91CF911F910F91EF90CF9068
:1051F0000895CF92EF920F931F93CF93DF9300D038
:105200001F921F92CDB7DEB79A8389836B834C833D
:105210002D8389819A81CD80E12C00E010E09801F6
:105220004C816B8171DF0F900F900F900F900F905A
:10523000DF91CF911F910F91EF90CF900895CF9371
:10524000DF9300D000D0CDB7DEB79A8389837C830B
:105250006B835E834D834D813B8189819A8121E0FF
:10526000632FC7DF26960FB6F894DEBF0FBECDBF03
:10527000DF91CF910895CF93DF9300D0CDB7DEB704
:105280009A8389836B8381E08093F5048B8180937B
:10529000D2041092F3041092F40400000F900F90C7
:1052A0000F90DF91CF910895CF93DF9300D01F929D
:1052B000CDB7DEB79A8389837C836B832B81898109
:1052C0009A81622FD8DF00000F900F900F900F90FF
:1052D000DF91CF9108950F93CF93DF9300D01F926A
:1052E000CDB7DEB79B838A836C839091F404809161
:1052F000D2040C8121E0492F63ED74E03FDC898307
:105300001092F3041092F4041092F50489810F9026
:105310000F900F900F90DF91CF910F910895CF9341
:10532000DF931F921F92CDB7DEB79A83898389815D
:105330009A8161E0D0DF0F900F90DF91CF910895B7
:10534000CF93DF9300D0CDB7DEB79A8389836B8389
:105350008091F5048823F9F08091F404803240F0C4
:1053600089819A8161E070E05DDE80E090E019C0A3
:105370008091F304882F90E02B818D529B4FFC018C
:1053800020838091F3048F5F8093F3048091F30472
:105390008093F40404C0CE01039661E0BCDA81E09E
:1053A00090E00F900F900F90DF91CF910895CF93E1
:1053B000DF93CDB7DEB728970FB6F894DEBF0FBEE8
:1053C000CDBF9C838B837E836D8358874F83809171
:1053D000F504882321F11A82198229813A818F816B
:1053E00098852817390700F58B819C81FC01808105
:1053F0009181FC01208131814D815E8189819A8179
:10540000840F951FFC0140818B819C81642FF901E1
:10541000199589819A8101969A838983DECF2F819C
:105420008D819E81622F77DA8F81988528960FB6BD
:10543000F894DEBF0FBECDBFDF91CF910895CF931B
:10544000DF931F921F92CDB7DEB79A838983809135
:10545000D104282F30E08091D004882F90E0A9015A
:10546000481B590BCA010F900F90DF91CF910895FF
:10547000CF93DF9300D01F92CDB7DEB79C838B8391
:105480008FEF9FEF9A8389839091D0048091D1040C
:10549000981788F48091D004882F90E080559B4F16
:1054A000FC018081882F90E09A8389838091D004C9
:1054B0008F5F8093D00489819A810F900F900F9015
:1054C0000F90DF91CF910895CF93DF9300D01F927B
:1054D000CDB7DEB79C838B838FEF9FEF9A83898351
:1054E0009091D0048091D104981760F48091D004F9
:1054F000882F90E080559B4FFC018081882F90E0A1
:105500009A83898389819A810F900F900F900F90D1
:10551000DF91CF910895CF93DF931F921F92CDB764
:10552000DEB79A83898300000F900F90DF91CF91AF
:105530000895CF93DF9300D01F921F92CDB7DEB7AF
:105540009B838A837D836C838091F8049091F90416
:10555000892B89F19091D0048091D104981768F13A
:1055600019828981282F30E08C819D812817390785
:10557000A4F48981882F90E02981222F30E04A818C
:105580005B81240F351FF901208180559B4FFC0161
:10559000208389818F5F8983E4CF1092D0048C812E
:1055A0008093D1042091F8043091F9048C819D817D
:1055B000F901199503C0000001C000000F900F9081
:1055C0000F900F900F90DF91CF910895CF93DF93BD
:1055D000CDB7DEB78091F6049091F704892B59F08E
:1055E0001092F3041092F4048091F6049091F70461
:1055F000FC01199501C00000DF91CF910895CF9370
:10560000DF9300D01F92CDB7DEB79A8389837C8366
:105610006B8389819A81019739F48B819C810196F2
:1056200019F48AEF94E03BDD00000F900F900F908B
:105630000F90DF91CF910895CF93DF93CDB7DEB771
:105640006FEF7FEF81E090E0DADFDF91CF91089597
:105650005058BB27AA270ED009C1FAD030F0FFD08E
:1056600020F031F49F3F11F41EF4EFC00EF4E095EA
:10567000E7FBE5C0E92F0BD180F3BA176207730788
:105680008407950718F071F49EF523C10EF4E09598
:105690000B2EBA2FA02D0B01B90190010C01CA01EC
:1056A000A0011124FF27591B99F0593F50F4503E97
:1056B00068F11A16F040A22F232F342F4427585F89
:1056C000F3CF469537952795A795F0405395C9F7A1
:1056D0007EF41F16BA0B620B730B840BBAF0915059
:1056E000A1F0FF0FBB1F661F771F881FC2F70EC0F8
:1056F000BA0F621F731F841F48F4879577956795CB
:10570000B795F7959E3F08F0B3CF9395880F08F0B3
:105710009927EE0F97958795089504D06894B11155
:10572000D9C00895BCD088F09F5790F0B92F992721
:10573000B751A0F0D1F0660F771F881F991F1AF09C
:10574000BA95C9F712C0B13081F0C3D0B1E0089565
:10575000C0C0672F782F8827B85F39F0B93FCCF3E6
:10576000869577956795B395D9F73EF49095809592
:10577000709561957F4F8F4F9F4F0895E89409C0B2
:1057800097FB3EF490958095709561957F4F8F4F74
:105790009F4F9923A9F0F92F96E9BB279395F6958A
:1057A000879577956795B795F111F8CFFAF4BB0F08
:1057B00011F460FF1BC06F5F7F4F8F4F9F4F16C06C
:1057C000882311F096E911C0772321F09EE8872FF6
:1057D000762F05C0662371F096E8862F70E060E0B2
:1057E0002AF09A95660F771F881FDAF7880F96952B
:1057F000879597F90895990F0008550FAA0BE0E8CF
:10580000FEEF16161706E807F907C0F01216130682
:10581000E407F50798F0621B730B840B950B39F4C2
:105820000A2661F0232B242B252B21F408950A2628
:1058300009F4A140A6958FEF811D811D089597F968
:105840009F6780E870E060E008959FEF80EC089526
:1058500000240A941616170618060906089500244F
:105860000A9412161306140605060895092E0394C9
:10587000000C11F4882352F0BB0F40F4BF2B11F43D
:1058800060FF04C06F5F7F4F8F4F9F4F089557FD9C
:105890009058440F551F59F05F3F71F04795880F9E
:1058A00097FB991F61F09F3F79F087950895121635
:1058B00013061406551FF2CF4695F1DF08C01616E1
:1058C00017061806991FF1CF869571056105089492
:1058D0000895E894BB2766277727CB0197F90895A9
:1058E0000BD0C4CFB5DF28F0BADF18F0952309F04C
:1058F000A6CFABCF1124EECFCADFA0F3959FD1F393
:10590000950F50E0551F629FF001729FBB27F00D6D
:10591000B11D639FAA27F00DB11DAA1F649F6627C2
:10592000B00DA11D661F829F2227B00DA11D621F11
:10593000739FB00DA11D621F839FA00D611D221FCB
:10594000749F3327A00D611D231F849F600D211DAF
:10595000822F762F6A2F11249F5750408AF0E1F052
:1059600088234AF0EE0FFF1FBB1F661F771F881F9B
:1059700091505040A9F79E3F510570F060CFAACFDB
:105980005F3FECF3983EDCF3869577956795B79586
:10599000F795E7959F5FC1F7FE2B880F911D9695B0
:1059A000879597F9089527DF880B990B08950E9432
:1059B000C036FC01918D228D892F90E0805C9F4F35
:1059C000821B91098F7399270895FC01918D828D17
:1059D000981731F0828DE80FF11D858D90E00895C4
:1059E0008FEF9FEF0895FC01918D828D981761F0E4
:1059F000828DDF01A80FB11D5D968C91928D9F5F06
:105A00009F73928F90E008958FEF9FEF0895FC01B0
:105A1000538D448D252F30E0842F90E0821B930B13
:105A2000541710F0CF9608950197089583EA9EE2E7
:105A3000892B39F080E090E0892B19F084D1811115
:105A400025C080E090E0892B41F080E090E0892B38
:105A500021F00E94000081111CC080E090E0892BA1
:105A600041F080E090E0892B21F00E94000081113C
:105A700013C080E090E0892BA1F080E090E0892BBA
:105A800081F00E94000081110AC008950E94000068
:105A9000D8CF0E940000E1CF0E940000EACF0C9412
:105AA00000000895FC01848DDF01A80FB11DA35AE9
:105AB000BF4F2C91848D90E001968F739927848F2E
:105AC000A689B7892C93A089B1898C918370806451
:105AD0008C93938D848D981306C00288F389E02DF2
