S015000041746D656C4D656761323536302E73726563D5
S113000093C10000C2C10000C0C10000BEC1000015
S1130010BCC10000BAC10000B8C10000B6C10000F4
S1130020B4C10000B2C10000B0C10000AEC1000004
S1130030ACC10000AAC10000A8C10000A6C1000014
S1130040A4C10000A2C10000A0C100009EC1000024
S11300509CC100009AC1000098C100000C943B0BA5
S113006094C100000C94380A0C946E0A8EC10000EE
S11300708CC100008AC1000088C1000086C1000054
S113008084C1000082C1000080C100007EC1000064
S11300907CC100007AC1000078C1000076C1000074
S11300A074C1000072C1000070C100006EC1000084
S11300B06CC100006AC1000068C1000066C1000094
S11300C064C1000062C1000060C100005EC10000A4
S11300D05CC100005AC1000058C1000056C10000B4
S11300E054C10000760C790C680C6C0C720CB00CCA
S11300F07D0C810C870C8B0C8F0C950C990C9D0C32
S1130100B00CA30CA70CAB0C00407A10F35A00A05F
S1130110724E18090010A5D4E80000E876481700CC
S113012000E40B54020000CA9A3B000000E1F5050C
S1130130000080969800000040420F000000A08656
S113014001000000102700000000E8030000000088
S11301506400000000000A0000000000010000002C
S113016000002C76D888DC674F0823DFC1DFAE5946
S1130170E1B1B796E5E3E453C63AE651997696E8D9
S1130180E6C28426EB898C9B62ED407C6FFCEFBC5D
S11301909C9F40F2BAA56FA5F490055A2AF75C9388
S11301A06B6CF9676DC11BFCE0E40D47FEF520E6BE
S11301B0B500D0ED902E0300943577050080841EA1
S11301C0080000204E0A000000C80C333333330FFC
S11301D0986E12831141EF8D2114893BE65516CF99
S11301E0FEE6DB18D1844B381BF77C1D901DA4BBA5
S11301F0E424203284725E228100C9F124ECA1E55A
S11302003D2700000A0B02090C0D0E080703040128
S113021000000000000000000000000000000000DA
S113022000000000000000000000000000001211A7
S113023010000000000000000000000000000000AA
S11302400000000000000000010210202008081037
S11302502040102040800201020108040201010232
S1130260040810204080804020100804020180040B
S11302700201804020100804020108040201010266
S11302800408102040800102040810204080050565
S11302900505070508080808020202020A0A0808F8
S11302A00404040401010101010101010303030326
S11302B003030303040707070C0C0C0C0C0C0C0CB5
S11302C00202020206060606060606060B0B0B0BC6
S11302D00B0B0B0B000020002300260029002C0030
S11302E02F00320000010000030106010901000093
S11302F02200250028002B002E00310034000201CA
S11303000000050108010B01000021002400270062
S11303102A002D0030003300010100000401070110
S11303200A01E602A00A100311241FBECFEFD1E296
S1130330DEBFCDBF00E00CBF12E0A0E0B2E0E0E120
S1130340F6E200E00BBF02C007900D92A438B1079B
S1130350D9F723E0A4E8B2E001C01D92A436B207A5
S1130360E1F711E0C3E9D1E000E006C021970109FB
S1130370802FFE010E94620EC139D10780E0080778
S1130380A9F70E94CE0A0C94F7123ACE08950F935F
S11303901F93CF93DF93CDB7DEB7E1970FB6F894F1
S11303A0DEBF0FBECDBF26E040E855E260E070E05E
S11303B08AEB92E0FAD784E992E01ED404E912E0D1
S11303C0F80186898BA78AE492E09AA789A787898E
S11303D0908D9DA78CA7818D928DA38DB48D8EA7B2
S11303E09FA7A8ABB9ABBE016F5F7F4FCE018996C3
S11303F049D4F801878D8BA788E592E09AA789A74D
S113040080A191A19DA78CA782A193A1A4A1B5A12C
S11304108EA79FA7A8ABB9ABBE016F5F7F4FCE017C
S11304208996C1D46DA17EA18FA198A528EE33E051
S113043040E050E00E94460E2093900230939102D7
S11304404093920250939302E1960FB6F894DEBF64
S11304500FBECDBFDF91CF911F910F910895CF9221
S1130460DF92EF92FF92CF93DF93CDB7DEB7AD97D4
S11304700FB6F894DEBF0FBECDBF609190027091AD
S1130480910280919202909193020E94B60B809106
S1130490AA028FA38AE492E09EA38DA38091AB026B
S11304A09091AC0299A788A78091AD029091AE0279
S11304B0A091AF02B091B0028AA79BA7ACA7BDA739
S11304C0BE016F5F7F4FCE018596ECD2CD88DE886A
S11304D0EF88F88CA7019601C701B6015AD6882384
S11304E039F066E072E08AE892E00E94E00D12C002
S11304F022E0B701A601CE0185960E94F50DBE014A
S11305006B5D7F4F8AE892E00E94D50DCE018596FF
S11305100E941C0D8091B3028FA388E592E09EA3F4
S11305208DA38091B4029091B50299A788A7809178
S1130530B6029091B702A091B802B091B9028AA70D
S11305409BA7ACA7BDA7BE016F5F7F4FCE01859669
S1130550E2D2CD88DE88EF88F88CA7019601C70126
S1130560B60117D6882339F069E172E084E892E095
S11305700E94E00D12C022E0B701A601CE018596CB
S11305800E94F50DBE016B5D7F4F84E892E00E94EE
S1130590D50DCE0185960E941C0D6AE872E08AEBA7
S11305A092E00E942B0B64E872E08AEB92E00E94D6
S11305B02B0BAD960FB6F894DEBF0FBECDBFDF9107
S11305C0CF91FF90EF90DF90CF900895AF92BF92BC
S11305D0CF92DF92EF92FF920F931F93AA24AA94D3
S11305E0BA2C6501EE24EA94FE2C870126E04BE048
S11305F062E084E992E0C9D266E772E08AE892E0B8
S11306000E94860D66E772E084E892E01F910F91E4
S1130610FF90EF90DF90CF90BF90AF900C94860D39
S113062084E892E00E941C0D8AE892E00C941C0D70
S1130630DC0115966C93159716964C93169770E0FB
S1130640FB01E85BFD4FE4911796EC931797FB01D0
S1130650E257FD4F649118966C93189740E85EE357
S113066060E070E01D964D935D936D937C9350977D
S113067008951F93CF93DF93EC01162F62E08D81D1
S11306800E94B10C0E94850BDC01CB01805D974078
S1130690A109B10989879A87AB87BC871A8BDF9137
S11306A0CF911F910895CF92DF92EF92FF921F9303
S11306B0CF93DF93EC011F81662311F0912F01C0CA
S11306C090E0288530E0220F331F2C523D4FA0E0EC
S11306D0B0E0F90145915491FA0180818123AD0183
S11306E060E070E098130FC01196CD84DE84EF842F
S11306F0F8884C155D056E057F0558F33FEF2FEF25
S11307008FEF9FEF03C03A2F252FCB01632F722F5A
S1130710DF91CF911F91FF90EF90DF90CF900895DC
S11307208F929F92AF92BF92CF92DF92EF92FF92FD
S11307300F931F93CF93DF93CDB7DEB7C054D1404F
S11307400FB6F894DEBF0FBECDBF8C01F62EDDD7F9
S1130750F11016C0F801C184D284E384F4849B01AF
S1130760AC012C193D094E095F0969017A0130ED8C
S1130770C31637E0D306E104F10410F48189B3C051
S1130780F8016187728783879487148213821282A7
S11307901182108262E085810E94B10C61E070E0F8
S11307A080E090E0E3D761E0F80185810E94B10C1C
S11307B060E0F80185810E94ED0CF8018681855185
S11307C0823028F48CE494E00E94EF0B05C064E1CD
S11307D070E080E090E0CAD762E0F80185810E9471
S11307E0B10CF801828990E0FAD7F89460E0C8016E
S11307F05ADF6F3F7F4F8F4F9F4F21F4F801118ACB
S1130800789442C061E0C8014EDF6F3F7F4F8F4F45
S11308109F4FA1F39E012F5F3F4F79015E013FEB94
S1130820A31A3EEFB30A670160E0C8013CDFF6019A
S1130830608371838283938361E0C80134DFF601AE
S11308406483758386839783F8E0CF0ED11CCA1422
S1130850DB0451F7789420E030E0F7018080918048
S1130860A280B3804481558166817781FFEF8F1622
S11308709F06AF06BF0631F04F3F8FEF580768075A
S1130880780721F4F801118A80E02DC0F90183E092
S1130890F595E7958A95E1F7E00FF11F8081880FC0
S11308A084169506A606B70608F4816080832F5F38
S11308B03F4FF8E0EF0EF11C2832310571F6F801D4
S11308C0248130E04081818190E0840F911D428138
S11308D0840F911D4381840F911D9927281739078F
S11308E089F681E0818BC05CDE4F0FB6F894DEBFE1
S11308F00FBECDBFDF91CF911F910F91FF90EF906D
S1130900DF90CF90BF90AF909F908F900895CF923B
S1130910DF92EF92FF920F931F93CF93DF938C019B
S1130920C62F642FFDDE882309F46BC0F80186818D
S11309308C3009F43EC018F48B30B9F062C0855194
S1130940823008F05EC0F801D2816D2F6F7770E0BD
S1130950762F66278381682B80E090E005D32DEC09
S11309603CEC4CEC5DE3B2D33DC0F801628170E035
S113097080E090E0F9D26B017C01F801D381D7FFCC
S113098009C09B01AC0160E070E080E89FEB87D276
S11309906B017C016D2F6F7070E080E090E0E6D217
S11309A02DEC3CEC4CEC5DE391D3A701960178D29D
S11309B01BC0F801D28163816F7070E080E090E029
S11309C0D5D22DEC3CEC4CEC5DE380D36B017C0187
S11309D06D2F70E080E090E0C7D29B01AC01C701AD
S11309E0B6015ED2D7FD9058CC2379F026E636E6E0
S11309F046EE5FE36BD320E030E040E052E450D2B7
S1130A0004C060E070E080EC9FE7DF91CF911F911C
S1130A100F91FF90EF90DF90CF900895CF92DF92E7
S1130A20EF92FF92CF93DF93EC017ADE882369F192
S1130A308E818B3050F18D3088F08551823028F5CD
S1130A406881798176276727762780E090E08CD2C9
S1130A502DEC3CEC4CEC5DE339D31BC0698170E0B8
S1130A6080E090E083D22DEC3CEC4CEC5DE32ED3A3
S1130A706B017C01688170E080E090E077D29B019B
S1130A80AC01C701B6010CD204C060E070E080EC98
S1130A909FE7DF91CF91FF90EF90DF90CF90089583
S1130AA0089508950F931F93CF93DF938C01EB0167
S1130AB084E2FB0111928A95E9F784E290E0A0E0D8
S1130AC0B0E088839983AA83BB83F80185819681EA
S1130AD0A781B0858C839D83AE83BF838DE090E036
S1130AE0A0E0B0E088879987AA87BB870ED6688B79
S1130AF0798B8A8B9B8B40E060E0F8018381948141
S1130B0006DF6C8B7D8B8E8B9F8B81E0DF91CF9189
S1130B101F910F9108950F931F93CF93DF938C012F
S1130B20EB0184E2FB0111928A95E9F784E290E0FB
S1130B30A0E0B0E088839983AA83BB83F801858110
S1130B409681A781B0858C839D83AE83BF838CE01F
S1130B5090E0A0E0B0E088879987AA87BB87D5D5C5
S1130B60688B798B8A8B9B8B60E0F80183819481FD
S1130B7055DF6C8B7D8B8E8B9F8B81E0DF91CF91CA
S1130B801F910F91089516C515C54F925F926F92EC
S1130B907F929F92AF92BF92CF92DF92EF92FF9299
S1130BA00F931F93CF93DF93EC01942E41DD9B8A27
S1130BB08AE492E09D8B8C8BD88FCF8BE98EFA8E52
S1130BC00B8F1C8F88E592E09E8F8D8FD9A3C8A3CD
S1130BD0AAA2BBA2CCA2DDA2DF91CF911F910F915B
S1130BE0FF90EF90DF90CF90BF90AF909F907F9059
S1130BF06F905F904F90089567E33BCDCF93DF9361
S1130C00EB01FC0183898C3089F038F48B30C1F41A
S1130C104BE050E069E272E017C0853161F0863143
S1130C2079F44BE050E06BE372E00EC04BE050E02F
S1130C306FE272E009C04BE050E065E372E004C08B
S1130C404BE050E061E472E0CE010E949A101B86F2
S1130C50DF91CF910895FB01DC0153968C918C3088
S1130C6041F038F48B3029F480E492E4AFE0B0E052
S1130C7004C080E894E8AEE1B0E084A395A3A6A301
S1130C80B7A308950F931F93CF93DF938C01EB01C8
S1130C9088E2DB011D928A95E9F7F801838194814A
S1130CA0ADDF81E090E0A0E0B0E08C879D87AE8767
S1130CB0BF87F80185819681A781B085888B998B40
S1130CC0AA8BBB8B8DE090E0A0E0B0E08C8B9D8B79
S1130CD0AE8BBF8BBE0183819481BDDFD801139697
S1130CE0ED91FC91149783898C30F1F0A0F48B3052
S1130CF009F048C080E090E0A8E4B2E4888F998FBE
S1130D00AA8FBB8F1C8E1D8E1E8E1F8E80E090E0DE
S1130D10A0E0B0E432C08531E1F0863199F580E09D
S1130D2090E0AAEFB2E419C080E090E0A0E7B2E45A
S1130D30888F998FAA8FBB8F80E090E0A0EAB1ECF6
S1130D408C8F9D8FAE8FBF8F80E090E0A0E0BFE3DB
S1130D5014C080E090E0A0EAB2E4888F998FAA8F53
S1130D60BB8F80E090E0A0E2B2EC8C8F9D8FAE8FC1
S1130D70BF8F8DEC9CECACECBDE388A399A3AAA334
S1130D80BBA30CC0188E198E1A8E1B8E1C8E1D8E42
S1130D901E8E1F8E18A219A21AA21BA2DF91CF9138
S1130DA01F910F9108950F931F93CF93DF938C019D
S1130DB0EB0188E2DB011D928A95E9F7F801838152
S1130DC094811CDF81E090E0A0E0B0E08C879D87F7
S1130DD0AE87BF87F80185819681A781B085888B0E
S1130DE0998BAA8BBB8B8CE090E0A0E0B0E08C8B5D
S1130DF09D8BAE8BBF8BBE01838194812CDFD80188
S1130E001396ED91FC91149783898C3069F038F432
S1130E108B30A1F580E090E0A0EAB2E409C085310E
S1130E20C1F08631B1F02AC080E090E0AEEBB2E4CC
S1130E30888F998FAA8FBB8F80E090E0A0EAB1E4FD
S1130E408C8F9D8FAE8FBF8F80E090E0A0EAB0E4DE
S1130E5010C080E090E0A8ECB2E4888F998FAA8F4C
S1130E60BB8F1C8E1D8E1E8E1F8E8DEC9CECACECED
S1130E70BDE388A399A3AAA3BBA30CC0188E198EA3
S1130E801A8E1B8E1C8E1D8E1E8E1F8E18A219A2EA
S1130E901AA21BA2DF91CF911F910F910895505870
S1130EA0BB27AA270ED0D8C0C9D030F0CED020F0AE
S1130EB031F49F3F11F41EF4BEC00EF4E095E7FB3D
S1130EC0B4C0E92FDAD080F3BA1762077307840736
S1130ED0950718F071F49EF5F2C00EF4E0950B2E10
S1130EE0BA2FA02D0B01B90190010C01CA01A00178
S1130EF01124FF27591B99F0593F50F4503E68F1D3
S1130F001A16F040A22F232F342F4427585FF3CF13
S1130F10469537952795A795F0405395C9F77EF4E4
S1130F201F16BA0B620B730B840BBAF09150A1F02D
S1130F30FF0FBB1F661F771F881FC2F70EC0BA0FB3
S1130F40621F731F841F48F4879577956795B7953B
S1130F50F7959E3F08F0B3CF9395880F08F0992733
S1130F60EE0F979587950895E89409C097FB3EF492
S1130F7090958095709561957F4F8F4F9F4F9923E2
S1130F80A9F0F92F96E9BB279395F6958795779560
S1130F906795B795F111F8CFFAF4BB0F11F460FF20
S1130FA01BC06F5F7F4F8F4F9F4F16C0882311F078
S1130FB096E911C0772321F09EE8872F762F05C08C
S1130FC0662371F096E8862F70E060E02AF09A9527
S1130FD0660F771F881FDAF7880F9695879597F91C
S1130FE00895990F0008550FAA0BE0E8FEEF1616B6
S1130FF01706E807F907C0F012161306E407F50709
S113100098F0621B730B840B950B39F40A2661F07C
S1131010232B242B252B21F408950A2609F4A1401F
S1131020A6958FEF811D811D089597F99F6780E82C
S113103070E060E008959FEF80EC089500240A9426
S11310401616170618060906089500240A9412169F
S11310501306140605060895092E0394000C11F4D2
S1131060882352F0BB0F40F4BF2B11F460FF04C07F
S11310706F5F7F4F8F4F9F4F089557FD9058440FD8
S1131080551F59F05F3F71F04795880F97FB991FE3
S113109061F09F3F79F087950895121613061406A0
S11310A0551FF2CF4695F1DF08C01616170618062D
S11310B0991FF1CF86957105610508940895E89408
S11310C0BB2766277727CB0197F908950BD0C4CFA8
S11310D0B5DF28F0BADF18F0952309F0A6CFABCF1F
S11310E01124EECFCADFA0F3959FD1F3950F50E002
S11310F0551F629FF001729FBB27F00DB11D639FC6
S1131100AA27F00DB11DAA1F649F6627B00DA11D6B
S1131110661F829F2227B00DA11D621F739FB00D11
S1131120A11D621F839FA00D611D221F749F332781
S1131130A00D611D231F849F600D211D822F762F1A
S11311406A2F11249F5750408AF0E1F088234AF017
S1131150EE0FFF1FBB1F661F771F881F9150504063
S1131160A9F79E3F510570F060CFAACF5F3FECF323
S1131170983EDCF3869577956795B795F795E7954F
S11311809F5FC1F7FE2B880F911D9695879597F960
S1131190089527DF880B990B0895FC01918D228D0A
S11311A0892F90E0805C9F4F821B91098F73992750
S11311B00895FC01918D828D981731F0828DE80F8E
S11311C0F11D858D90E008958FEF9FEF0895FC0148
S11311D0918D828D981761F0828DDF01A80FB11D6A
S11311E05D968C91928D9F5F9F73928F90E008958E
S11311F08FEF9FEF0895FC01538D448D252F30E030
S1131200842F90E0821B930B541710F0CF9608950F
S11312100197089587E99AE0892B39F080E090E0FE
S1131220892B19F084D1811125C080E090E0892BAD
S113123041F080E090E0892B21F00E9400008111B0
S11312401CC080E090E0892B41F080E090E0892B85
S113125021F00E940000811113C080E090E0892BEE
S1131260A1F080E090E0892B81F00E9400008111C0
S11312700AC008950E940000D8CF0E940000E1CF68
S11312800E940000EACF0C9400000895FC01848DB4
S1131290DF01A80FB11DA35ABF4F2C91848D90E09C
S11312A001968F739927848FA689B7892C93A08977
S11312B0B1898C91837080648C93938D848D981301
S11312C006C00288F389E02D80818F7D8083089594
S11312D0EF92FF920F931F93CF93DF93EC0181E082
S11312E0888F9B8D8C8D981305C0E889F98980813E
S11312F085FD25C0F62E0B8D10E00F5F1F4F0F7379
S11313001127E02E8C8DE8120BC00FB607FCFACF24
S1131310E889F989808185FFF5CFCE01B7DFF2CF67
S11313208B8DFE01E80FF11DE35AFF4FF0829FB74A
S1131330F8940B8FEA89FB89808180620AC09FB789
S1131340F894EE89FF896083E889F9898081837044
S1131350806480839FBF81E090E0DF91CF911F91F3
S11313600F91FF90EF900895CF93DF93EC01888D58
S11313708823C1F0EA89FB89808185FD05C0A8899D
S1131380B9898C9186FD0EC00FB607FCF5CF80811C
S113139085FFF2CFA889B9898C9185FFEDCFCE0165
S11313A075DFE8CFDF91CF910895CF92DF92EF926E
S11313B0FF921F93CF93DF93EC016A017B01122FFD
S11313C0E889F98982E080834115514E61057105F0
S11313D0A9F060E079E08DE390E0A701960134D4B0
S11313E0DA01C9010197A109B109B695A7959795A5
S11313F087959C01211580E13807A0F0E889F989D7
S1131400108260E874E88EE190E0A70196011CD494
S1131410DA01C9010197A109B109B695A795979574
S113142087959C01EC85FD853083EE85FF852083BF
S1131430188EEC89FD891083EA89FB89808180619B
S11314408083EA89FB89808188608083EA89FB89BB
S1131450808180688083EA89FB8980818F7D808395
S1131460DF91CF911F91FF90EF90DF90CF9008957F
S11314701F920F920FB60F9211240BB60F922F9357
S11314808F939F93EF93FF93E091CA02F091CB0265
S11314908081E091D002F091D10282FD12C090814E
S11314A08091D3028F5F8F732091D402821751F001
S11314B0E091D302F0E0E654FD4F958F8093D30280
S11314C001C08081FF91EF919F918F912F910F9097
S11314D00BBE0F900FBE0F901F9018951F920F9286
S11314E00FB60F9211240BB60F922F933F934F9385
S11314F05F936F937F938F939F93AF93BF93EF9378
S1131500FF938AEB92E0C2DEFF91EF91BF91AF911E
S11315109F918F917F916F915F914F913F912F9107
S11315200F900BBE0F900FBE0F901F9018958AEB73
S113153092E033DE21E0892B09F420E0822F089524
S1131540EAEBF2E01382128288EE93E0A0E0B0E0CE
S113155084839583A683B78386E692E09183808310
S113156085EC90E09587848784EC90E09787868764
S113157080EC90E0918B808B81EC90E0938B828B5C
S113158082EC90E0958B848B86EC90E0978B868B35
S1131590118E128E138E148E089508952BD1FDDFB3
S11315A00E94C701CAE0D9E00E942F022097E1F30C
S11315B031DEFACF46C4CF92DF92EF92FF920F93BF
S11315C01F93CF93DF936C017A018B01C0E0D0E0CD
S11315D0CE15DF0581F0D8016D918D01D601ED9115
S11315E0FC910190F081E02DC6011995892B11F031
S11315F02196EECF7E01C701DF91CF911F910F910C
S1131600FF90EF90DF90CF9008956115710579F008
S1131610FB0101900020E9F73197AF01461B570BFE
S1131620DC01ED91FC910280F381E02D199480E0BE
S113163090E00895DB0114964D915C9115976D919E
S11316407C91DC01ED91FC910280F381E02D1994F1
S113165064E772E0DACF0F931F93CF93DF93EC012B
S1131660E9DF8C01CE01F4DF800F911FDF91CF9170
S11316701F910F9108951F920F920FB60F9211248C
S11316802F933F938F939F93AF93BF93809158036E
S113169090915903A0915A03B0915B033091570381
S11316A023E0230F2D3720F40196A11DB11D05C0A1
S11316B026E8230F0296A11DB11D209357038093A2
S11316C0580390935903A0935A03B0935B038091FA
S11316D05C0390915D03A0915E03B0915F0301965A
S11316E0A11DB11D80935C0390935D03A0935E03E1
S11316F0B0935F03BF91AF919F918F913F912F91D1
S11317000F900FBE0F901F9018952FB7F89460910B
S113171058037091590380915A0390915B032FBF32
S113172008953FB7F89480915C0390915D03A09174
S11317305E03B0915F0326B5A89B05C02F3F19F047
S11317400196A11DB11D3FBFBA2FA92F982F88273D
S1131750820F911DA11DB11DBC01CD0142E0660F98
S1131760771F881F991F4A95D1F708958F929F92EA
S1131770AF92BF92CF92DF92EF92FF926B017C0106
S1131780D0DF4B015C01C114D104E104F104F1F098
S11317905AD2C7DFDC01CB0188199909AA09BB0910
S11317A0883E9340A105B10570F321E0C21AD10827
S11317B0E108F10888EE880E83E0981EA11CB11C94
S11317C0C114D104E104F10421F7DDCFFF90EF90BF
S11317D0DF90CF90BF90AF909F908F90089582300C
S11317E0910538F0880F991F880F991F0597019765
S11317F0F1F70895789484B5826084BD84B58160DE
S113180084BD85B5826085BD85B5816085BDEEE604
S1131810F0E0808181608083E1E8F0E010828081E3
S113182082608083808181608083E0E8F0E0808151
S113183081608083E1EBF0E0808184608083E0EB71
S1131840F0E0808181608083E1E9F0E08081826062
S11318508083808181608083E0E9F0E08081816021
S11318608083E1EAF0E0808182608083808181600E
S11318708083E0EAF0E0808181608083E1E2F1E04E
S1131880808182608083808181608083E0E2F1E0F6
S1131890808181608083EAE7F0E0808184608083D6
S11318A08081826080838081816080838081806880
S11318B080831092C100089590E0FC013197E231D9
S11318C0F10508F04DC08827EE58FF4F8F4FFAC13D
S11318D0809180008F7703C0809180008F7D8093FA
S11318E08000089580918000877FF9CF84B58F7739
S11318F002C084B58F7D84BD08958091B0008F7738
S113190003C08091B0008F7D8093B00008958091D2
S113191090008F7707C0809190008F7D03C08091E5
S11319209000877F8093900008958091A0008F7726
S113193007C08091A0008F7D03C08091A000877FA5
S11319408093A0000895809120018F7707C0809133
S113195020018F7D03C080912001877F8093200127
S11319600895CF93DF9390E0FC01E85BFD4F249151
S1131970FC01E257FD4F8491882361F190E0880FC8
S1131980991FFC01E85FFC4FC591D491FC01E25121
S1131990FD4FA591B491611109C09FB7F894888156
S11319A0209582238883EC912E230BC0623061F44E
S11319B09FB7F8948881322F309583238883EC91E4
S11319C02E2B2C939FBF06C08FB7F894E8812E2B43
S11319D028838FBFDF91CF9108951F93CF93DF9317
S11319E0282F30E0F901EE5FFD4F8491F901E85BA7
S11319F0FD4FD491F901E257FD4FC491CC23B9F0C6
S1131A00162F811159DFEC2FF0E0EE0FFF1FE2518A
S1131A10FD4FA591B4919FB7F894111104C08C9116
S1131A20D095D82302C0EC91DE2BDC939FBFDF91CD
S1131A30CF911F9108950895FC01808191810097B1
S1131A4009F0FFC10895CF93DF93EC018881998158
S1131A50009709F0F6D1198218821D821C821B821C
S1131A601A82DF91CF9108950F931F93CF93DF9341
S1131A70EC018B016F5F7F4F888199816BD2009756
S1131A8031F0998388831B830A8381E001C080E05D
S1131A90DF91CF911F910F910895CF93DF93EC01C4
S1131AA088819981892B29F08A819B8186179707E0
S1131AB058F4CE01D9DF882341F08C819D81892B94
S1131AC019F4E881F981108281E0DF91CF910895C2
S1131AD0EF92FF920F931F93CF93DF93EC017B015F
S1131AE08A01BA01DADF811103C0CE01ACDF06C07E
S1131AF01D830C83B7018881998115D3CE01DF91B1
S1131B00CF911F910F91FF90EF900895FC011182E6
S1131B10108213821282158214826115710549F0B4
S1131B20FB0101900020E9F73197AF01461B570BE9
S1131B30CFCF08950F931F93CF93DF938C01EB01C5
S1131B40FC01808191810097C1F0688179816115E0
S1131B50710591F02BE13DE0232B71F0428153811B
S1131B602C813D814217530738F0DDD28C819D8151
S1131B70F8019583848312C064D188819981F80126
S1131B80918380838A819B81938382838C819D81CD
S1131B9095838483198218821B821A821D821C8277
S1131BA0DF91CF911F910F910895CF93DF93EC01B3
S1131BB06817790709F0BEDFCE01DF91CF91089550
S1131BC0CF93DF93EC016115710551F0FB01019096
S1131BD00020E9F73197AF01461B570B79DF01C0AD
S1131BE032DFCE01DF91CF910895EF92FF920F93F0
S1131BF01F93CF93DF93CDB7DEB7A1970FB6F894B9
S1131C00DEBF0FBECDBF7C01CB01BA01F70111824B
S1131C101082138212821582148242E0420F8E01D6
S1131C200F5F1F4F57D0BC01C701CADFA1960FB683
S1131C30F894DEBF0FBECDBFDF91CF911F910F91FE
S1131C40FF90EF9008950895A1E21A2EAA1BBB1BE2
S1131C50FD010DC0AA1FBB1FEE1FFF1FA217B30774
S1131C60E407F50720F0A21BB30BE40BF50B661F8A
S1131C70771F881F991F1A9469F76095709580954E
S1131C8090959B01AC01BD01CF010895052E97FBF2
S1131C9016F400940FD057FD05D0D6DF07FC02D010
S1131CA046F408C050954095309521953F4F4F4FCD
S1131CB05F4F089590958095709561957F4F8F4FF4
S1131CC09F4F0895EE0FFF1F881F8BBF0790F6915B
S1131CD0E02D1994EF920F931F93CF93DF93E801B4
S1131CE047FD02C034E001C034E1042E000C550B62
S1131CF057FF03C0519541955109E32E022F242F1C
S1131D00AE0127D2CE01DF91CF911F910F91EF90B9
S1131D1008950F931F93CF93DF938230910510F4AE
S1131D2082E090E0E0916203F091630320E030E010
S1131D30A0E0B0E0309719F1408151810281138114
S1131D4048175907C8F08417950769F4109731F0BC
S1131D5012960C93129713961C9327C00093620358
S1131D601093630322C02115310519F0421753075C
S1131D7018F49A01BD01EF01DF01F801DBCF211551
S1131D803105F9F0281B390B2430310580F48A81A0
S1131D909B816115710521F0FB019383828304C04B
S1131DA09093630380936203FE01329644C0FE0164
S1131DB0E20FF31F819391932250310939832883D1
S1131DC03AC02091600330916103232B41F42091A8
S1131DD00202309103023093610320936003209147
S1131DE00002309101022115310541F42DB73EB7AF
S1131DF04091040250910502241B350BE0916003CD
S1131E00F0916103E217F307A0F42E1B3F0B281790
S1131E10390778F0AC014E5F5F4F2417350748F05F
S1131E204E0F5F1F5093610340936003819391931E
S1131E3002C0E0E0F0E0CF01DF91CF911F910F915C
S1131E400895CF93DF93009709F481C0FC01329782
S1131E5013821282A0916203B0916303109781F4FC
S1131E6020813181820F931F20916003309161039F
S1131E702817390751F5F0936103E093600367C0B5
S1131E80ED0120E030E0CE17DF0740F44A815B81AA
S1131E909E0141155105F1F0EA01F5CFD383C283C8
S1131EA040815181840F951FC817D90759F488813F
S1131EB09981840F951F0296918380838A819B81E7
S1131EC0938382832115310529F4F0936303E0930E
S1131ED062033DC0E901FB83EA8349915991C40F30
S1131EE0D51FEC17FD0761F480819181840F951F44
S1131EF00296E90199838883828193819B838A83F3
S1131F00E0E0F0E012968D919C911397009719F000
S1131F10FD01DC01F7CF8D919C9111979D012E5FFE
S1131F203F4F820F931F2091600330916103281764
S1131F30390769F4309729F410926303109262030D
S1131F4002C013821282B0936103A0936003DF91F5
S1131F50CF9108956F927F928F929F92AF92BF928A
S1131F60CF92DF92EF92FF920F931F93CF93DF9361
S1131F70009781F4CB01DF91CF911F910F91FF90D6
S1131F80EF90DF90CF90BF90AF909F908F907F9015
S1131F906F90BFCEFC01E60FF71F9C012250310960
S1131FA0E217F30708F4A5C0EC01D9010D911C91C7
S1131FB0119706171707A8F00530110508F497C004
S1131FC0C80104978617970708F491C002501109B5
S1131FD0061B170B019311936D937C93CF0131DF93
S1131FE086C05B01A01AB10A4C01800E911EA0911B
S1131FF06203B0916303612C712CE12CF12C1097D6
S113200009F446C08D919C911197A815B905B1F5B5
S11320106C0142E0C40ED11CCA14DB0478F14C01FB
S11320208A189B08640142E0C40ED11C1296BC902D
S113203012971396AC91B5E0CB16D10440F0B2825E
S1132040A38391828082D9016D937C9309C00E5F32
S11320501F4F800F911FF90191838083EB2DFA2F7D
S1132060E114F10431F0D7011396FC93EE93129727
S11320703EC0F0936303E093620339C068167906A7
S113208008F43C017D0112960D90BC91A02DB7CFB0
S1132090809160039091610388169906E1F46616B5
S11320A07706C8F48091000290910102009741F4F0
S11320B08DB79EB74091040250910502841B950B85
S11320C0E817F907B0F4F0936103E0936003F901B2
S11320D0718360830CC0CB011CDE7C01009749F046
S11320E0A801BE0117D0CE01ACDEC70104C0CE01E9
S11320F002C080E090E0DF91CF911F910F91FF909B
S1132100EF90DF90CF90BF90AF909F908F907F9093
S11321106F900895FB01DC0102C001900D924150C3
S11321205040D8F70895FB01DC0101900D92002086
S1132130E1F70895FB01DC014150504048F0019063
S11321400D920020C9F701C01D9241505040E0F7A4
S113215008958F929F92AF92BF92CF92DF92EF92A7
S1132160FF920F931F93CF93DF93CDB7DEB72997D9
S11321700FB6F894DEBF0FBECDBF6A01122FB02E8A
S11321802BE3201720F0FF24F394F00E02C02CE37D
S1132190F22E0F2D27E0AE014F5F5F4F50D1BC01EF
S11321A04981842F8970813031F0E1FC06C0E0FE62
S11321B006C090E205C09DE203C09BE201C090E02E
S11321C05E2D507143FF3CC0911102C083E001C0F9
S11321D084E0811718F4212F281B01C020E051113D
S11321E00BC0F601822F30E2882319F0319381501D
S11321F0FBCFC20ED11C20E0992329F0D6019C9379
S1132200F60131966F01C6010396E2FE0AC03EE470
S1132210D6013C9341E411964C93119712963C934A
S113222006C03EE6F601308341E641833283FC0179
S1132230322F40E2332309F442C041933150FACFA4
S113224042FF44C0911102C083E001C084E08117C1
S113225018F4212F281B01C020E051110BC0F601F6
S1132260822F30E2882319F031938150FBCFC20EC4
S1132270D11C20E0992329F0D6019C93F6013196D4
S11322806F01C6010396E2FE0BC039E4D6013C930C
S11322903EE411963C93119736E412963C9307C0A2
S11322A039E6F60130833EE6318336E63283FC01BB
S11322B0322F40E2332319F041933150FBCFFC011C
S11322C0E20FF11D10828EEF9FEFA6C021E030E0F7
S11322D0911102C020E030E0161617061CF4FB0131
S11322E0319602C0E1E0F0E02E0F3F1FBB2021F049
S11322F0EB2DF0E0319602C0E0E0F0E02E0F3F1F3E
S1132300E12FF0E02E173F071CF4121B212F01C010
S113231020E08E2D887159F4F601822F30E2882353
S113232019F031938150FBCFC20ED11C20E09923C8
S113233029F0D6019C93F60131966F0151110BC01F
S1132340F601822F90E3882319F091938150FBCFFB
S1132350C20ED11C20E00F2D060F9A81342F30714C
S113236044FF03C0913309F40150101624F40930DA
S113237018F008E001C001E0AB0177FF02C040E0C3
S113238050E0FB01E41BF50BA1E0B0E0AC0FBD1F76
S1132390EA0FFB1F8EE2A82E4B01801A91080B2D29
S11323A010E01195019511094F3FBFEF5B0721F430
S11323B0D601AC9211966D01641775072CF0841642
S11323C0950614F4818101C080E34150510931968E
S11323D0D60111967D014017510724F0D6018C9344
S11323E06701E2CF6417750739F4963320F4953307
S11323F019F4311101C081E3F6018083F701822FC2
S113240090E2882319F091938150FBCFF701E20FFA
S1132410F11D108280E090E029960FB6F894DEBF9B
S11324200FBECDBFDF91CF911F910F91FF90EF9021
S1132430DF90CF90BF90AF909F908F9008952830F9
S113244008F027E03327DA01990F311D87FD9160E9
S113245000966105710539F432602E5F3D9330E3D7
S11324602A95E1F708959F3F30F0803871056105A2
S113247009F03C5F3C5F3D93913008F08068911D0A
S1132480DF93CF931F930F93FF92EF92192F987FAF
S11324909695E92F96959695E90FFF27EE59FE4FED
S11324A099273327EE24FF24A701E7010590089418
S11324B0079428F4360FE71EF81E491F511D660FB6
S11324C0771F881F991F0694A1F70590079428F495
S11324D0E70EF81E491F561FC11D770F881F991F4D
S11324E0661F0694A1F70590079428F4F80E491F77
S11324F0561FC71FD11D880F991F661F771F06948B
S1132500A1F70590079420F4490F561FC71FD81F41
S1132510990F661F771F881F0694A9F78491109559
S1132520177041F0D695C79557954795F794E7945A
S11325301A95C1F7E8E0F1E068941590159135918A
S11325406591959105907FE27395E118F10A430B2B
S1132550560BC90BD009C0F7E10CF11E431F561FDF
S1132560C91FD01D7EF4703311F48A95E6CFE89428
S1132570015030F0080F0AF40027021708F4202F46
S11325802395022F7A3328F079E37D932A95E9F78E
S113259010C07D932A9589F606949795679537958B
S11325A017951794E118F10A430B560BC90BD00980
S11325B098F023957E9173957A3308F070E37C93B9
S11325C02013B8F77E9170617D9330F0839571E3A9
S11325D07D9370E32A95E1F71124EF90FF900F911A
S11325E01F91CF91DF91992787FD9095089511E070
S11325F0C3E9D1E000E005C0802FFE0163DB219632
S1132600011DC439D10780E00807B1F7F894FFCF62
S11326100000640320004572726F722074656D704F
S11326206572617475726521004572726F722068FB
S1132630756D6964697479210044485431310044EA
S11326404854313200444854323100444854323200
S1132650004448543F00000000005105C405C60171
S113266052054206000000005005C305C6018B0553
S1132670D306000000006809DB0AFB08B409CD0892
S1132680E708D9080D0A006E616E00696E66006F76
S10726907666000066
S9030000FC
