S015000041746D656C4D656761323536302E73726563D5
S113000016C1000045C1000043C1000041C1000009
S11300103FC100003DC100003BC1000039C10000E8
S113002037C1000035C1000033C1000031C10000F8
S11300302FC100002DC100002BC1000029C1000008
S113004027C1000025C1000023C1000021C1000018
S11300501FC100001DC100001BC100000C948C0EC8
S113006017C100000C94BF0D0C94F50D11C10000D4
S11300700FC100000DC100000BC1000009C1000048
S113008007C1000005C1000003C1000001C1000058
S1130090FFC00000FDC00000FBC000000C94770806
S11300A0F7C00000F5C00000F3C00000F1C000007C
S11300B0EFC00000EDC00000EBC00000E9C000008C
S11300C0E7C00000E5C00000E3C00000E1C000009C
S11300D0DFC00000DDC00000DBC00000D9C00000AC
S11300E0D7C00000C70FCA0FB90FBD0FC30F01104F
S11300F0CE0FD20FD80FDC0FE00FE60FEA0FEE0F92
S11301000110F40FF80FFC0F00000A0B02090C0D8C
S11301100E080703040100000000000000000000B6
S113012000000000000000000000000000000000CB
S11301300000000012111000000000000000000088
S113014000000000000000000000000000000102A8
S113015010202008081020401020408002010201D5
S1130160080402010102040810204080804020108D
S113017008040201800402018040201008040201E6
S1130180080402010102040810204080010204084E
S11301901020408005050505070508080808020227
S11301A002020A0A0808040404040101010101010D
S11301B001010303030303030303040707070C0CF0
S11301C00C0C0C0C0C0C02020202060606060606B7
S11301D006060B0B0B0B0B0B0B0B00002000230074
S11301E0260029002C002F0032000001000003012A
S11301F00601090100002200250028002B002E0022
S11302003100340002010000050108010B01000067
S11302102100240027002A002D00300033000101B2
S11302200000040107010A01B701A20A270E1124E4
S11302301FBECFEFD1E2DEBFCDBF00E00CBF12E0A6
S1130240A0E0B2E0EAECF3E200E00BBF02C00790EA
S11302500D92A037B107D9F724E0A0E7B2E001C0BE
S11302601D92A231B207E1F711E0C7E1D1E000E04D
S113027006C021970109802FFE010E94AB10C431F2
S1130280D10780E00807A9F70E94550E0C94E311EA
S1130290B7CE08950F931F93CF93DF93CDB7DEB7F7
S11302A0E1970FB6F894DEBF0FBECDBF26E040E85D
S11302B055E260E070E088E693E00E945C0D82E124
S11302C093E00E94740A88E792E027D408E712E0DA
S11302D0F80186898BA784E392E09AA789A7878986
S11302E0908D9DA78CA7818D928DA38DB48D8EA7A3
S11302F09FA7A8ABB9ABBE016F5F7F4FCE018996B4
S113030052D4F801878D8BA782E492E09AA789A73B
S113031080A191A19DA78CA782A193A1A4A1B5A11D
S11303208EA79FA7A8ABB9ABBE016F5F7F4FCE016D
S11303308996CAD46DA17EA18FA198A528EE33E039
S113034040E050E00E948F102093740230937502B5
S11303504093760250937702E1960FB6F894DEBF8D
S11303600FBECDBFDF91CF911F910F910895AF9232
S1130370BF92CF92DF92EF92FF920F931F93AA2422
S1130380AA94BA2C6501EE24EA94FE2C870126E097
S11303904BE062E088E792E089D31F910F91FF90D0
S11303A0EF90DF90CF90BF90AF900895CF92DF92FF
S11303B0EF92FF92CF93DF93CDB7DEB7AD970FB631
S11303C0F894DEBF0FBECDBF6091740270917502C8
S11303D080917602909177020E94070F80918E029D
S11303E08FA384E392E09EA38DA380918F029091CA
S11303F0900299A788A78091910290919202A0916E
S11304009302B09194028AA79BA7ACA7BDA7BE0193
S11304106F5F7F4FCE018596D2D2CD88DE88EF887C
S1130420F88CA7019601C701B6010E94500C8823DD
S113043039F084EA91E0909373028093720208C0C9
S1130440C701B6010E940A0B709373026093720293
S1130450809197028FA382E492E09EA38DA3809162
S113046098029091990299A788A780919A029091F5
S11304709B02A0919C02B0919D028AA79BA7ACA766
S1130480BDA7BE016F5F7F4FCE018596D2D2CD88C6
S1130490DE88EF88F88CA7019601C701B6010E9497
S11304A0500C882339F088E691E090937102809390
S11304B0700208C0C701B6010E940A0B7093710252
S11304C06093700264E070E082E193E00E948D0A20
S11304D046E050E066E072E082E193E09BD76091F1
S11304E0720282E193E0C2D782E193E00E94A00A03
S11304F064E070E082E193E00E948D0A45E050E000
S11305006DE072E082E193E085D76091700282E150
S113051093E0ACD782E193E00E94A00A68EE73E016
S113052080E090E00E94070FAD960FB6F894DEBF0E
S11305300FBECDBFDF91CF91FF90EF90DF90CF90B2
S11305400895DC0115966C93159716964C9316979F
S113055070E0FB01E25BFE4FE4911796EC93179772
S1130560FB01EC56FE4F649118966C93189740E883
S11305705EE360E070E01D964D935D936D937C9314
S1130580509708951F93CF93DF93EC01162F62E0E9
S11305908D810E9402100E94D60EDC01CB01805D89
S11305A09740A109B10989879A87AB87BC871A8BC1
S11305B0DF91CF911F910895CF92DF92EF92FF9236
S11305C01F93CF93DF93EC011F81662311F0912FCA
S11305D001C090E0288530E0220F331F26523E4FA1
S11305E0A0E0B0E0F90145915491FA0180818123A2
S11305F0AD0160E070E098130FC01196CD84DE84E5
S1130600EF84F8884C155D056E057F0558F33FEFC0
S11306102FEF8FEF9FEF03C03A2F252FCB01632FCE
S1130620722FDF91CF911F91FF90EF90DF90CF90C9
S113063008958F929F92AF92BF92CF92DF92EF92E2
S1130640FF920F931F93CF93DF93CDB7DEB7C054C0
S1130650D1400FB6F894DEBF0FBECDBF8C01F62E8D
S11306600E94D60EF11016C0F801C184D284E3842E
S1130670F4849B01AC012C193D094E095F09690101
S11306807A0130EDC31637E0D306E104F10410F427
S11306908189B6C0F8016187728783879487148241
S11306A0138212821182108262E085810E940210FC
S11306B061E070E080E090E00E94070F61E0F801E3
S11306C085810E94021060E0F80185810E943E103D
S11306D0F80186818551823028F48CE494E00E94EC
S11306E0400F06C064E170E080E090E00E94070FD4
S11306F062E0F80185810E940210F801828990E08D
S11307000E94400FF89460E0C80156DF6F3F7F4FAE
S11307108F4F9F4F21F4F801118A789442C061E011
S1130720C8014ADF6F3F7F4F8F4F9F4FA1F39E0158
S11307302F5F3F4F79015E013FEBA31A3EEFB30AEF
S1130740670160E0C80138DFF6016083718382834A
S1130750938361E0C80130DFF60164837583868387
S11307609783F8E0CF0ED11CCA14DB0451F77894B8
S113077020E030E0F70180809180A280B380448142
S1130780558166817781FFEF8F169F06AF06BF06FE
S113079031F04F3F8FEF58076807780721F4F801CD
S11307A0118A80E02DC0F90183E0F595E7958A95DB
S11307B0E1F7E00FF11F8081880F84169506A606E5
S11307C0B70608F4816080832F5F3F4FF8E0EF0E97
S11307D0F11C2832310571F6F801248130E04081A2
S11307E0818190E0840F911D4281840F911D43818A
S11307F0840F911D99272817390789F681E0818B89
S1130800C05CDE4F0FB6F894DEBF0FBECDBFDF91E4
S1130810CF911F910F91FF90EF90DF90CF90BF90F9
S1130820AF909F908F900895CF92DF92EF92FF92B6
S11308300F931F93CF93DF938C01C62F642FF9DEA0
S1130840882309F46BC0F80186818C3009F43EC01A
S113085018F48B30B9F062C08551823008F05EC064
S1130860F801D2816D2F6F7770E0762F6627838130
S1130870682B80E090E0FFD62DEC3CEC4CEC5DE383
S1130880ACD73DC0F801628170E080E090E0F3D61F
S11308906B017C01F801D381D7FF09C09B01AC0136
S11308A060E070E080E89FEB50D66B017C016D2F17
S11308B06F7070E080E090E0E0D62DEC3CEC4CEC06
S11308C05DE38BD7A701960141D61BC0F801D28105
S11308D063816F7070E080E090E0CFD62DEC3CEC4B
S11308E04CEC5DE37AD76B017C016D2F70E080E006
S11308F090E0C1D69B01AC01C701B60127D6D7FD54
S11309009058CC2379F026E636E646EE5FE365D7C9
S113091020E030E040E052E419D604C060E070E02A
S113092080EC9FE7DF91CF911F910F91FF90EF90A3
S1130930DF90CF900895CF92DF92EF92FF92CF9302
S1130940DF93EC0176DE882369F18E818B3050F1E0
S11309508D3088F08551823028F568817981762739
S11309606727762780E090E086D62DEC3CEC4CECB3
S11309705DE333D71BC0698170E080E090E07DD6F1
S11309802DEC3CEC4CEC5DE328D76B017C016881D9
S113099070E080E090E071D69B01AC01C701B60124
S11309A0D5D504C060E070E080EC9FE7DF91CF9183
S11309B0FF90EF90DF90CF900895089508950F93DE
S11309C01F93CF93DF938C01EB0184E2FB0111921F
S11309D08A95E9F784E290E0A0E0B0E08883998307
S11309E0AA83BB83F80185819681A781B0858C8316
S11309F09D83AE83BF838DE090E0A0E0B0E0888764
S1130A009987AA87BB870E94D60E688B798B8A8BBD
S1130A109B8B40E060E0F8018381948105DF6C8B5F
S1130A207D8B8E8B9F8B81E0DF91CF911F910F91F6
S1130A3008950F931F93CF93DF938C01EB0184E20E
S1130A40FB0111928A95E9F784E290E0A0E0B0E01E
S1130A5088839983AA83BB83F80185819681A781C2
S1130A60B0858C839D83AE83BF838CE090E0A0E04F
S1130A70B0E088879987AA87BB870E94D60E688BC7
S1130A80798B8A8B9B8B60E0F8018381948153DF9F
S1130A906C8B7D8B8E8B9F8B81E0DF91CF911F912F
S1130AA00F9108950C94610E0C94610E4F925F9215
S1130AB06F927F929F92AF92BF92CF92DF92EF920A
S1130AC0FF920F931F93CF93DF93EC01942E39DDA4
S1130AD09B8A84E392E09D8B8C8BD88FCF8BE98E9D
S1130AE0FA8E0B8F1C8F82E492E09E8F8D8FD9A398
S1130AF0C8A3AAA2BBA2CCA2DDA2DF91CF911F9171
S1130B000F91FF90EF90DF90CF90BF90AF909F90A8
S1130B107F906F905F904F90089567E333CDCF93AC
S1130B20DF93EB01FC0183898C3089F038F48B303E
S1130B30C1F44BE050E063E172E017C0853161F02D
S1130B40863179F44BE050E065E272E00EC04BE090
S1130B5050E069E172E009C04BE050E06FE172E0FF
S1130B6004C04BE050E06BE272E0CE010E94D4116D
S1130B701B86DF91CF910895FB01DC0153968C9184
S1130B808C3041F038F48B3029F480E492E4AFE007
S1130B90B0E004C080E894E8AEE1B0E084A395A39B
S1130BA0A6A3B7A308950F931F93CF93DF938C014C
S1130BB0EB0188E2DB011D928A95E9F7F801838154
S1130BC09481ADDF81E090E0A0E0B0E08C879D8768
S1130BD0AE87BF87F80185819681A781B085888B10
S1130BE0998BAA8BBB8B8DE090E0A0E0B0E08C8B5E
S1130BF09D8BAE8BBF8BBE0183819481BDDFD801F9
S1130C001396ED91FC91149783898C30F1F0A0F444
S1130C108B3009F048C080E090E0A8E4B2E4888F0B
S1130C20998FAA8FBB8F1C8E1D8E1E8E1F8E80E007
S1130C3090E0A0E0B0E432C08531E1F0863199F56E
S1130C4080E090E0AAEFB2E419C080E090E0A0E771
S1130C50B2E4888F998FAA8FBB8F80E090E0A0EADE
S1130C60B1EC8C8F9D8FAE8FBF8F80E090E0A0E0C1
S1130C70BFE314C080E090E0A0EAB2E4888F998FCB
S1130C80AA8FBB8F80E090E0A0E2B2EC8C8F9D8FA6
S1130C90AE8FBF8F8DEC9CECACECBDE388A399A325
S1130CA0AAA3BBA30CC0188E198E1A8E1B8E1C8E81
S1130CB01D8E1E8E1F8E18A219A21AA21BA2DF91CE
S1130CC0CF911F910F9108950F931F93CF93DF93AB
S1130CD08C01EB0188E2DB011D928A95E9F7F801AA
S1130CE0838194811CDF81E090E0A0E0B0E08C87F8
S1130CF09D87AE87BF87F80185819681A781B085DE
S1130D00888B998BAA8BBB8B8CE090E0A0E0B0E041
S1130D108C8B9D8BAE8BBF8BBE01838194812CDF2A
S1130D20D8011396ED91FC91149783898C3069F066
S1130D3038F48B30A1F580E090E0A0EAB2E409C079
S1130D408531C1F08631B1F02AC080E090E0AEEB8D
S1130D50B2E4888F998FAA8FBB8F80E090E0A0EADD
S1130D60B1E48C8F9D8FAE8FBF8F80E090E0A0EABE
S1130D70B0E410C080E090E0A8ECB2E4888F998FD2
S1130D80AA8FBB8F1C8E1D8E1E8E1F8E8DEC9CEC2D
S1130D90ACECBDE388A399A3AAA3BBA30CC0188E93
S1130DA0198E1A8E1B8E1C8E1D8E1E8E1F8E18A2DF
S1130DB019A21AA21BA2DF91CF911F910F9108953E
S1130DC01092110381E080930F0310920E0361E0EF
S1130DD084E10E943E1061E085E10E943E10E9EB4F
S1130DE0F0E080818E7F808380818D7F808388E4A2
S1130DF08093B80085E48093BC000895ECEBF0E0A8
S1130E0080818A7B808360E084E10E943E1060E000
S1130E1085E10C943E104091C002262F30E0240F4F
S1130E20311D21323105DCF4209111032430C9F441
S1130E30FC0180E090E0861758F43091C0022191C3
S1130E40DC01AE53BD4FA30FB11D2C930196F3CF1C
S1130E508091C002680F6093C00280E0089581E031
S1130E60089582E008959093050380930403089500
S1130E709093070380930603089585EC8093BC0048
S1130E80109211030895CF93DF9391E09093090397
S1130E90882351F0C091B800D091BA00AFDF90DF41
S1130EA0D093BA00C093B800DF91CF9108954F92C8
S1130EB05F926F927F928F929F92AF92BF92CF92E6
S1130EC0DF92EF92FF920F931F93CF93DF93413200
S1130ED008F0BFC0122FF42ED72EE62ED82F72D7CB
S1130EE04B015C01C0911103CC2309F180910A03E9
S1130EF090910B03A0910C03B0910D03892B8A2BC5
S1130F008B2B81F35FD740900A0350900B036090C2
S1130F100C0370900D03DC01CB0188199909AA090F
S1130F20BB09481659066A067B06E0F67FC082E0D4
S1130F308093110300930F038FEF80939E0210920E
S1130F40E302F092E2029E2DA4EEB2E0EE2DFD2D1E
S1130F508E2F891B8F1518F481918D93F9CF1092E0
S1130F60100390911003DD0FD92BD09310038091BF
S1130F700E03813079F510920E0324D76B017C01A6
S1130F80809110038093BB0080910A0390910B031E
S1130F90A0910C03B0910D03892B8A2B8B2BA1F00C
S1130FA011D780900A0390900B03A0900C03B0908B
S1130FB00D03DC01CB018C199D09AE09BF0988160C
S1130FC09906AA06BB0690F18091BC0083FDD8CF98
S1130FD085EC01C085EE8093BC00F4D66B017C01E6
S1130FE0112349F180911103823029F580910A037C
S1130FF090910B03A0910C03B0910D03892B8A2BC4
S11310008B2B71F3DFD680900A0390900B03A09092
S11310100C03B0900D03DC01CB018C199D09AE09C2
S1131020BF0988169906AA06BB06D0F68091080364
S11310302ADFC5E013C080919E028F3F79F0809132
S11310409E02803241F080919E02803331F0C4E0F0
S113105005C0C1E003C0C2E001C0C3E08C2FDF9132
S1131060CF911F910F91FF90EF90DF90CF90BF90A1
S1131070AF909F908F907F906F905F904F90089566
S113108085ED8093BC0080910A0390910B03A0919D
S11310900C03B0910D030796A11DB11D23E0B69575
S11310A0A795979587952A95D1F72091BC0024FFA1
S11310B01BC040910A0350910B0360910C03709183
S11310C00D03452B462B472B81F30097A105B10552
S11310D041F025E32A95F1F700000197A109B10930
S11310E0E4CF80910803CFCE1092110308951F928C
S11310F00F920FB60F9211240BB60F922F933F93BA
S11311004F935F936F937F938F939F93AF93BF930B
S1131110EF93FF938091B900887F803609F49DC0D6
S113112070F5883209F45CC090F4803109F455C03C
S113113038F4882309F4F3C0883009F44EC0F2C0AF
S1131140883109F44DC0803209F45EC0EBC08034AC
S113115009F469C050F4803309F456C0883309F0A7
S1131160E1C080939E0289DEDDC0803509F44FC062
S1131170883509F45DC0883409F0D4C0D2C08839F8
S113118009F4C3C0A8F4883709F467C038F4883672
S113119009F463C0803709F460C0C4C0883809F416
S11311A0B4C0803909F45FC0803809F0BBC05BC0AB
S11311B0803B09F482C038F4803A09F466C0883A66
S11311C009F47BC0AFC0803C09F4A3C0883C09F497
S11311D0A0C0883B09F486C0A5C08091100310C04C
S11311E09091E3028091E202981770F5E091E30296
S11311F081E08E0F8093E302F0E0EC51FD4F80819B
S11312008093BB0085EC82C080939E028AC0E091EB
S1131210E30281E08E0F8093E3028091BB00F0E053
S1131220EC51FD4F80839091E3028091E2026AC009
S1131230E091E30281E08E0F8093E3028091BB0092
S1131240F0E0EC51FD4F808380910F03811169C060
S113125081E080930E0384EA5DC083E080931103F0
S113126010929F02CFCF80919F02803208F04DC030
S1131270E0919F0281E08E0F80939F028091BB00DA
S1131280F0E0E056FD4F8083BDCFF7DD80919F02F3
S1131290803230F4E0919F02F0E0E056FD4F10827E
S11312A060919F0270E0E0910403F091050380EAED
S11312B092E0199510929F0235C084E08093110347
S11312C01092C1021092C002E0910603F09107034C
S11312D019958091C002811105C081E08093C002FC
S11312E01092C202E091C10281E08E0F8093C1028C
S11312F0F0E0EE53FD4F80818093BB009091C102DA
S11313008091C002981708F47DCF85E88093BC00D3
S113131009C085EC8093BC001092110303C01092A5
S11313209E02AEDEFF91EF91BF91AF919F918F919D
S11313307F916F915F914F913F912F910F900BBED1
S11313400F900FBE0F901F90189580E090E00895C5
S11313508091460390E020914703821B91090895F0
S11313609091470380914603981750F4E92FF0E0D9
S1131370E85BFC4F208130E09F5F9093470302C0FD
S11313802FEF3FEFC9010895E09147038091460391
S1131390E81730F4F0E0E85BFC4F808190E00895BA
S11313A08FEF9FEF08950895CF93DF93EC01E091C1
S11313B01E03F0911F033097F1F090914703809141
S11313C046039817C0F090E0292F30E0261737071E
S11313D054F4DE01A20FB31F4C91D901A85BBC4F9A
S11313E04C939F5FF1CF1092470360934603CB0168
S11313F0DF91CF911994DF91CF910895E09120036B
S1131400F0912103309729F01092240310922303C2
S113141019940895CF92DF92EF92FF920F931F9346
S1131420CF93DF937C01CB018A01209122032223F5
S113143089F0EB016B01C40ED51ECC15DD0561F0FE
S11314406991D701ED91FC910190F081E02DC701E4
S11314501995F3CF642FDFDCC801DF91CF911F9181
S11314600F91FF90EF90DF90CF900895CF93DF938B
S11314701F92CDB7DEB76983209122032223D1F0D6
S113148020912303203240F021E030E0FC0133833B
S1131490228380E090E014C080912403E82FF0E0E0
S11314A0EB5DFC4F998190838F5F8093240380933D
S11314B0230304C061E0CE010196ADDC81E090E03D
S11314C00F90DF91CF910895FC011382128288EE70
S11314D093E0A0E0B0E084839583A683B78380E59E
S11314E092E09183808308951092470310924603FB
S11314F0109224031092230363DC8EEF99E0B8DC8E
S113150084ED99E0B0CC81E080932203609345039D
S113151010922403109223030895F5CF0F93062FFE
S113152021E04091230365E273E080914503BFDC31
S11315301092240310922303109222030F91089512
S113154061E0ECCF82E193E0BFCF5058BB27AA27DC
S11315500ED009C1FAD030F0FFD020F031F49F3F13
S113156011F41EF4EFC00EF4E095E7FBE5C0E92F9B
S11315700BD180F3BA17620773078407950718F035
S113158071F49EF523C10EF4E0950B2EBA2FA02D15
S11315900B01B90190010C01CA01A0011124FF271C
S11315A0591B99F0593F50F4503E68F11A16F04017
S11315B0A22F232F342F4427585FF3CF4695379516
S11315C02795A795F0405395C9F77EF41F16BA0BDB
S11315D0620B730B840BBAF09150A1F0FF0FBB1F89
S11315E0661F771F881FC2F70EC0BA0F621F731FD2
S11315F0841F48F4879577956795B795F7959E3F2F
S113160008F0B3CF9395880F08F09927EE0F9795BC
S11316108795089504D06894B111D9C00895BCD0B9
S113162088F09F5790F0B92F9927B751A0F0D1F0C7
S1131630660F771F881F991F1AF0BA95C9F712C051
S1131640B13081F0C3D0B1E00895C0C0672F782FC6
S11316508827B85F39F0B93FCCF3869577956795BD
S1131660B395D9F73EF490958095709561957F4F29
S11316708F4F9F4F0895E89409C097FB3EF49095CF
S11316808095709561957F4F8F4F9F4F9923A9F057
S1131690F92F96E9BB279395F695879577956795E6
S11316A0B795F111F8CFFAF4BB0F11F460FF1BC02A
S11316B06F5F7F4F8F4F9F4F16C0882311F096E9BD
S11316C011C0772321F09EE8872F762F05C066236B
S11316D071F096E8862F70E060E02AF09A95660F24
S11316E0771F881FDAF7880F9695879597F90895DD
S11316F0990F0008550FAA0BE0E8FEEF161617061F
S1131700E807F907C0F012161306E407F50798F086
S1131710621B730B840B950B39F40A2661F0232B9F
S1131720242B252B21F408950A2609F4A140A6951B
S11317308FEF811D811D089597F99F6780E870E000
S113174060E008959FEF80EC089500240A94161633
S1131750170618060906089500240A94121613069B
S1131760140605060895092E0394000C11F4882329
S113177052F0BB0F40F4BF2B11F460FF04C06F5F45
S11317807F4F8F4F9F4F089557FD9058440F551F1B
S113179059F05F3F71F04795880F97FB991F61F0EF
S11317A09F3F79F087950895121613061406551F66
S11317B0F2CF4695F1DF08C0161617061806991FD2
S11317C0F1CF86957105610508940895E894BB27C7
S11317D066277727CB0197F908950BD0C4CFB5DFDF
S11317E028F0BADF18F0952309F0A6CFABCF112467
S11317F0EECFCADFA0F3959FD1F3950F50E0551FAC
S1131800629FF001729FBB27F00DB11D639FAA2751
S1131810F00DB11DAA1F649F6627B00DA11D661FA0
S1131820829F2227B00DA11D621F739FB00DA11DC1
S1131830621F839FA00D611D221F749F3327A00D7B
S1131840611D231F849F600D211D822F762F6A2F17
S113185011249F5750408AF0E1F088234AF0EE0F9C
S1131860FF1FBB1F661F771F881F91505040A9F7A9
S11318709E3F510570F060CFAACF5F3FECF3983ED6
S1131880DCF3869577956795B795F795E7959F5F10
S1131890C1F7FE2B880F911D9695879597F90895AA
S11318A027DF880B990B0895FC01918D228D892FD8
S11318B090E0805C9F4F821B91098F739927089554
S11318C0FC01918D828D981731F0828DE80FF11D06
S11318D0858D90E008958FEF9FEF0895FC01918D21
S11318E0828D981761F0828DDF01A80FB11D5D967E
S11318F08C91928D9F5F9F73928F90E008958FEFEC
S11319009FEF0895FC01538D448D252F30E0842FE3
S113191090E0821B930B541710F0CF960895019713
S113192008958EE19EE0892B39F080E090E0892BC8
S113193019F084D1811125C080E090E0892B41F019
S113194080E090E0892B21F00E94000081111CC0EE
S113195080E090E0892B41F080E090E0892B21F039
S11319600E940000811113C080E090E0892BA1F057
S113197080E090E0892B81F00E94000081110AC070
S113198008950E940000D8CF0E940000E1CF0E9479
S11319900000EACF0C9400000895FC01848DDF015F
S11319A0A80FB11DA35ABF4F2C91848D90E00196CE
S11319B08F739927848FA689B7892C93A089B189BD
S11319C08C91837080648C93938D848D981306C05E
S11319D00288F389E02D80818F7D80830895EF92C2
S11319E0FF920F931F93CF93DF93EC0181E0888FD5
S11319F09B8D8C8D981305C0E889F989808185FDBC
S1131A0025C0F62E0B8D10E00F5F1F4F0F731127AB
S1131A10E02E8C8DE8120BC00FB607FCFACFE889D4
S1131A20F989808185FFF5CFCE01B7DFF2CF8B8DA9
S1131A30FE01E80FF11DE35AFF4FF0829FB7F894BF
S1131A400B8FEA89FB89808180620AC09FB7F89472
S1131A50EE89FF896083E889F989808183708064D5
S1131A6080839FBF81E090E0DF91CF911F910F9120
S1131A70FF90EF900895CF93DF93EC01888D882336
S1131A80C1F0EA89FB89808185FD05C0A889B989EF
S1131A908C9186FD0EC00FB607FCF5CF808185FFC3
S1131AA0F2CFA889B9898C9185FFEDCFCE0175DF7E
S1131AB0E8CFDF91CF910895CF92DF92EF92FF921A
S1131AC01F93CF93DF93EC016A017B01122FE88906
S1131AD0F98982E080834115514E61057105A9F0B1
S1131AE060E079E08DE390E0A7019601F6D2DA0197
S1131AF0C9010197A109B109B695A795979587954D
S1131B009C01211580E13807A0F0E889F989108249
S1131B1060E874E88EE190E0A7019601DED2DA0174
S1131B20C9010197A109B109B695A795979587951C
S1131B309C01EC85FD853083EE85FF852083188E1E
S1131B40EC89FD891083EA89FB8980818061808327
S1131B50EA89FB89808188608083EA89FB898081A6
S1131B6080688083EA89FB8980818F7D8083DF910F
S1131B70CF911F91FF90EF90DF90CF9008951F9227
S1131B800F920FB60F9211240BB60F922F938F93CF
S1131B909F93EF93FF93E0917803F0917903808111
S1131BA0E0917E03F0917F0382FD12C090818091C9
S1131BB081038F5F8F7320918203821751F0E0912C
S1131BC08103F0E0E859FC4F958F8093810301C0B5
S1131BD08081FF91EF919F918F912F910F900BBE78
S1131BE00F900FBE0F901F9018951F920F920FB673
S1131BF00F9211240BB60F922F933F934F935F9341
S1131C006F937F938F939F93AF93BF93EF93FF93C0
S1131C1088E693E0C2DEFF91EF91BF91AF919F916F
S1131C208F917F916F915F914F913F912F910F9081
S1131C300BBE0F900FBE0F901F90189588E693E08F
S1131C4033DE21E0892B09F420E0822F0895E8E6B1
S1131C50F3E01382128288EE93E0A0E0B0E0848384
S1131C609583A683B78382E692E09183808385EC93
S1131C7090E09587848784EC90E09787868780EC52
S1131C8090E0918B808B81EC90E0938B828B82EC43
S1131C9090E0958B848B86EC90E0978B868B118EED
S1131CA0128E138E148E08950895F5D0FDDF0E94D0
S1131CB04A01C1E9DCE00E94D6012097E1F331DE5C
S1131CC0FACFE9C2CF92DF92EF92FF920F931F9364
S1131CD0CF93DF936C017A018B01C0E0D0E0CE1585
S1131CE0DF0581F0D8016D918D01D601ED91FC9154
S1131CF00190F081E02DC6011995892B11F02196F0
S1131D00EECF7E01C701DF91CF911F910F91FF901C
S1131D10EF90DF90CF9008951F920F920FB60F921D
S1131D2011242F933F938F939F93AF93BF938091ED
S1131D30060490910704A0910804B091090430911D
S1131D40050423E0230F2D3720F40196A11DB11DB6
S1131D5005C026E8230F0296A11DB11D209305049A
S1131D608093060490930704A0930804B093090495
S1131D7080910A0490910B04A0910C04B0910D047D
S1131D800196A11DB11D80930A0490930B04A093A6
S1131D900C04B0930D04BF91AF919F918F913F912B
S1131DA02F910F900FBE0F901F9018952FB7F89496
S1131DB060910604709107048091080490910904CD
S1131DC02FBF08953FB7F89480910A0490910B04B3
S1131DD0A0910C04B0910D0426B5A89B05C02F3F1B
S1131DE019F00196A11DB11D3FBFBA2FA92F982F3D
S1131DF08827820F911DA11DB11DBC01CD0142E0B8
S1131E00660F771F881F991F4A95D1F708958F92FF
S1131E109F92AF92BF92CF92DF92EF92FF926B01AB
S1131E207C01D0DF4B015C01C114D104E104F10455
S1131E30F1F052D1C7DFDC01CB0188199909AA0955
S1131E40BB09883E9340A105B10570F321E0C21A95
S1131E50D108E108F10888EE880E83E0981EA11CE1
S1131E60B11CC114D104E104F10421F7DDCFFF90CA
S1131E70EF90DF90CF90BF90AF909F908F90089598
S1131E808230910538F0880F991F880F991F0597A4
S1131E900197F1F70895789484B5826084BD84B580
S1131EA0816084BD85B5826085BD85B5816085BD51
S1131EB0EEE6F0E0808181608083E1E8F0E010826A
S1131EC0808182608083808181608083E0E8F0E0AB
S1131ED0808181608083E1EBF0E080818460808395
S1131EE0E0EBF0E0808181608083E1E9F0E08081D3
S1131EF082608083808181608083E0E9F0E080817A
S1131F0081608083E1EAF0E0808182608083808167
S1131F1081608083E0EAF0E0808181608083E1E297
S1131F20F1E0808182608083808181608083E0E24F
S1131F30F1E0808181608083EAE7F0E08081846061
S1131F4080838081826080838081816080838081BE
S1131F50806880831092C100089590E0FC0131975D
S1131F60E231F10508F04DC08827EE58FF4F8F4F3E
S1131F70F2C0809180008F7703C0809180008F7DB4
S1131F8080938000089580918000877FF9CF84B585
S1131F908F7702C084B58F7D84BD08958091B00091
S1131FA08F7703C08091B0008F7D8093B000089537
S1131FB0809190008F7707C0809190008F7D03C03F
S1131FC080919000877F8093900008958091A00075
S1131FD08F7707C08091A0008F7D03C08091A000FF
S1131FE0877F8093A0000895809120018F7707C098
S1131FF0809120018F7D03C080912001877F809391
S113200020010895CF93DF9390E0FC01E25BFE4F43
S11320102491FC01EC56FE4F8491882361F190E0F9
S1132020880F991FFC01E25FFD4FC591D491FC011B
S1132030EC50FE4FA591B491611109C09FB7F8947B
S11320408881209582238883EC912E230BC06230F3
S113205061F49FB7F8948881322F30958323888365
S1132060EC912E2B2C939FBF06C08FB7F894E88178
S11320702E2B28838FBFDF91CF9108951F93CF9389
S1132080DF93282F30E0F901E85FFE4F8491F901D6
S1132090E25BFE4FD491F901EC56FE4FC491CC2380
S11320A0B9F0162F811159DFEC2FF0E0EE0FFF1F6E
S11320B0EC50FE4FA591B4919FB7F894111104C050
S11320C08C91D095D82302C0EC91DE2BDC939FBF7A
S11320D0DF91CF911F9108950895A1E21A2EAA1BB2
S11320E0BB1BFD010DC0AA1FBB1FEE1FFF1FA217C4
S11320F0B307E407F50720F0A21BB30BE40BF50BC1
S1132100661F771F881F991F1A9469F76095709549
S1132110809590959B01AC01BD01CF010895052EDA
S113212097FB16F400940FD057FD05D0D6DF07FCBB
S113213002D046F408C050954095309521953F4F04
S11321404F4F5F4F089590958095709561957F4F9F
S11321508F4F9F4F0895EE0FFF1F881F8BBF07906F
S1132160F691E02D19940F931F93CF93DF93823050
S1132170910510F482E090E0E0911004F0911104D4
S113218020E030E0A0E0B0E0309719F140815181C7
S11321900281138148175907C8F08417950769F419
S11321A0109731F012960C93129713961C9327C034
S11321B0009310041093110422C02115310519F065
S11321C04217530718F49A01BD01EF01DF01F8012A
S11321D0DBCF21153105F9F0281B390B24303105EB
S11321E080F48A819B816115710521F0FB01938341
S11321F0828304C09093110480931004FE013296EC
S113220044C0FE01E20FF31F8193919322503109E0
S1132210398328833AC020910E0430910F04232B74
S113222041F4209102023091030230930F04209371
S11322300E0420910002309101022115310541F470
S11322402DB73EB74091040250910502241B350B73
S1132250E0910E04F0910F04E217F307A0F42E1B93
S11322603F0B2817390778F0AC014E5F5F4F2417F6
S1132270350748F04E0F5F1F50930F0440930E0430
S11322808193919302C0E0E0F0E0CF01DF91CF9120
S11322901F910F910895CF93DF93009709F481C0A4
S11322A0FC01329713821282A0911004B0911104A0
S11322B0109781F420813181820F931F20910E04A5
S11322C030910F042817390751F5F0930F04E09368
S11322D00E0467C0ED0120E030E0CE17DF0740F4C4
S11322E04A815B819E0141155105F1F0EA01F5CF68
S11322F0D383C28340815181840F951FC817D907A6
S113230059F488819981840F951F02969183808363
S11323108A819B81938382832115310529F4F0936B
S11323201104E09310043DC0E901FB83EA83499161
S11323305991C40FD51FEC17FD0761F48081918179
S1132340840F951F0296E901998388838281938182
S11323509B838A83E0E0F0E012968D919C91139721
S1132360009719F0FD01DC01F7CF8D919C91119735
S11323709D012E5F3F4F820F931F20910E043091D9
S11323800F042817390769F4309729F410921104BF
S11323901092100402C013821282B0930F04A0930F
S11323A00E04DF91CF910895FB01DC0141505040B0
S11323B048F001900D920020C9F701C01D924150D0
S10D23C05040E0F70895F894FFCFB1
S11323CA00001204200054656D703A200048756DAF
S11323DA3A200044485431310044485431320044CC
S11323EA48543231004448543232004448543F007D
S11323FA00000000DE0454054901DF04D30500008F
S113240A0000DD04520549011905640600000000B4
S113241A360A0A0AA509D309A809B009C409000099
S113242A0000EF0C620E820C3B0D540C6E0C600C17
S9030000FC
